:0400000007EF00F016
:100008004182FFED05F0E5EF07F001015C6FF29E1C
:100018006EC151F16FC152F1000E0101546F6E0EA5
:10002800536F0EEC09F0080E01015127000E522300
:100038006E0E5125D96E020E5221DA6E5CC1DFFFB9
:100048006EC151F16FC152F1000E546F6E0E536FB5
:100058000EEC09F06B0E01015127000E52236E0EB3
:100068005125D96E020E5221DA6EE0CFDFFF6EC144
:1000780051F16FC152F1000E546F6E0E536F0EECBA
:1000880009F06C0E01015127000E52236E0E512506
:10009800D96E020E5221DA6ED8CFDFFF6EC151F150
:1000A8006FC152F1000E546F6E0E536F0EEC09F0D3
:1000B8006D0E01015127000E52236E0E5125D96E87
:1000C800020E5221DA6EE8CFDFFF6EC151F16FC127
:1000D80052F1000E546F6E0E536F0EEC09F0690E5C
:1000E80001015127000E52236E0E5125D96E020EC2
:1000F8005221DA6E000EDE6E000EDD6E6EC151F119
:100108006FC152F1000E0101546F6E0E536F0EEC69
:1001180009F0690E01015127000E52236E0E512578
:10012800D96E020E5221DA6EDECF5DF1DDCF5EF1BF
:100138006EC151F16FC152F1000E546F6E0E536FC4
:100148000EEC09F0090E01015127000E52236E0E24
:100158005A6F020E5B6F51515A2752515B235DC192
:1001680051F15EC152F1000E546F030E536F0EEC45
:1001780009F0010151515A25D96E52515B21DA6EAD
:10018800FFCFDFFF6EC151F16FC152F1000E546F06
:100198006E0E536F0EEC09F0690E01015127000E27
:1001A80052236E0E5125D96E020E5221DA6EDECF21
:1001B8005DF1DDCF5EF16EC151F16FC152F1000EFC
:1001C800546F6E0E536F0EEC09F0090E01015127A2
:1001D800000E52236E0E5A6F020E5B6F51515A2752
:1001E80052515B235DC151F15EC152F1000E546F53
:1001F800030E536F0EEC09F0010151515A27525169
:100208005B23010E5A25D96E000E5B21DA6EFDCFF5
:10021800DFFF6EC151F16FC152F1000E546F6E0EC7
:10022800536F0EEC09F0690E01015127000E52239D
:100238006E0E5125D96E020E5221DA6EDECF5DF1B7
:10024800DDCF5EF16EC151F16FC152F1000E546FF6
:100258006E0E536F0EEC09F0090E01015127000EC6
:1002680052236E0E5A6F020E5B6F51515A2752512C
:100278005B235DC151F15EC152F1000E546F030E54
:10028800536F0EEC09F0010151515A2752515B236B
:10029800020E5A25D96E000E5B21DA6EFECFDFFF03
:1002A8006EC151F16FC152F1000E546F6E0E536F53
:1002B8000EEC09F0690E01015127000E52236E0E53
:1002C8005125D96E020E5221DA6EDE2A000EDD2289
:1002D8000600FC50D8A412D721EC07F055C16EF1E6
:1002E80056C16FF1000EFC6E6EC151F16FC152F133
:1002F800000E0101546F6E0E536F0EEC09F0690E7B
:1003080001015127000E52236E0E5125D96E020E9F
:100318005221DA6EDE50DE10D8A421D005006EC15D
:1003280051F16FC152F1000E0101546F6E0E536FFF
:100338000EEC09F0040E01015127000E52236E0E37
:100348005125D96E020E5221DA6EDECF5AF1DDCF79
:100358005BF15AC1FDFF5BC1FEFFFF6A4AD16EC166
:1003680051F16FC152F1000E546F6E0E536F0EECC7
:1003780009F06B0E01015127000E52236E0E512514
:10038800D96E020E5221DA6EDF50E06E6EC151F165
:100398006FC152F1000E546F6E0E536F0EEC09F0E0
:1003A8006C0E01015127000E52236E0E5125D96E95
:1003B800020E5221DA6EDF50D86E6EC151F16FC154
:1003C80052F1000E546F6E0E536F0EEC09F06D0E65
:1003D80001015127000E52236E0E5125D96E020ECF
:1003E8005221DA6EDF505A6F5A5105006EC151F131
:1003F8006FC152F1000E0101546F6E0E536F0EEC77
:1004080009F0690E01015127000E52236E0E512585
:10041800D96E020E5221DA6EDE06000EDD5A6EC16A
:1004280051F16FC152F1000E546F6E0E536F0EEC06
:1004380009F0690E01015127000E52236E0E512555
:10044800D96E020E5221DA6EDECF5DF1DDCF5EF19C
:100458006EC151F16FC152F1000E546F6E0E536FA1
:100468000EEC09F0090E01015127000E52236E0E01
:100478005A6F020E5B6F51515A2752515B235DC16F
:1004880051F15EC152F1000E546F030E536F0EEC22
:1004980009F0010151515A25D96E52515B21DA6E8A
:1004A800DF50FF6E6EC151F16FC152F1000E546FF3
:1004B8006E0E536F0EEC09F0690E01015127000E04
:1004C80052236E0E5125D96E020E5221DA6EDECFFE
:1004D8005DF1DDCF5EF16EC151F16FC152F1000ED9
:1004E800546F6E0E536F0EEC09F0090E010151277F
:1004F800000E52236E0E5A6F020E5B6F51515A272F
:1005080052515B235DC151F15EC152F1000E546F2F
:10051800030E536F0EEC09F0010151515A27525145
:100528005B23010E5A25D96E000E5B21DA6EDF506F
:10053800FD6E6EC151F16FC152F1000E546F6E0E17
:10054800536F0EEC09F0690E01015127000E52237A
:100558006E0E5125D96E020E5221DA6EDECF5DF194
:10056800DDCF5EF16EC151F16FC152F1000E546FD3
:100578006E0E536F0EEC09F0090E01015127000EA3
:1005880052236E0E5A6F020E5B6F51515A27525109
:100598005B235DC151F15EC152F1000E546F030E31
:1005A800536F0EEC09F0010151515A2752515B2348
:1005B800020E5A25D96E000E5B21DA6EDF50FE6EF0
:1005C8006EC151F16FC152F1000E546F6E0E536F30
:1005D8000EEC09F0690E01015127000E52236E0E30
:1005E8005125D96E020E5221DA6EDE50DE10D8A4E3
:1005F800FCD66EC151F16FC152F1000E546F6E0EF0
:10060800536F0EEC09F0080E01015127000E52231A
:100618006E0E5125D96E020E5221DA6E020EDF6E71
:10062800F28EF28E12000E6EF29E6EC101F06FC154
:1006380002F0000E046E6E0E036E39EC09F0080E1F
:100648000126000E02226E0E0124D96E020E02202F
:10065800DA6E0EC0DFFF6EC101F06FC102F0000E4E
:10066800046E6E0E036E39EC09F06B0E0126000E57
:1006780002226E0E0124D96E020E0220DA6EE0CF3D
:10068800DFFF6EC101F06FC102F0000E046E6E0E46
:10069800036E39EC09F06C0E0126000E02226E0E74
:1006A8000124D96E020E0220DA6ED8CFDFFF6EC1A8
:1006B80001F06FC102F0000E046E6E0E036E39EC8D
:1006C80009F06D0E0126000E02226E0E0124D96E6D
:1006D800020E0220DA6EE8CFDFFF6EC101F06FC1B3
:1006E80002F0000E046E6E0E036E39EC09F0690E0E
:1006F8000126000E02226E0E0124D96E020E02207F
:10070800DA6E000EDE6E000EDD6E6EC101F06FC196
:1007180002F0000E046E6E0E036E39EC09F0690EDD
:100728000126000E02226E0E0124D96E020E02204E
:10073800DA6EDECF0FF0DDCF10F06EC101F06FC1C1
:1007480002F0000E046E6E0E036E39EC09F0090E0D
:100758000126000E02226E0E0C6E020E0D6E015066
:100768000C2602500D220FC001F010C002F0000E3E
:10077800046E030E036E39EC09F001500C24D96E97
:1007880002500D20DA6EFFCFDFFF6EC101F06FC19E
:1007980002F0000E046E6E0E036E39EC09F0690E5D
:1007A8000126000E02226E0E0124D96E020E0220CE
:1007B800DA6EDECF0FF0DDCF10F06EC101F06FC141
:1007C80002F0000E046E6E0E036E39EC09F0090E8D
:1007D8000126000E02226E0E0C6E020E0D6E0150E6
:1007E8000C2602500D220FC001F010C002F0000EBE
:1007F800046E030E036E39EC09F001500C2602500A
:100808000D22010E0C24D96E000E0D20DA6EFDCFDC
:10081800DFFF6EC101F06FC102F0000E046E6E0EB4
:10082800036E39EC09F0690E0126000E02226E0EE5
:100838000124D96E020E0220DA6EDECF0FF0DDCF72
:1008480010F06EC101F06FC102F0000E046E6E0E62
:10085800036E39EC09F0090E0126000E02226E0E15
:100868000C6E020E0D6E01500C2602500D220FC0A8
:1008780001F010C002F0000E046E030E036E39EC96
:1008880009F001500C2602500D22020E0C24D96EDC
:10089800000E0D20DA6EFECFDFFF6EC101F06FC1D2
:1008A80002F0000E046E6E0E036E39EC09F0690E4C
:1008B8000126000E02226E0E0124D96E020E0220BD
:1008C800DA6EDE2A000EDD220600FC50D8A41DD701
:1008D80086EC07F007C06EF108C06FF1000EFC6EE1
:1008E8006EC101F06FC102F0000E046E6E0E036E51
:1008F80039EC09F0690E0126000E02226E0E012461
:10090800D96E020E0220DA6EDE50DE10D8A41FD097
:1009180005006EC101F06FC102F0000E046E6E0E8C
:10092800036E39EC09F0040E0126000E02226E0E49
:100938000124D96E020E0220DA6EDECF0CF0DDCF74
:100948000DF00CC0FDFF0DC0FEFFFF6A3BD16EC16C
:1009580001F06FC102F0000E046E6E0E036E39ECEA
:1009680009F06B0E0126000E02226E0E0124D96ECC
:10097800020E0220DA6EDF50E06E6EC101F06FC128
:1009880002F0000E046E6E0E036E39EC09F06C0E68
:100998000126000E02226E0E0124D96E020E0220DC
:1009A800DA6EDF50D86E6EC101F06FC102F0000E32
:1009B800046E6E0E036E39EC09F06D0E0126000E02
:1009C80002226E0E0124D96E020E0220DA6EDF506A
:1009D8000C6E0C5005006EC101F06FC102F0000EE4
:1009E800046E6E0E036E39EC09F0690E0126000ED6
:1009F80002226E0E0124D96E020E0220DA6EDE0685
:100A0800000EDD5A6EC101F06FC102F0000E046ED7
:100A18006E0E036E39EC09F0690E0126000E0222F3
:100A28006E0E0124D96E020E0220DA6EDECF0FF0B0
:100A3800DDCF10F06EC101F06FC102F0000E046E40
:100A48006E0E036E39EC09F0090E0126000E022223
:100A58006E0E0C6E020E0D6E01500C2602500D2209
:100A68000FC001F010C002F0000E046E030E036EFA
:100A780039EC09F001500C24D96E02500D20DA6EC1
:100A8800DF50FF6E6EC101F06FC102F0000E046E00
:100A98006E0E036E39EC09F0690E0126000E022273
:100AA8006E0E0124D96E020E0220DA6EDECF0FF030
:100AB800DDCF10F06EC101F06FC102F0000E046EC0
:100AC8006E0E036E39EC09F0090E0126000E0222A3
:100AD8006E0E0C6E020E0D6E01500C2602500D2289
:100AE8000FC001F010C002F0000E046E030E036E7A
:100AF80039EC09F001500C2602500D22010E0C248D
:100B0800D96E000E0D20DA6EDF50FD6E6EC101F059
:100B18006FC102F0000E046E6E0E036E39EC09F020
:100B2800690E0126000E02226E0E0124D96E020EF5
:100B38000220DA6EDECF0FF0DDCF10F06EC101F0CB
:100B48006FC102F0000E046E6E0E036E39EC09F0F0
:100B5800090E0126000E02226E0E0C6E020E0D6E9C
:100B680001500C2602500D220FC001F010C002F0F7
:100B7800000E046E030E036E39EC09F001500C26CA
:100B880002500D22020E0C24D96E000E0D20DA6ED2
:100B9800DF50FE6E6EC101F06FC102F0000E046EF0
:100BA8006E0E036E39EC09F0690E0126000E022262
:100BB8006E0E0124D96E020E0220DA6EDE50DE10AF
:100BC800D8A408D76EC101F06FC102F0000E046E00
:100BD8006E0E036E39EC09F0080E0126000E022293
:100BE8006E0E0124D96E020E0220DA6E020EDF6E3E
:100BF800F28EF28E12000600FACF13F0FBCF14F03B
:100C0800E9CF15F0EACF16F0E1CF17F0E2CF18F0F0
:100C1800D9CF19F0DACF1AF0F3CF1BF0F4CF1CF0CC
:100C2800F6CF1DF0F7CF1EF0F8CF1FF0F5CF20F06C
:100C380041C021F042C022F043C023F044C024F058
:100C4800F2A47CD0F294FC0ED66E000E266E010E35
:100C5800256E5FD025C001F026C002F0000E046E9C
:100C68006E0E036E39EC09F0080E0126000E022202
:100C78006E0E0124D96E020E0220DA6E030EDE1803
:100C8800D8A445D025C001F026C002F0000E046E9D
:100C98006E0E036E39EC09F0060E0126000E0222D4
:100CA8006E0E0124D96E020E0220DA6EDE06000EE8
:100CB800DD5A25C001F026C002F0000E046E6E0E4B
:100CC800036E39EC09F0060E0126000E02226E0EA4
:100CD8000124D96E020E0220DA6EDE50DE10D8A48E
:100CE80016D025C001F026C002F0000E046E6E0E6C
:100CF800036E39EC09F0080E0126000E02226E0E72
:100D08000124D96E020E0220DA6E010EDF6E254A2A
:100D1800262A01017051255C71512658D8A09AD70E
:100D28003F06D8A040063F504010D8A407D0000E78
:100D3800406E040E3F6E010E17EC03F024C044F021
:100D480023C043F022C042F021C041F020C0F5FF8B
:100D58001FC0F8FF1EC0F7FF1DC0F6FF1CC0F4FF40
:100D68001BC0F3FF1AC0DAFF19C0D9FF18C0E2FF91
:100D780017C0E1FF16C0EAFF15C0E9FF14C0FBFF6A
:100D880013C0FAFF41921100F29E91C0D9FF92C0A0
:100D9800DAFFDE06000EDD5A91C0D9FF92C0DAFFF5
:100DA800010EDBAE48D0000120EE0CF09151D9269F
:100DB8009251DA22DECF93F0DDCF94F0D8909337BA
:100DC800943791C095F092C096F09351952794511D
:100DD8009623020E9525D96E000E9621DA6E6EC105
:100DE800DEFF6FC1DDFF20EE0CF09151D926925144
:100DF800DA22DECF93F0DDCF94F0010E93250101C6
:100E0800516F000E000194210101526F000E546FC2
:100E1800050E536F3AEC08F0000120EE0CF09151EA
:100E2800D9269251DA22010151C1DEFF52C1DDFFFC
:100E3800050E09EC00F0F28E12006EC158F16FC178
:100E480059F1010E01015825516F000E5921526FB9
:100E580070C153F171C154F13AEC08F051C158F125
:100E680052C159F158C151F159C152F1000E010155
:100E7800546F6E0E536F0EEC09F0080E01015127E6
:100E8800000E52236E0E5125D96E020E5221DA6ED3
:100E9800DE04D8A4D6D758C155F159C156F112006D
:100EA800C3EC08F0000E0101696F020E686F000EB6
:100EB8006B6F030E6A6F220E6C6F100E6D6FB6ECBF
:100EC80007F0000E0101696F030E686F000E6B6F6B
:100ED800030E6A6FEC0E6C6F110E6D6FB6EC07F0B7
:100EE800000E0101696F040E686F000E6B6F030E30
:100EF8006A6FBA0E6C6F110E6D6FB6EC07F05DEC91
:100F080009F0FFD76EC10AF06FC10BF0010E0A2479
:100F1800016E000E0B20026E70C103F071C104F067
:100F280062EC08F001C00AF002C00BF00AC001F040
:100F38000BC002F0000E046E6E0E036E39EC09F061
:100F4800080E0126000E02226E0E0124D96E020E32
:100F58000220DA6EDE04D8A4D9D70AC007F00BC085
:100F680008F0120068C100F269C101F26AC102F218
:100F78006BC103F26CC104F26DC105F2000E0201EF
:100F88006A6F000E696F010E086F22EE00F070C1E3
:100F980062F171C163F1000E0101656F6E0E646F3D
:100FA80025EC09F06E0E01016225E16E020E632147
:100FB800E26E6D0EDBCFE3FFE806FCE2704B712BAF
:100FC8001200BE0EF66E120EF76E000EF86E0900D5
:100FD800F5CF3FF00900F5CF40F002EE6EF012EECB
:100FE80026F0EE6AE550E150FCE1E250FAE1010139
:100FF800716B706B6F6B6E6B00EE9DF0100EEE6A8E
:10100800E806FDE100EE27F0180EEE6AE806FDE1BD
:1010180041904192000154EF07F0959083909D0E06
:1010280000018F6F000E906F000E926F010E916F8E
:1010380083EC08F09D0E0001916F000E926FC8ECD2
:1010480006F083A002D0010E01D0000EFF0A0001B5
:10105800976F83509719FE0B9719836E000E010145
:10106800606F640E5F6FA3EC08F0E4D70101535181
:101078005411D8B41ED0010E00019B6F06D0010197
:10108800D8905337543700019B2B010154AFF7D741
:1010980001015351515D54515259D8A004D05351B4
:1010A800515F5451525BD8905433533300019B2FF6
:1010B800EFD751C151F152C152F11200035004103F
:1010C800D8B418D0010E056E04D0D8900336043673
:1010D800052A04AEFAD70350015C04500258D8A080
:1010E80004D00350015E0450025AD89004320332EF
:1010F800052EF1D701C001F002C002F01200F29EE5
:101108008FC0D9FF90C0DAFF91C0DEFF92C0DDFF2B
:10111800000120EE0CF08F51D9269051DA22000EF2
:10112800DE6E000EDD6E20EE0EF08F51D926905146
:10113800DA22000EDE6E000EDD6EF28E1200F29ED6
:101148006EC151F16FC152F1000E0101546F6E0E64
:10115800536F0EEC09F0060E01015127000E5223C1
:101168006E0E5125D96E020E5221DA6E5FC1DEFF76
:1011780060C1DDFF030E09EC00F0F28E1200D59A73
:10118800D596D580D582D584F28CF28AFC0ED66E9F
:10119800000E0101696F010E686F000E6B6F050E7E
:1011A8006A6F980E6C6F120E6D6FB6EC07F0F28EC8
:1011B80012009596839683A602D0010E01D0000EE8
:1011C800FF0A0101616F61476147614783506119F7
:1011D800F70B6119836E000E606F640E5F6FA3ECEE
:1011E80008F0E9D79592839283A202D0010E01D02C
:1011F800000EFF0A00019A6F9A4783509A19FD0B57
:101208009A19836E000E0101606F640E5F6FA3EC84
:1012180008F0EAD7010151515303F3CF9BF0F4CF03
:101228009CF051515403F35000019C270101525185
:101238005303F35000019C279BC051F19CC052F10D
:101248001200010162516403F3CF66F1F4CF67F134
:1012580062516503F350672763516403F3506727AE
:1012680066C162F167C163F1120001500302F3CF56
:1012780005F0F4CF06F001500402F35006260250A0
:101288000302F350062605C001F006C002F0120062
:10129800959883A802D0010E01D0000EFF0A000124
:1012A8008E6F8E3B83508E19EF0B8E19836E00F074
:0812B800F0D7D58E12000400EE
:020000040020DA
:08000000FFFFFFFFFFFFFFFF00
:020000040030CA
:0E000000FF071F1FFF8385FF0FC00FE00F409B
:00000001FF
