:0400000006EF00F017
:1000080033ED04F015EE14F0C1EF07F0F29E6E0E1A
:10001800E66E000EE66E37C0E6FF38C0E6FF5DEC20
:1000280006F0F60E4924D96E000E4A20DA6EFF0E4D
:10003800E3CFDFFF6E0EE66E000EE66E37C0E6FF1A
:1000480038C0E6FF5DEC06F0590E4924D96E010E62
:100058004A20DA6EE0CFDFFF6E0EE66E000EE66E27
:1000680037C0E6FF38C0E6FF5DEC06F05A0E4924BB
:10007800D96E010E4A20DA6ED8CFDFFF6E0EE66E1B
:10008800000EE66E37C0E6FF38C0E6FF5DEC06F00E
:100098005B0E4924D96E010E4A20DA6EE8CFDFFFE5
:1000A8006E0EE66E000EE66E37C0E6FF38C0E6FF5D
:1000B8005DEC06F0570E4924D96E010E4A20DA6E1F
:1000C800000EDE6E000EDD6E030EE66E000EE66EAE
:1000D8006E0EE66E000EE66E37C0E6FF38C0E6FF2D
:1000E8005DEC06F0570E4924D96E010E4A20DA6EEF
:1000F800DECF4AF0DDCF4BF04AC0E6FF4BC0E6FF4B
:100108005DEC06F049C051F04AC052F06E0EE66E42
:10011800000EE66E37C0E6FF38C0E6FF5DEC06F07D
:10012800EE0E536E000E546E090E5326000E542226
:10013800495053264A50542251505324D96E525094
:100148005420DA6EFFCFDFFF030EE66E000EE66E78
:100158006E0EE66E000EE66E37C0E6FF38C0E6FFAC
:100168005DEC06F0570E4924D96E010E4A20DA6E6E
:10017800DECF4AF0DDCF4BF04AC0E6FF4BC0E6FFCA
:100188005DEC06F049C051F04AC052F06E0EE66EC2
:10019800000EE66E37C0E6FF38C0E6FF5DEC06F0FD
:1001A800EE0E536E000E546E0A0E5326000E5422A5
:1001B800495053264A50542251505324D96E525014
:1001C8005420DA6EFDCFDFFF030EE66E000EE66EFA
:1001D8006E0EE66E000EE66E37C0E6FF38C0E6FF2C
:1001E8005DEC06F0570E4924D96E010E4A20DA6EEE
:1001F800DECF4AF0DDCF4BF04AC0E6FF4BC0E6FF4A
:100208005DEC06F049C051F04AC052F06E0EE66E41
:10021800000EE66E37C0E6FF38C0E6FF5DEC06F07C
:10022800EE0E536E000E546E0B0E5326000E542223
:10023800495053264A50542251505324D96E525093
:100248005420DA6EFECFDFFF6E0EE66E000EE66E0D
:1002580037C0E6FF38C0E6FF5DEC06F0570E4924CC
:10026800D96E010E4A20DA6EDE2A000EDD22060063
:10027800FC50D8A429D7A8EC06F049C037F04AC0EA
:1002880038F0FC6A6E0EE66E000EE66E37C0E6FFCA
:1002980038C0E6FF5DEC06F0570E4924D96E010E12
:1002A8004A20DA6EDE50DE10D8A41BD005006E0E90
:1002B800E66E000EE66E37C0E6FF38C0E6FF5DEC7E
:1002C80006F0F20E4924D96E000E4A20DA6EDECF0F
:1002D8004AF0DDCF4BF04AC0FDFF4BC0FEFFFF6A7E
:1002E8001FD16E0EE66E000EE66E37C0E6FF38C010
:1002F800E6FF5DEC06F0590E4924D96E010E4A203E
:10030800DA6EDF50E06E6E0EE66E000EE66E37C0F7
:10031800E6FF38C0E6FF5DEC06F05A0E4924D96EB8
:10032800010E4A20DA6EDF50D86E6E0EE66E000EB1
:10033800E66E37C0E6FF38C0E6FF5DEC06F05B0E00
:100348004924D96E010E4A20DA6EDF50546E54509B
:1003580005006E0EE66E000EE66E37C0E6FF38C08A
:10036800E6FF5DEC06F0570E4924D96E010E4A20CF
:10037800DA6EDE06000EDD5A030EE66E000EE66E3D
:100388006E0EE66E000EE66E37C0E6FF38C0E6FF7A
:100398005DEC06F0570E4924D96E010E4A20DA6E3C
:1003A800DECF4AF0DDCF4BF04AC0E6FF4BC0E6FF98
:1003B8005DEC06F049C051F04AC052F06E0EE66E90
:1003C800000EE66E37C0E6FF38C0E6FF5DEC06F0CB
:1003D800EE0E536E000E546E090E5326000E542274
:1003E800495053264A50542251505324D96E5250E2
:1003F8005420DA6EDF50FF6E030EE66E000EE66ED6
:100408006E0EE66E000EE66E37C0E6FF38C0E6FFF9
:100418005DEC06F0570E4924D96E010E4A20DA6EBB
:10042800DECF4AF0DDCF4BF04AC0E6FF4BC0E6FF17
:100438005DEC06F049C051F04AC052F06E0EE66E0F
:10044800000EE66E37C0E6FF38C0E6FF5DEC06F04A
:10045800EE0E536E000E546E0A0E5326000E5422F2
:10046800495053264A50542251505324D96E525061
:100478005420DA6EDF50FD6E030EE66E000EE66E57
:100488006E0EE66E000EE66E37C0E6FF38C0E6FF79
:100498005DEC06F0570E4924D96E010E4A20DA6E3B
:1004A800DECF4AF0DDCF4BF04AC0E6FF4BC0E6FF97
:1004B8005DEC06F049C051F04AC052F06E0EE66E8F
:1004C800000EE66E37C0E6FF38C0E6FF5DEC06F0CA
:1004D800EE0E536E000E546E0B0E5326000E542271
:1004E800495053264A50542251505324D96E5250E1
:1004F8005420DA6EDF50FE6E6E0EE66E000EE66E6B
:1005080037C0E6FF38C0E6FF5DEC06F0570E492419
:10051800D96E010E4A20DA6EDE50DE10D8A418D744
:100528006E0EE66E000EE66E37C0E6FF38C0E6FFD8
:100538005DEC06F0F60E4924D96E000E4A20DA6EFC
:10054800020EDF6EF28EF28EE5521200E652FD0EBA
:10055800E3CF4AF0FE0EE3CF4BF0080E4A24D96EE3
:10056800000E4B20DA6EDE50DE10D8A414D0FD0E3B
:10057800E3CF4AF0FE0EE3CF4BF00A0E4A24D96EC1
:10058800000E4B20DA6E37C0DEFF38C0DDFF060EE6
:10059800E66E0AEC00F0FD0EE3CF4AF0FE0EE3CF64
:1005A8004BF0040E4A24D96E000E4B20DA6EDECFD3
:1005B8004AF0DDCF4BF0FD0EE3CF53F0FE0EE3CF54
:1005C80054F04A505324D96E4B505420DA6EDF5001
:1005D800546EFF0E54C0E3FFFD0EE3CF4AF0FE0E4B
:1005E800E3CF4BF0040E4A24D96E000E4B20DA6E8E
:1005F800DECF4AF0DDCF4BF0010E4A26000E4B222B
:10060800030E4A16000E4B16FD0EE3CF53F0FE0EF6
:10061800E3CF54F0040E5324D96E000E5420DA6E42
:100628004AC0DEFF4BC0DDFFFD0EE3CF4AF0FE0EF1
:10063800E3CF4BF0080E4A24D96E000E4B20DA6E39
:10064800DE06000EDD5AFD0EE3CF4AF0FE0EE3CFC4
:100658004BF00C0E4A24D96E000E4B20DA6EDE5099
:10066800DE10D8B432D06E0EE66E000EE66EFB0ECB
:10067800E3CF4AF0FC0EE3CF4BF00C0E4A24D96EC0
:10068800000E4B20DA6EDECF4AF0DDCF4BF04AC0C9
:10069800E6FF4BC0E6FF5DEC06F0F60E4924D96E86
:1006A800000E4A20DA6E010EDF6EFD0EE3CF4AF02F
:1006B800FE0EE3CF4BF00C0E4A24D96E000E4B20F1
:1006C800DA6E000EDE6E000EDD6EFF0EE3CF49F02F
:1006D800E552E552E5521200F29EFE0EE3CF4AF0D3
:1006E800FF0EE3CF4BF0080E4A24D96E000E4B20C4
:1006F800DA6E040EDE18DE10D8A414D0FE0EE3CF96
:100708004AF0FF0EE3CF4BF00C0E4A24D96E000ED0
:100718004B20DA6E37C0DEFF38C0DDFF060EE66E0E
:100728000AEC00F0FE0EE3CF4AF0FF0EE3CF4BF0E9
:10073800060E4A24D96E000E4B20DA6EDECF4AF040
:10074800DDCF4BF0FE0EE3CF53F0FF0EE3CF54F0B6
:100758004A505324D96E4B505420DA6EFD0EE3CF25
:10076800DFFFFE0EE3CF4AF0FF0EE3CF4BF0060E9D
:100778004A24D96E000E4B20DA6EDECF4AF0DDCF68
:100788004BF0010E4A26000E4B22030E4A16000EAD
:100798004B16FE0EE3CF53F0FF0EE3CF54F0060ED8
:1007A8005324D96E000E5420DA6E4AC0DEFF4BC0C7
:1007B800DDFFFE0EE3CF4AF0FF0EE3CF4BF0080E4D
:1007C8004A24D96E000E4B20DA6EDE2A000EDD2296
:1007D800FE0EE3CF4AF0FF0EE3CF4BF00A0E4A2499
:1007E800D96E000E4B20DA6EDE50DE10D8B432D04F
:1007F8006E0EE66E000EE66EFC0EE3CF4AF0FD0EBE
:10080800E3CF4BF00A0E4A24D96E000E4B20DA6E65
:10081800DECF4AF0DDCF4BF04AC0E6FF4BC0E6FF23
:100828005DEC06F0F60E4924D96E000E4A20DA6E09
:10083800010EDF6EFE0EE3CF4AF0FF0EE3CF4BF062
:100848000A0E4A24D96E000E4B20DA6E000EDE6EB8
:10085800000EDD6EF28EE552E552E55212000600FA
:10086800E1CF03F0E2CF04F0D9CF05F0DACF06F0FC
:10087800F3CF07F0F4CF08F049C009F04AC00AF0F6
:100888004BC00BF051C00CF052C00DF053C00EF02D
:1008980054C00FF015EE64F0F2A47CD0F294FC0E74
:1008A800D66E000E116E010E106E5FD06E0EE66EE3
:1008B800000EE66E10C0E6FF11C0E6FF5DEC06F024
:1008C800080E4926000E4A22EE0E4924D96E000E63
:1008D8004A20DA6E030EDE18D8A445D06E0EE66EF6
:1008E800000EE66E10C0E6FF11C0E6FF5DEC06F0F4
:1008F800060E4926000E4A22EE0E4924D96E000E35
:100908004A20DA6EDE06000EDD5A6E0EE66E000E26
:10091800E66E10C0E6FF11C0E6FF5DEC06F0060EBD
:100928004926000E4A22EE0E4924D96E000E4A20AE
:10093800DA6EDE50DE10D8A416D06E0EE66E000E0B
:10094800E66E10C0E6FF11C0E6FF5DEC06F0080E8B
:100958004926000E4A22EE0E4924D96E000E4A207E
:10096800DA6E010EDF6E104A112A3950105C3A50C7
:100978001158D8A09BD75506D8A0560655505610E2
:10098800D8A408D0000E566E040E556E010EE66E01
:100998000AEC00F00FC054F00EC053F00DC052F036
:1009A8000CC051F00BC04BF00AC04AF009C049F026
:1009B80008C0F4FF07C0F3FF06C0DAFF05C0D9FF7F
:1009C80004C0E2FF03C0E1FF1100226E7E0E226424
:1009D80005D0000E1A6E000E1B6E1200140E236E48
:1009E800030E246E23C0D9FF24C0DAFFDF501F6E28
:1009F8001F507F0B1C6E1C041E6E1F50D8A405D000
:100A0800000E1A6E000E1B6E12001FBE43D022503D
:100A18001E5CD8B00AD023C012F024C013F0B6EC84
:100A280005F00009D8A4DED735D01E502218D8A466
:100A38000CD023C0D9FF24C0DAFFDF8E010E232497
:100A48001A6E000E24201B6E12002250810F23C044
:100A5800D9FF24C0DAFFDF6E010E2324206E000EBA
:100A68002420216E22501C6E1D6A010E1C26000EC9
:100A78001D221C5023261D502422225000081E240B
:100A880023C0D9FF24C0DAFFDF6E20C01AF021C0CE
:100A98001BF012001F507F0B1C6E1C50010DF350F1
:100AA8002326F45024229ED7E652FB0EE3CF49F0CA
:100AB800FC0EE3504910D8B44AD0FF0EE36A10D0B8
:100AC800FB0EE350D890E834496EFB0E49C0E3FFB3
:100AD800FC0EE350E834496EFC0E49C0E3FFFF0EFC
:100AE800E32AFC0EE3AEECD7FB0EE3CF4AF0FC0E94
:100AF800E3CF4BF0FD0EE3CF53F0FE0EE3CF54F0FF
:100B08004A50535C4B505458D8A012D0FD0EE350B5
:100B1800496EFB0EE350495EFD0E49C0E3FFFE0E31
:100B2800E350496EFC0EE350495AFE0E49C0E3FFFC
:100B3800D890FC0EE332FB0EE332FF0EE350496E11
:100B4800010E495EFF0E49C0E3FFD8A4CDD7FD0EC4
:100B5800E3CF49F0FE0EE3CF4AF0FB0EE126FF0E8D
:100B6800E222120012C0D9FF13C0DAFFDF50146E60
:100B78001450010DF3501224186EF4501320196EFE
:100B880012C0D9FF13C0DAFFDF50166E18C0D9FFA4
:100B980019C0DAFFDF50176E1750D8A402D0000E24
:100BA800120016BE02D017AE02D0000E1200165068
:100BB8007F0B7F0AD8A402D0000E1200165017240B
:100BC800156E7F0E15641AD012C0D9FF13C0DAFF54
:100BD8007F0EDF6E7F0E1226000E13221750010DB6
:100BE800F3501826F450192212500008182412C085
:100BF800D9FF13C0DAFFDF6E7F0E120012C0D9FFD3
:100C080013C0DAFF15C0DFFFDF501200FE0EE3CF7E
:100C18004AF0FF0EE3CF4BF0040E4A24D96E000EC3
:100C28004B20DA6E000EDE6E000EDD6EFE0EE3CF98
:100C38004AF0FF0EE3CF4BF0060E4A24D96E000EA1
:100C48004B20DA6E000EDE6E000EDD6EFE0EE3CF78
:100C58004AF0FF0EE3CF4BF0080E4A24D96E000E7F
:100C68004B20DA6E000EDE6E000EDD6EFE0EE3CF58
:100C78004AF0FF0EE3CF4BF00A0E4A24D96E000E5D
:100C88004B20DA6E000EDE6E000EDD6EFE0EE3CF38
:100C98004AF0FF0EE3CF4BF00C0E4A24D96E000E3B
:100CA8004B20DA6E000EDE6E000EDD6EE552E55268
:100CB8001200E652E652FA0EE3CF54F0FC0EE3506F
:100CC8005402FE0EF3CFE3FFFF0EF4CFE3FFFB0E5B
:100CD800E124D96EFF0EE220DA6EDF50546EFC0E6E
:100CE800E3505402F3CFF4FFF36AE150FE0FD96EDC
:100CF800E250DA6EFF0EDA22F350DE26F450DD22DF
:100D0800FA0EE3CF54F0FD0EE124D96EFF0EE22077
:100D1800DA6EDF505402F3CFF4FFF36AE150FE0FAE
:100D2800D96EE250DA6EFF0EDA22F350DE26F45066
:100D3800DD22FE0EE3CF49F0FF0EE3CF4AF0FA0EB4
:100D4800E126FF0EE2221200E652E65237C04AF0D0
:100D580038C04BF0FE0E4AC0E3FFFF0E4BC0E3FF66
:100D680039C0E6FF3AC0E6FFFC0EE350010F4A6EB9
:100D7800FD0EE3CF4BF0000E4B224AC0E6FF4BC0FE
:100D8800E6FF58EC05F0FE0E49C0E3FFFF0E4AC02F
:100D9800E3FF6E0EE66E000EE66EFC0EE3CFE6FF96
:100DA800E3CFE6FF5DEC06F0F60E4924D96E000E9F
:100DB8004A20DA6EDE04D8A4D3D7FE0EE3CF49F07A
:100DC800FF0EE3CF4AF0E552E5521200FCEC07F0C3
:100DD800000E136E020E126E000E156E030E146EC8
:100DE8003C0E166E0F0E176E20EC07F0000E136EF9
:100DF800030E126E000E156E030E146EC00E166EE4
:100E08000F0E176E20EC07F0000E136E040E126E14
:100E1800000E156E030E146E2E0E166E100E176E43
:100E280020EC07F03FEC08F0640EE9EC04F01AC07F
:100E380025F01BC026F0FFD712C080F013C081F048
:100E480014C082F015C083F016C084F017C085F076
:100E5800000E0001EA6F000EE96F010E886F6E0E3A
:100E6800E66E000EE66E39C0E6FF3AC0E6FF5DECBE
:100E780006F0EE0E4924E96E000E4A20EA6E20EED6
:100E880080F06D0EDBCFEBFFE806FCE2394A3A2A28
:100E98001200140E146E030E156E010E136E1268F6
:100EA800135004E1800E125CD8A011D014C0D9FFF1
:100EB80015C0DAFF7F0EDF6E7F0E1426000E152296
:100EC800810E1224126EFF0E1320136EE9D714C080
:100ED800D9FF15C0DAFF12C0DFFF12501424D96EF3
:100EE80013501520DA6E000EDF6E1200F29E6E0EA1
:100EF800E66E000EE66E37C0E6FF38C0E6FF5DEC32
:100F080006F0F40E4924E96E000E4A20EA6EE1501C
:100F1800FE0FD96EE250DA6EFF0EDA22DECFEEFF58
:100F2800DDCFEDFF030EE66E0AEC00F0F28EE5521F
:100F3800E5521200959083903B0EE66E000EE66E29
:100F48000AEC06F0610EE66E3B0EE66E000EE66EEB
:100F580070EC03F083A002D0010E01D0000EFF0A4E
:100F6800546E83505418FE0B5418836E640EE66E4C
:100F7800000EE66E7AEC07F0E5D7820EF66E100EDC
:100F8800F76E000EF86E0900F5CF55F00900F5CFA1
:100F980056F000EEEEF024EE26F0EE6ADD50D95061
:100FA800FCE1DA50FAE100EE27F0220EEE6AE806DC
:100FB800FDE10001EAEF06F0959283923B0EE66EA2
:100FC800000EE66EAAEC02F083A202D0010E01D058
:100FD800000EFF0A546E544683505418FD0B5418E3
:100FE800836E640EE66E000EE66E7AEC07F0E6D7C6
:100FF800D59AD596D580D582D584F28CF28AFC0E06
:10100800D66E000E136E010E126E000E156E050ED2
:10101800146E5E0E166E100E176E20EC07F04DEC77
:1010280007F0F28E12009596839683A602D0010EE1
:1010380001D0000EFF0A546E54465446544683505D
:101048005418F70B5418836E640EE66E000EE66EA5
:101058007AEC07F0EAD7959883A802D0010E01D060
:10106800000EFF0A546E543A83505418EF0B54186C
:0C107800836E00F0F1D7D58E120004004A
:020000040020DA
:08000000FFFFFFFFFFFFFFFF00
:020000040030CA
:0E000000FF071F1FFF8385FF0FC00FE00F409B
:00000001FF
