:0400000006EF00F017
:0C000800A2ED05F013EEAAF082EF0DF05F
:10060000001F0000F29E110EE66E000EE66E17C08F
:10061000E6FF18C0E6FF7FEC0BF0080E6124D96EF0
:10062000010E6220DA6EFF0EE3CFDFFF110EE66EE1
:10063000000EE66E17C0E6FF18C0E6FF7FEC0BF079
:100640000E0E6124D96E010E6220DA6EE0CFDFFF5C
:10065000110EE66E000EE66E17C0E6FF18C0E6FF4C
:100660007FEC0BF00F0E6124D96E010E6220DA6E62
:10067000D8CFDFFF110EE66E000EE66E17C0E6FF64
:1006800018C0E6FF7FEC0BF0100E6124D96E010E4E
:100690006220DA6EE8CFDFFF110EE66E000EE66E26
:1006A00017C0E6FF18C0E6FF7FEC0BF00C0E6124CC
:1006B000D96E010E6220DA6E000EDE6E000EDD6E67
:1006C000030EE66E000EE66E110EE66E000EE66E8E
:1006D00017C0E6FF18C0E6FF7FEC0BF00C0E61249C
:1006E000D96E010E6220DA6EDECF62F0DDCF63F0EC
:1006F00062C0E6FF63C0E6FF7FEC0BF061C069F00B
:1007000062C06AF0110EE66E000EE66E17C0E6FFDC
:1007100018C0E6FF7FEC0BF0000E6B6E010E6C6EE6
:10072000090E6B26000E6C2261506B2662506C2203
:1007300069506B24D96E6A506C20DA6EFFCFDFFFF0
:10074000030EE66E000EE66E110EE66E000EE66E0D
:1007500017C0E6FF18C0E6FF7FEC0BF00C0E61241B
:10076000D96E010E6220DA6EDECF62F0DDCF63F06B
:1007700062C0E6FF63C0E6FF7FEC0BF061C069F08A
:1007800062C06AF0110EE66E000EE66E17C0E6FF5C
:1007900018C0E6FF7FEC0BF0000E6B6E010E6C6E66
:1007A0000A0E6B26000E6C2261506B2662506C2282
:1007B00069506B24D96E6A506C20DA6EFDCFDFFF72
:1007C000030EE66E000EE66E110EE66E000EE66E8D
:1007D00017C0E6FF18C0E6FF7FEC0BF00C0E61249B
:1007E000D96E010E6220DA6EDECF62F0DDCF63F0EB
:1007F00062C0E6FF63C0E6FF7FEC0BF061C069F00A
:1008000062C06AF0110EE66E000EE66E17C0E6FFDB
:1008100018C0E6FF7FEC0BF0000E6B6E010E6C6EE5
:100820000B0E6B26000E6C2261506B2662506C2200
:1008300069506B24D96E6A506C20DA6EFECFDFFFF0
:10084000110EE66E000EE66E17C0E6FF18C0E6FF5A
:100850007FEC0BF00C0E6124D96E010E6220DA6E73
:10086000DE2A000EDD220600FC50D8A429D744EC75
:1008700009F061C017F062C018F0FC6A110EE66E54
:10088000000EE66E17C0E6FF18C0E6FF7FEC0BF027
:100890000C0E6124D96E010E6220DA6EDE50DE107D
:1008A000D8A41BD00500110EE66E000EE66E17C030
:1008B000E6FF18C0E6FF7FEC0BF0040E6124D96E52
:1008C000010E6220DA6EDECF62F0DDCF63F062C02F
:1008D000FDFF63C0FEFFFF6A1FD1110EE66E000E22
:1008E000E66E17C0E6FF18C0E6FF7FEC0BF00E0EB9
:1008F0006124D96E010E6220DA6EDF50E06E110EB7
:10090000E66E000EE66E17C0E6FF18C0E6FF7FEC4D
:100910000BF00F0E6124D96E010E6220DA6EDF50EB
:10092000D86E110EE66E000EE66E17C0E6FF18C018
:10093000E6FF7FEC0BF0100E6124D96E010E6220F1
:10094000DA6EDF506C6E6C500500110EE66E000E14
:10095000E66E17C0E6FF18C0E6FF7FEC0BF00C0E4A
:100960006124D96E010E6220DA6EDE06000EDD5AB9
:10097000030EE66E000EE66E110EE66E000EE66EDB
:1009800017C0E6FF18C0E6FF7FEC0BF00C0E6124E9
:10099000D96E010E6220DA6EDECF62F0DDCF63F039
:1009A00062C0E6FF63C0E6FF7FEC0BF061C069F058
:1009B00062C06AF0110EE66E000EE66E17C0E6FF2A
:1009C00018C0E6FF7FEC0BF0000E6B6E010E6C6E34
:1009D000090E6B26000E6C2261506B2662506C2251
:1009E00069506B24D96E6A506C20DA6EDF50FF6E4E
:1009F000030EE66E000EE66E110EE66E000EE66E5B
:100A000017C0E6FF18C0E6FF7FEC0BF00C0E612468
:100A1000D96E010E6220DA6EDECF62F0DDCF63F0B8
:100A200062C0E6FF63C0E6FF7FEC0BF061C069F0D7
:100A300062C06AF0110EE66E000EE66E17C0E6FFA9
:100A400018C0E6FF7FEC0BF0000E6B6E010E6C6EB3
:100A50000A0E6B26000E6C2261506B2662506C22CF
:100A600069506B24D96E6A506C20DA6EDF50FD6ECF
:100A7000030EE66E000EE66E110EE66E000EE66EDA
:100A800017C0E6FF18C0E6FF7FEC0BF00C0E6124E8
:100A9000D96E010E6220DA6EDECF62F0DDCF63F038
:100AA00062C0E6FF63C0E6FF7FEC0BF061C069F057
:100AB00062C06AF0110EE66E000EE66E17C0E6FF29
:100AC00018C0E6FF7FEC0BF0000E6B6E010E6C6E33
:100AD0000B0E6B26000E6C2261506B2662506C224E
:100AE00069506B24D96E6A506C20DA6EDF50FE6E4E
:100AF000110EE66E000EE66E17C0E6FF18C0E6FFA8
:100B00007FEC0BF00C0E6124D96E010E6220DA6EC0
:100B1000DE50DE10D8A418D7110EE66E000EE66E79
:100B200017C0E6FF18C0E6FF7FEC0BF0080E61244B
:100B3000D96E010E6220DA6E020EDF6EF28EF28E38
:100B4000E55212000600E1CF39F0E2CF3AF0D9CFFA
:100B50003BF0DACF3CF0F3CF3DF0F4CF3EF061C094
:100B60003FF062C040F063C041F069C042F06AC02B
:100B700043F06BC044F06CC045F014EE72F0F2A488
:100B80007CD0F294FC0ED66E000E476E010E466EBF
:100B90005FD0110EE66E000EE66E46C0E6FF47C05F
:100BA000E6FF7FEC0BF0080E6126000E6222000EBD
:100BB0006124D96E010E6220DA6E030EDE18D8A40D
:100BC00045D0110EE66E000EE66E46C0E6FF47C049
:100BD000E6FF7FEC0BF0060E6126000E6222000E8F
:100BE0006124D96E010E6220DA6EDE06000EDD5A37
:100BF000110EE66E000EE66E46C0E6FF47C0E6FF49
:100C00007FEC0BF0060E6126000E6222000E6124BE
:100C1000D96E010E6220DA6EDE50DE10D8A416D036
:100C2000110EE66E000EE66E46C0E6FF47C0E6FF18
:100C30007FEC0BF0080E6126000E6222000E61248C
:100C4000D96E010E6220DA6E010EDF6E464A472A27
:100C50001950465C1A504758D8A09BD76D06D8A0AB
:100C60006E066D506E10D8A408D0000E6E6E040E85
:100C70006D6E010EE66E02EC03F045C06CF044C0F0
:100C80006BF043C06AF042C069F041C063F040C0FD
:100C900062F03FC061F03EC0F4FF3DC0F3FF3CC0D6
:100CA000DAFF3BC0D9FF3AC0E2FF39C0E1FF1100D3
:100CB000E652E652F29EFC0EE3CFD9FFFD0EE3CFE3
:100CC000DAFFDE2A000EDD22FC0EE3CFD9FFFD0E97
:100CD000E3CFDAFF010EDBBE06D0010EDB5002E1EE
:100CE000DE04D8B089D0FC0EE3CF62F0FD0EE3CF76
:100CF00063F0060E6224D96E000E6320DA6EDECF3A
:100D00006BF0DDCF6CF0D8906B34626E6C34636E38
:100D1000FC0EE3CF6BF0FD0EE3CF6CF0020E6B2404
:100D2000D96E000E6C20DA6EDECF6BF0DDCF6CF08A
:100D300062506B24D96E63506C20DA6EDECF62F0A5
:100D4000DDCF63F0FE0E62C0E3FFFF0E63C0E3FF82
:100D50000A0EE66E000EE66EFA0EE3CF62F0FB0EB0
:100D6000E3CF63F0060E6224D96E000E6320DA6EC4
:100D7000DECF62F0DDCF63F0010E6226000E63224B
:100D800062C0E6FF63C0E6FF24EC0AF0FC0EE3CF8E
:100D90006BF0FD0EE3CF6CF0060E6B24D96E000EE7
:100DA0006C20DA6E61C0DEFF62C0DDFFFC0EE3CFB7
:100DB00062F0FD0EE3CF63F0040E6224D96E000EE4
:100DC0006320DA6EDE06000EDD5A110EE66E000EAE
:100DD000E66EFC0EE3CFE6FFE3CFE6FF7FEC0BF021
:100DE000080E6124D96E010E6220DA6E010EDF6EEC
:100DF000010EE66E02EC03F0F28EE552E552E5528A
:100E0000E5521200F29EFE0EE3CF62F0FF0EE3CF3A
:100E100063F0080E6224D96E000E6320DA6EFE0EB7
:100E2000E3CF62F0FF0EE3CF63F00A0E6224E96EB7
:100E3000000E6320EA6EDE50EE1809E1DE50EE1877
:100E4000D8A405D0050EE66E02EC03F078D0FE0EB5
:100E5000E3CF62F0FF0EE3CF63F0040E6224D96E9D
:100E6000000E6320DA6EDECF62F0DDCF63F0FE0E9F
:100E7000E3CF6BF0FF0EE3CF6CF0020E6B24D96E64
:100E8000000E6C20DA6EDECF6BF0DDCF6CF06250BE
:100E90006B24D96E63506C20DA6EFD0EE3CFDFFF5A
:100EA000FE0EE3CF62F0FF0EE3CF63F0080E622484
:100EB000D96E000E6320DA6EDECF62F0DDCF63F014
:100EC00062C0E6FF63C0E6FFFC0EE3CF62F0FD0EFA
:100ED000E3CF63F0040E6224D96E000E6320DA6E55
:100EE000DECF62F0DDCF63F0010E6226000E6322DA
:100EF00062C0E6FF63C0E6FF24EC0AF0FE0EE3CF1B
:100F00006BF0FF0EE3CF6CF0040E6B24D96E000E75
:100F10006C20DA6E61C0DEFF62C0DDFFFE0EE3CF43
:100F200062F0FF0EE3CF63F00A0E6224D96E000E6A
:100F30006320DA6EDE2A000EDD2232EC0BF0F28E38
:100F4000E552E552E5521200F29EFE0EE3CF62F04A
:100F5000FF0EE3CF63F00A0E6224D96E000E632009
:100F6000DA6EDE50DE10D8A405D0050EE66E02EC77
:100F700003F07DD0FE0EE3CF62F0FF0EE3CF63F00F
:100F8000060E6224D96E000E6320DA6EDECF62F0A8
:100F9000DDCF63F0FE0EE3CF6BF0FF0EE3CF6CF01E
:100FA000020E6B24D96E000E6C20DA6EDECF6BF071
:100FB000DDCF6CF062506B24D96E63506C20DA6E1A
:100FC000FC0EE3CFE9FFFD0EE3CFEAFFDFCFEFFF3B
:100FD000FE0EE3CF62F0FF0EE3CF63F0080E622453
:100FE000D96E000E6320DA6EDECF62F0DDCF63F0E3
:100FF00062C0E6FF63C0E6FFFC0EE3CF62F0FD0EC9
:10100000E3CF63F0060E6224D96E000E6320DA6E21
:10101000DECF62F0DDCF63F0010E6226000E6322A8
:1010200062C0E6FF63C0E6FF24EC0AF0FE0EE3CFE9
:101030006BF0FF0EE3CF6CF0060E6B24D96E000E42
:101040006C20DA6E61C0DEFF62C0DDFFFE0EE3CF12
:1010500062F0FF0EE3CF63F00A0E6224D96E000E39
:101060006320DA6EDE06000EDD5A32EC0BF0F28EF3
:10107000E552E552E552E5521200E652E652F29E82
:10108000FC0EE3CFD9FFFD0EE3CFDAFFDE06000E44
:10109000DD5AFC0EE3CFD9FFFD0EE3CFDAFF010EE0
:1010A000DBAE6CD00A0EE66E000EE66EFA0EE3CFF3
:1010B00062F0FB0EE3CF63F0060E6224D96E000EE1
:1010C0006320DA6EDECF62F0DDCF63F0FA0EE3CF9D
:1010D0006BF0FB0EE3CF6CF0040E6B24D96E000EA8
:1010E0006C20DA6EDECF6BF0DDCF6CF062506B26D9
:1010F00063506C226BC0E6FF6CC0E6FF24EC0AF084
:10110000FE0E61C0E3FFFF0E62C0E3FFFE0EE3CF01
:101110006BF0FF0EE3CF6CF0D8906B34626E6C34E2
:10112000636EFC0EE3CF6BF0FD0EE3CF6CF0020EAE
:101130006B24D96E000E6C20DA6EDECF6BF0DDCF43
:101140006CF062506B24D96E63506C20DA6E17C05D
:10115000DEFF18C0DDFFFC0EE3CF62F0FD0EE3CF33
:1011600063F0040E6224D96E000E6320DA6EDE2A6C
:10117000000EDD22040EE66E02EC03F0F28EE55264
:10118000E552E552E5521200CFEC0DF0D1EC0CF037
:101190009390F7EC0DF02F0E5B6E000E5C6E000E60
:1011A0005E6E010E5D6EFEEC0CF0270E5B6E000EA7
:1011B0005C6E000E5E6E010E5D6EFEEC0CF01B0EA2
:1011C0005B6E000E5C6E000E5E6E050E5D6E000EB8
:1011D000606E010E5F6E56EC0CF0000E496E010E53
:1011E000486E000E4B6E030E4A6EDA0E4C6E1B0EEE
:1011F0004D6E2AEC0DF0000E496E020E486E000E88
:101200004B6E030E4A6E940E4C6E170E4D6E2AEC0A
:101210000DF0000E496E030E486E000E4B6E030E6D
:101220004A6E260E4C6E180E4D6E2AEC0DF0000E16
:10123000496E040E486E000E4B6E030E4A6E280E69
:101240004C6E190E4D6E2AEC0DF0000E496E050E17
:10125000486E000E4B6E030E4A6EBC0E4C6E1B0E9B
:101260004D6E2AEC0DF0000E496E060E486E000E13
:101270004B6E030E4A6EAC0E4C6E1A0E4D6E2AEC7F
:101280000DF0FAEC0DF0FFD7060EE126000EE2227B
:1012900017C062F018C063F0FC0E62C0E3FFFD0EE1
:1012A00063C0E3FF82EC0AF0FE0E61C0E3FFFF0EB5
:1012B00062C0E3FF8AA002D0010E01D0000EFF0A37
:1012C0006C6E81506C18FE0B6C18816EFC0EE35036
:1012D000010F616EFC0E61C0E3FF616AFD0EE35019
:1012E0006120616EFD0E61C0E3FF19C0E6FF1AC008
:1012F000E6FFFA0EE3CFE6FFE3CFE6FF24EC0AF0C9
:10130000FA0E61C0E3FFFB0E62C0E3FF110EE66E52
:10131000000EE66EF80EE3CFE6FFE3CFE6FF7FECCC
:101320000BF0080E6124D96E010E6220DA6EDE0425
:10133000D8A4CCD7FE0EE3CF61F0FF0EE3506110CE
:10134000D8B408D0FA0EE3CF61F0FB0EE350611081
:10135000D8B4BCD7FA0EE3CF61F0FB0EE3CF62F056
:10136000FA0EE126FF0EE2221200586E7E0E58643D
:1013700005D0000E506E000E516E1200AA0E596E6E
:10138000010E5A6E59C0D9FF5AC0DAFFDF50556EB0
:1013900055507F0B526E5204546E5550D8A405D050
:1013A000000E506E000E516E120055BE43D05850C4
:1013B000545CD8B00AD059C048F05AC049F0DEECAD
:1013C0000AF00009D8A4DED735D054505818D8A454
:1013D0000CD059C0D9FF5AC0DAFFDF8E010E592454
:1013E000506E000E5A20516E12005850810F59C095
:1013F000D9FF5AC0DAFFDF6E010E5924566E000E77
:101400005A20576E5850526E536A010E5226000EE3
:1014100053225250592653505A22585000085424EF
:1014200059C0D9FF5AC0DAFFDF6E56C050F057C01E
:1014300051F0120055507F0B526E5250010DF35077
:101440005926F4505A229ED7E652FB0EE3CF61F0A4
:10145000FC0EE3506110D8B44AD0FF0EE36A10D0FE
:10146000FB0EE350D890E834616EFB0E61C0E3FFE1
:10147000FC0EE350E834616EFC0E61C0E3FFFF0E2A
:10148000E32AFC0EE3AEECD7FB0EE3CF62F0FC0EDA
:10149000E3CF63F0FD0EE3CF6BF0FE0EE3CF6CF015
:1014A00062506B5C63506C58D8A012D0FD0EE350B4
:1014B000616EFB0EE350615EFD0E61C0E3FFFE0E48
:1014C000E350616EFC0EE350615AFE0E61C0E3FF13
:1014D000D890FC0EE332FB0EE332FF0EE350616E58
:1014E000010E615EFF0E61C0E3FFD8A4CDD7FD0EF3
:1014F000E3CF61F0FE0EE3CF62F0FB0EE126FF0EBC
:10150000E2221200E652E652E652E652FE0EE36A8C
:10151000FF0EE36A010E626E000E636EFC0E62C087
:10152000E3FFFD0E63C0E3FF110EE66E000EE66EF4
:10153000FA0EE3CFE6FFE3CFE6FF7FEC0BF0080EF9
:101540006124D96E010E6220DA6EDE04D8A40FD0B9
:10155000FE0EE350010F616EFE0E61C0E3FF616A93
:10156000FF0EE3506120616EFF0E61C0E3FFFC0ED1
:10157000E350010F616EFC0E61C0E3FF616AFD0E76
:10158000E3506120616EFD0E61C0E3FFFD0EE3BE1E
:10159000CBD7FD0EE35007E1FC0EE3CF61F00A0E5E
:1015A000615ED8A0C1D7FE0EE3CF61F0FF0EE3CF9E
:1015B00062F0E552E552E552E552120048C0D9FF0B
:1015C00049C0DAFFDF504A6E4A50010DF3504824FB
:1015D0004E6EF45049204F6E48C0D9FF49C0DAFF23
:1015E000DF504C6E4EC0D9FF4FC0DAFFDF504D6E5A
:1015F0004D50D8A402D0000E12004CBE02D04DAE09
:1016000002D0000E12004C507F0B7F0AD8A402D0EB
:10161000000E12004C504D244B6E7F0E4B641AD0BE
:1016200048C0D9FF49C0DAFF7F0EDF6E7F0E482623
:10163000000E49224D50010DF3504E26F4504F221A
:10164000485000084E2448C0D9FF49C0DAFFDF6E79
:101650007F0E120048C0D9FF49C0DAFF4BC0DFFF40
:10166000DF501200E652E652FE0EE36AFF0EE36A16
:1016700037D0110EE66E000EE66EFC0EE3CFE6FFED
:10168000E3CFE6FF7FEC0BF0080E6124D96E010E6C
:101690006220DA6E050EDE18D8A413D0110EE66EA5
:1016A000000EE66EFC0EE3CFE6FFE3CFE6FF7FEC35
:1016B0000BF0080E6124D96E010E6220DA6E010E65
:1016C000DF6EFE0EE350010F616EFE0E61C0E3FFA0
:1016D000616AFF0EE3506120616EFF0E61C0E3FF9F
:1016E000FE0EE3CF61F01950615CFF0EE3CF61F0B5
:1016F0001A506158D8A0BDD7E552E5521200E65203
:10170000E652FA0EE3CF6CF0FC0EE3506C02FE0ED4
:10171000F3CFE3FFFF0EF4CFE3FFFB0EE124D96E1E
:10172000FF0EE220DA6EDF506C6EFC0EE3506C02AE
:10173000F3CFF4FFF36AE150FE0FD96EE250DA6E98
:10174000FF0EDA22F350DE26F450DD22FA0EE3CF4C
:101750006CF0FD0EE124D96EFF0EE220DA6EDF5050
:101760006C02F3CFF4FFF36AE150FE0FD96EE25042
:10177000DA6EFF0EDA22F350DE26F450DD22FE0E82
:10178000E3CF61F0FF0EE3CF62F0FA0EE126FF0E29
:10179000E22212008396839C839883908386880E2E
:1017A000E66E130EE66EABEC0DF02F0EE66E000E3D
:1017B000E66E3DEC08F08396838C880EE66E130E81
:1017C000E66EABEC0DF0839C2F0EE66E000EE66E1F
:1017D00058EC06F02C0EE66E010EE66EABEC0DF04A
:1017E0008380880EE66E130EE66EABEC0DF02F0EC6
:1017F000E66E000EE66E3DEC08F083908388880E5E
:10180000E66E130EE66EABEC0DF083982F0EE66ECF
:10181000000EE66E58EC06F0900EE66E010EE66ED7
:10182000ABEC0DF0BBD7839A839C83988392838A19
:10183000700EE66E170EE66EABEC0DF02F0EE66E38
:10184000000EE66E3DEC08F0839A838C700EE66E17
:10185000170EE66EABEC0DF0839C2F0EE66E000EBD
:10186000E66E58EC06F02C0EE66E010EE66EABEC62
:101870000DF08382700EE66E170EE66EABEC0DF087
:101880002F0EE66E000EE66E3DEC08F08392838824
:10189000700EE66E170EE66EABEC0DF083982F0E11
:1018A000E66E000EE66E58EC06F0C1D75BC0D9FFBD
:1018B0005CC0DAFF5DC0DEFF5EC0DDFF20EE06F03B
:1018C0005B50D9265C50DA22000EDE6E000EDD6E13
:1018D00020EE04F05B50D9265C50DA22000EDE6E5A
:1018E000000EDD6E20EE08F05B50D9265C50DA2247
:1018F0005FC0DEFF60C0DDFF5F50B5EC09F020EE99
:1019000002F05B50D9265C50DA2250C0DEFF51C095
:10191000DDFF20EE0AF05B50D9265C50DA22000E83
:10192000DE6E000EDD6E1200839E839C839883948E
:10193000838E700EE66E170EE66EABEC0DF02F0E7A
:10194000E66E000EE66E3DEC08F0839E838C700E12
:10195000E66E170EE66EABEC0DF0839C2F0EE66E76
:10196000000EE66E58EC06F08384700EE66E170EDD
:10197000E66EABEC0DF02F0EE66E000EE66E3DEC63
:1019800008F083948388700EE66E170EE66EABEC5B
:101990000DF083982F0EE66E000EE66E58EC06F002
:1019A000C7D7AA0E4A6E010E4B6E010E496E4868EB
:1019B000495004E1800E485CD8A011D04AC0D9FF3C
:1019C0004BC0DAFF7F0EDF6E7F0E4A26000E4B22E1
:1019D000810E4824486EFF0E4920496EE9D74AC05F
:1019E000D9FF4BC0DAFF48C0DFFF48504A24D96E08
:1019F00049504B20DA6E000EDF6E1200F29E5BC083
:101A0000D9FF5CC0DAFF5DC0DEFF5EC0DDFF140EF3
:101A1000B5EC09F020EE02F05B50D9265C50DA22DA
:101A200050C0DEFF51C0DDFF20EE06F05B50D9262E
:101A30005C50DA22000EDE6E000EDD6E20EE04F049
:101A40005B50D9265C50DA22000EDE6E000EDD6E91
:101A5000F28E120048C04EF049C04FF04AC050F01C
:101A60004BC051F04CC052F04DC053F0000E5B6EB5
:101A7000000E5A6E010E566E110EE66E000EE66EE8
:101A800019C0E6FF1AC0E6FF7FEC0BF0000E6124E0
:101A9000E96E010E6220EA6E20EE4EF0100EDBCFF2
:101AA000EBFFE806FCE2194A1A2A1200E652949A61
:101AB000829A8B9AFF0EE124E66EFF0EE220E66E1C
:101AC0001B0EE66E000EE66EA4EC07F0FF0EE3CFF1
:101AD00061F0740E6118D8A4EDD78BAA02D0010E64
:101AE00001D0000EFF0A6C6E6C3A6C4682506C1886
:101AF000DF0B6C18826EE80EE66E030EE66EABEC42
:101B00000DF0D8D7F80EF66E1B0EF76E000EF86EBD
:101B10000900F5CF6DF00900F5CF6EF001EEAAF0E7
:101B200022EE00F0EE6ADD50D950FCE1DA50FAE125
:101B300001EE00F0AA0EEE6AE806FDE100EE01F00B
:101B4000360EEE6AE806FDE1000EF86E060EF76E40
:101B50000001C4EF08F0F29E110EE66E000EE66E74
:101B600017C0E6FF18C0E6FF7FEC0BF0060E6124FD
:101B7000E96E010E6220EA6EE150FE0FD96EE2506E
:101B8000DA6EFF0EDA22DECFEEFFDDCFEDFF030EC1
:101B9000E66E02EC03F0F28EE552E5521200D59AA1
:101BA000D596D580D582D584F28CF28AFC0ED66E7D
:101BB000D58E9390D1EC0CF0F28E1200740EE66E7E
:101BC0001B0EE66E000EE66E02EC07F0E80EE66E07
:101BD000030EE66EABEC0DF0F1D7939A819A818AF1
:101BE000E80EE66E030EE66EABEC0DF0F7D7000ED6
:0A1BF000956E1200D58E120004005D
:020000040020DA
:08000000FFFFFFFFFFFFFFFF00
:020000040030CA
:0E000000FF071F1FFF8385FF0FC00FE00F409B
:00000001FF
