:0400000006EF00F017
:10000800DBED05F015EE14F0CDEF0AF0F29E6E0E62
:10001800E66E000EE66E01C0E6FF02C0E6FF3DECAC
:1000280009F0F60E6024D96E000E6120DA6EFF0E1C
:10003800E3CFDFFF6E0EE66E000EE66E01C0E6FF50
:1000480002C0E6FF3DEC09F0590E6024D96E010E9E
:100058006120DA6EE0CFDFFF6E0EE66E000EE66E10
:1000680001C0E6FF02C0E6FF3DEC09F05A0E60242D
:10007800D96E010E6120DA6ED8CFDFFF6E0EE66E04
:10008800000EE66E01C0E6FF02C0E6FF3DEC09F097
:100098005B0E6024D96E010E6120DA6EE8CFDFFFB7
:1000A8006E0EE66E000EE66E01C0E6FF02C0E6FFC9
:1000B8003DEC09F0570E6024D96E010E6120DA6E0E
:1000C800000EDE6E000EDD6E030EE66E000EE66EAE
:1000D8006E0EE66E000EE66E01C0E6FF02C0E6FF99
:1000E8003DEC09F0570E6024D96E010E6120DA6EDE
:1000F800DECF61F0DDCF62F061C0E6FF62C0E6FFEF
:100108003DEC09F060C068F061C069F06E0EE66E03
:10011800000EE66E01C0E6FF02C0E6FF3DEC09F006
:10012800EE0E6A6E000E6B6E090E6A26000E6B22CA
:1001380060506A2661506B2268506A24D96E6950F3
:100148006B20DA6EFFCFDFFF030EE66E000EE66E61
:100158006E0EE66E000EE66E01C0E6FF02C0E6FF18
:100168003DEC09F0570E6024D96E010E6120DA6E5D
:10017800DECF61F0DDCF62F061C0E6FF62C0E6FF6E
:100188003DEC09F060C068F061C069F06E0EE66E83
:10019800000EE66E01C0E6FF02C0E6FF3DEC09F086
:1001A800EE0E6A6E000E6B6E0A0E6A26000E6B2249
:1001B80060506A2661506B2268506A24D96E695073
:1001C8006B20DA6EFDCFDFFF030EE66E000EE66EE3
:1001D8006E0EE66E000EE66E01C0E6FF02C0E6FF98
:1001E8003DEC09F0570E6024D96E010E6120DA6EDD
:1001F800DECF61F0DDCF62F061C0E6FF62C0E6FFEE
:100208003DEC09F060C068F061C069F06E0EE66E02
:10021800000EE66E01C0E6FF02C0E6FF3DEC09F005
:10022800EE0E6A6E000E6B6E0B0E6A26000E6B22C7
:1002380060506A2661506B2268506A24D96E6950F2
:100248006B20DA6EFECFDFFF6E0EE66E000EE66EF6
:1002580001C0E6FF02C0E6FF3DEC09F0570E60243E
:10026800D96E010E6120DA6EDE2A000EDD2206004C
:10027800FC50D8A429D7CBEC09F060C001F061C0CC
:1002880002F0FC6A6E0EE66E000EE66E01C0E6FF36
:1002980002C0E6FF3DEC09F0570E6024D96E010E4E
:1002A8006120DA6EDE50DE10D8A41BD005006E0E79
:1002B800E66E000EE66E01C0E6FF02C0E6FF3DEC0A
:1002C80009F0F20E6024D96E000E6120DA6EDECFDE
:1002D80061F0DDCF62F061C0FDFF62C0FEFFFF6A22
:1002E8001FD16E0EE66E000EE66E01C0E6FF02C07C
:1002F800E6FF3DEC09F0590E6024D96E010E61202D
:10030800DA6EDF50E06E6E0EE66E000EE66E01C02D
:10031800E6FF02C0E6FF3DEC09F05A0E6024D96EF4
:10032800010E6120DA6EDF50D86E6E0EE66E000E9A
:10033800E66E01C0E6FF02C0E6FF3DEC09F05B0E89
:100348006024D96E010E6120DA6EDF506B6E6B503F
:1003580005006E0EE66E000EE66E01C0E6FF02C0F6
:10036800E6FF3DEC09F0570E6024D96E010E6120BE
:10037800DA6EDE06000EDD5A030EE66E000EE66E3D
:100388006E0EE66E000EE66E01C0E6FF02C0E6FFE6
:100398003DEC09F0570E6024D96E010E6120DA6E2B
:1003A800DECF61F0DDCF62F061C0E6FF62C0E6FF3C
:1003B8003DEC09F060C068F061C069F06E0EE66E51
:1003C800000EE66E01C0E6FF02C0E6FF3DEC09F054
:1003D800EE0E6A6E000E6B6E090E6A26000E6B2218
:1003E80060506A2661506B2268506A24D96E695041
:1003F8006B20DA6EDF50FF6E030EE66E000EE66EBF
:100408006E0EE66E000EE66E01C0E6FF02C0E6FF65
:100418003DEC09F0570E6024D96E010E6120DA6EAA
:10042800DECF61F0DDCF62F061C0E6FF62C0E6FFBB
:100438003DEC09F060C068F061C069F06E0EE66ED0
:10044800000EE66E01C0E6FF02C0E6FF3DEC09F0D3
:10045800EE0E6A6E000E6B6E0A0E6A26000E6B2296
:1004680060506A2661506B2268506A24D96E6950C0
:100478006B20DA6EDF50FD6E030EE66E000EE66E40
:100488006E0EE66E000EE66E01C0E6FF02C0E6FFE5
:100498003DEC09F0570E6024D96E010E6120DA6E2A
:1004A800DECF61F0DDCF62F061C0E6FF62C0E6FF3B
:1004B8003DEC09F060C068F061C069F06E0EE66E50
:1004C800000EE66E01C0E6FF02C0E6FF3DEC09F053
:1004D800EE0E6A6E000E6B6E0B0E6A26000E6B2215
:1004E80060506A2661506B2268506A24D96E695040
:1004F8006B20DA6EDF50FE6E6E0EE66E000EE66E54
:1005080001C0E6FF02C0E6FF3DEC09F0570E60248B
:10051800D96E010E6120DA6EDE50DE10D8A418D72D
:100528006E0EE66E000EE66E01C0E6FF02C0E6FF44
:100538003DEC09F0F60E6024D96E000E6120DA6EEB
:10054800020EDF6EF28EF28EE55212000D0EE126DB
:10055800000EE2222D0EE66E000EE66E52EC04F05E
:10056800FF0E60C0E3FFFF0EE3CF60F06C0E601873
:10057800D8A45DD0959283920D0EE66E000EE66EBD
:10058800D0EC07F041C061F042C062F0FD0E61C0DE
:10059800E3FFFE0E62C0E3FF20EE43F0DECF61F022
:1005A800DDCF62F0FB0E61C0E3FFFC0E62C0E3FF2B
:1005B80020EE45F0DECF61F0DDCF62F0F90E61C0CC
:1005C800E3FFFA0E62C0E3FF83A202D0010E01D05E
:1005D800000EFF0A6B6E6B4683506B18FD0B6B1891
:1005E800836EFD0EE3CF05F0FE0EE3CF06F0000E9E
:1005F8000C6E010E0B6EFB0EE3CF61F0FC0EE3CF29
:1006080062F0F90EE3506126FA0EE350622261C0EF
:10061800E6FF62C0E6FF67EC0AF00D0EE66E000E1C
:10062800E66E3AEC07F00B6A0C6A056A066AFF0E7A
:10063800E3CF60F06D0E6018D8A48CD7959483949E
:100648000D0EE66E000EE66ED0EC07F03BC061F0D2
:100658003CC062F0F70E61C0E3FFF80E62C0E3FF32
:1006680020EE3DF0DECF61F0DDCF62F0F50E61C027
:10067800E3FFF60E62C0E3FF20EE3FF0DECF61F04D
:10068800DDCF62F0F30E61C0E3FFF40E62C0E3FF5A
:1006980083A402D0010E01D0000EFF0A6B6E6B46D8
:1006A8006B4683506B18FB0B6B18836EF70EE3CF0A
:1006B80005F0F80EE3CF06F0000E0C6E010E0B6E7F
:1006C800F50EE3CF61F0F60EE3CF62F0F30EE350E0
:1006D8006126F40EE350622261C0E6FF62C0E6FFC5
:1006E80067EC0AF00D0EE66E000EE66E3AEC07F0C7
:1006F8000B6A0C6A056A066A2DD7060EE126000EFB
:10070800E222F90EE3CF60F07E0E606404D0000EA2
:10071800606E000E7BD0030E606EFB0E60C0E3FFC0
:10072800140E606EFA0E60C0E3FFFA0EE3CFD9FF35
:10073800FB0EE3CFDAFFDF506B6EFE0E6BC0E3FFFC
:10074800E150FE0FD96EE250DA6EFF0EDA22DF506A
:100758007F0B6B6EFF0E6B26FF0E6BC0E3FFFE0E6A
:10076800E350D8B4D4D7E150FE0FD96EE250DA6E18
:10077800FF0EDA22DFBE16D0E150FF0FD96EE2502D
:10078800DA6EFF0EDA22F90EE350DE5CD8B020D024
:10079800FA0EE3CFE6FFE3CFE6FF91EC06F06050F8
:1007A800D8A4C3D7E150FE0FD96EE250DA6EFF0E1F
:1007B800DA22DF507F0B010DE150FA0FD96EE250BB
:1007C800DA6EFF0EDA22F350DE26F450DD22ADD7C2
:1007D800E150F90FD96EE250DA6EFF0EDA22FF0E01
:1007E800E350DE18D8A414D0FA0EE3CFD9FFFB0EDD
:1007F800E3CFDAFFDF8EFA0EE3CF6AF0FB0EE3CF2A
:100808006BF0010E6A24606E000E6B20616E41D0A1
:10081800FA0EE3CFD9FFFB0EE3CFDAFFF90EE35070
:10082800810FDF6EFA0EE350010F616EFB0EE3CF0E
:1008380062F0000E6222FD0E62C0E3FFFC0E61C092
:10084800E3FFF90EE350616E626A010E6126000E45
:100858006222E150FA0FD96EE250DA6EFF0EDA2208
:100868006150DE266250DD22FA0EE3CFD9FFFB0E7F
:10087800E3CFDAFFF90EE3CF6BF0FF0EE3CF6AF0B8
:100888006B506A5CDF6EFC0EE3CF60F0FD0EE3CFC9
:1008980061F0F90EE126FF0EE2221200E652FD0E8B
:1008A800E3CF61F0FE0EE3CF62F0080E6124D96E4B
:1008B800000E6220DA6EDE50DE10D8A414D0FD0ED1
:1008C800E3CF61F0FE0EE3CF62F00A0E6124D96E29
:1008D800000E6220DA6E01C0DEFF02C0DDFF060EE8
:1008E800E66E0AEC00F0FD0EE3CF61F0FE0EE3CFFA
:1008F80062F0040E6124D96E000E6220DA6EDECF3B
:1009080061F0DDCF62F0FD0EE3CF6AF0FE0EE3CFBB
:100918006BF061506A24D96E62506B20DA6EDF503A
:100928006B6EFF0E6BC0E3FFFD0EE3CF61F0FE0EB2
:10093800E3CF62F0040E6124D96E000E6220DA6EF5
:10094800DECF61F0DDCF62F0010E6126000E62227B
:10095800030E6116000E6216FD0EE3CF6AF0FE0E5E
:10096800E3CF6BF0040E6A24D96E000E6B20DA6EAA
:1009780061C0DEFF62C0DDFFFD0EE3CF61F0FE0E59
:10098800E3CF62F0080E6124D96E000E6220DA6EA1
:10099800DE06000EDD5AFD0EE3CF61F0FE0EE3CF5A
:1009A80062F00C0E6124D96E000E6220DA6EDE5001
:1009B800DE10D8B432D06E0EE66E000EE66EFB0E78
:1009C800E3CF61F0FC0EE3CF62F00C0E6124D96E28
:1009D800000E6220DA6EDECF61F0DDCF62F061C01A
:1009E800E6FF62C0E6FF3DEC09F0F60E6024D96E22
:1009F800000E6120DA6E010EDF6EFD0EE3CF61F0AE
:100A0800FE0EE3CF62F00C0E6124D96E000E622058
:100A1800DA6E000EDE6E000EDD6EFF0EE3CF60F0C4
:100A2800E552E552E5521200F29EFE0EE3CF61F068
:100A3800FF0EE3CF62F0080E6124D96E000E62202B
:100A4800DA6E040EDE18DE10D8A414D0FE0EE3CF42
:100A580061F0FF0EE3CF62F00C0E6124D96E000E38
:100A68006220DA6E01C0DEFF02C0DDFF060EE66E10
:100A78000AEC00F0FE0EE3CF61F0FF0EE3CF62F068
:100A8800060E6124D96E000E6220DA6EDECF61F0A8
:100A9800DDCF62F0FE0EE3CF6AF0FF0EE3CF6BF01E
:100AA80061506A24D96E62506B20DA6EFD0EE3CF76
:100AB800DFFFFE0EE3CF61F0FF0EE3CF62F0060E1C
:100AC8006124D96E000E6220DA6EDECF61F0DDCFD0
:100AD80062F0010E6126000E6222030E6116000EFE
:100AE8006216FE0EE3CF6AF0FF0EE3CF6BF0060E40
:100AF8006A24D96E000E6B20DA6E61C0DEFF62C018
:100B0800DDFFFE0EE3CF61F0FF0EE3CF62F0080ECB
:100B18006124D96E000E6220DA6EDE2A000EDD2214
:100B2800FE0EE3CF61F0FF0EE3CF62F00A0E612400
:100B3800D96E000E6220DA6EDE50DE10D8B432D0E4
:100B48006E0EE66E000EE66EFC0EE3CF61F0FD0E53
:100B5800E3CF62F00A0E6124D96E000E6220DA6ECD
:100B6800DECF61F0DDCF62F061C0E6FF62C0E6FF74
:100B78003DEC09F0F60E6024D96E000E6120DA6EA5
:100B8800010EDF6EFE0EE3CF61F0FF0EE3CF62F0E1
:100B98000A0E6124D96E000E6220DA6E000EDE6E37
:100BA800000EDD6EF28EE552E552E55212000600A7
:100BB800E1CF49F0E2CF4AF0D9CF4BF0DACF4CF091
:100BC800F3CF4DF0F4CF4EF060C04FF061C050F05D
:100BD80062C051F068C052F069C053F06AC054F066
:100BE8006BC055F015EE64F0F2A47CD0F294FC0EC4
:100BF800D66E000E576E010E566E5FD06E0EE66E04
:100C0800000EE66E56C0E6FF57C0E6FF3DEC09F061
:100C1800080E6026000E6122EE0E6024D96E000ECA
:100C28006120DA6E030EDE18D8A445D06E0EE66E8B
:100C3800000EE66E56C0E6FF57C0E6FF3DEC09F031
:100C4800060E6026000E6122EE0E6024D96E000E9C
:100C58006120DA6EDE06000EDD5A6E0EE66E000EBC
:100C6800E66E56C0E6FF57C0E6FF3DEC09F0060EFB
:100C78006026000E6122EE0E6024D96E000E6120FF
:100C8800DA6EDE50DE10D8A416D06E0EE66E000EB8
:100C9800E66E56C0E6FF57C0E6FF3DEC09F0080EC9
:100CA8006026000E6122EE0E6024D96E000E6120CF
:100CB800DA6E010EDF6E564A572A0350565C04500E
:100CC8005758D8A09BD76C06D8A06D066C506D10ED
:100CD800D8A408D0000E6D6E040E6C6E010EE66E80
:100CE8000AEC00F055C06BF054C06AF053C069F0CC
:100CF80052C068F051C062F050C061F04FC060F05F
:100D08004EC0F4FF4DC0F3FF4CC0DAFF4BC0D9FF13
:100D18004AC0E2FF49C0E1FF1100050EE126000EBE
:100D2800E222F90EE3CFD9FFFA0EE3CFDAFFDF5064
:100D3800616E626AF90EE3506126FA0EE350622290
:100D4800FC0E62C0E3FFFB0E61C0E3FFF90EE3CFC8
:100D5800D9FFFA0EE3CFDAFFDF506B6EFE0E6BC0E1
:100D6800E3FFFB0EE3CFD9FFFC0EE3CFDAFFDF5042
:100D78006B6EFD0E6BC0E3FFFD0EE350D8A402D0EE
:100D8800000E6ED0E150FE0FD96EE250DA6EFF0E03
:100D9800DA22DFBEF5D7E150FD0FD96EE250DA6EE8
:100DA800FF0EDA22DFBEECD7E150FE0FD96EE2501B
:100DB800DA6EFF0EDA22DF507F0B7F0AD8B4E0D755
:100DC800FD0EE3CF6BF0FE0EE3506B246A6EFF0E50
:100DD8006AC0E3FFFF0EE3CF60F07F0E606436D099
:100DE800F90EE3CFD9FFFA0EE3CFDAFF7F0EDF6EFD
:100DF800F90EE3507F0F606EF90E60C0E3FF606A82
:100E0800FA0EE3506020606EFA0E60C0E3FFFD0E3C
:100E1800E350010DE150FB0FD96EE250DA6EFF0E80
:100E2800DA22F350DE26F450DD22F90EE3CFD9FFA3
:100E3800FA0EE3CFDAFFF90EE3CF6BF0FB0EE3CF48
:100E48006AF06B506A5CDF6E7F0E0AD0F90EE3CF52
:100E5800D9FFFA0EE3CFDAFFFF0EE3CFDFFFDF5053
:100E6800606EF90EE126FF0EE2221200F29EFE0EDF
:100E7800E3CFD9FFFF0EE3CFDAFFDE2A000EDD2233
:100E8800FE0EE3CFD9FFFF0EE3CFDAFF010EDBBE84
:100E980006D0010EDB507CE1DE04D8B079D06E0EAE
:100EA800E66E000EE66EFC0EE3CF61F0FD0EE3CFBA
:100EB80062F00E0E6124D96E000E6220DA6EDECF6B
:100EC8006AF0DDCF6BF0D8906A34616E6B34626E75
:100ED800FC0EE3506126FD0EE3506222020E6124EF
:100EE800D96E000E6220DA6EDECF61F0DDCF62F0DF
:100EF80061C0E6FF62C0E6FF3DEC09F0F60E602433
:100F0800D96E000E6120DA6E010EDF6EFE0EE3CFA1
:100F180061F0FF0EE3CF62F00C0E6124D96E000E73
:100F28006220DA6EDECF61F0DDCF62F061C0E6FFED
:100F380062C0E6FFFC0EE3CF61F0FD0EE3CF62F086
:100F48000E0E6124D96E000E6220DA6EDECF61F0DB
:100F5800DDCF62F0010E6126000E622261C0E6FF5D
:100F680062C0E6FF3EEC08F0FE0EE3CF6AF0FF0E2B
:100F7800E3CF6BF00E0E6A24D96E000E6B20DA6E8A
:100F880060C0DEFF61C0DDFF010EE66E0AEC00F016
:100F9800F28EE552E5521200F29EFE0EE3CFD9FF23
:100FA800FF0EE3CFDAFFDE06000EDD5AFE0EE3CFBA
:100FB800D9FFFF0EE3CFDAFF010EDBAE57D0FE0EEE
:100FC800E3CF61F0FF0EE3CF62F00C0E6124D96E1F
:100FD800000E6220DA6EDECF6AF0DDCF6BF0D890BB
:100FE8006A34616E6B34626EFE0EE3506126FF0E4A
:100FF800E3506222020E6124D96E000E6220DA6E7E
:1010080001C0DEFF02C0DDFF050EE66E000EE66ED3
:10101800FC0EE3CF61F0FD0EE3CF62F00C0E61240D
:10102800D96E000E6220DA6EDECF61F0DDCF62F09D
:10103800010E6126000E622261C0E6FF62C0E6FF73
:101048003EEC08F0FE0EE3CF6AF0FF0EE3CF6BF044
:101058000C0E6A24D96E000E6B20DA6E60C0DEFFBB
:1010680061C0DDFF050EE66E0AEC00F0F28EE55277
:10107800E5521200E652FB0EE3CF60F0FC0EE3509F
:101088006010D8B44AD0FF0EE36A10D0FB0EE350CC
:10109800D890E834606EFB0E60C0E3FFFC0EE350AE
:1010A800E834606EFC0E60C0E3FFFF0EE32AFC0E1E
:1010B800E3AEECD7FB0EE3CF61F0FC0EE3CF62F0BA
:1010C800FD0EE3CF6AF0FE0EE3CF6BF061506A5C71
:1010D80062506B58D8A012D0FD0EE350606EFB0E24
:1010E800E350605EFD0E60C0E3FFFE0EE350606EED
:1010F800FC0EE350605AFE0E60C0E3FFD890FC0E71
:10110800E332FB0EE332FF0EE350606E010E605EC9
:10111800FF0E60C0E3FFD8A4CDD7FD0EE3CF60F08B
:10112800FE0EE3CF61F0FB0EE126FF0EE222120075
:10113800FE0EE3CF61F0FF0EE3CF62F0040E6124F0
:10114800D96E000E6220DA6E000EDE6E000EDD6EC5
:10115800FE0EE3CF61F0FF0EE3CF62F0060E6124CE
:10116800D96E000E6220DA6E000EDE6E000EDD6EA5
:10117800FE0EE3CF61F0FF0EE3CF62F0080E6124AC
:10118800D96E000E6220DA6E000EDE6E000EDD6E85
:10119800FE0EE3CF61F0FF0EE3CF62F00A0E61248A
:1011A800D96E000E6220DA6E000EDE6E000EDD6E65
:1011B800FE0EE3CF61F0FF0EE3CF62F00C0E612468
:1011C800D96E000E6220DA6E000EDE6E000EDD6E45
:1011D800E552E5521200060EE66E81EC03F0FF0EB2
:1011E80061C0E3FFFE0E60C0E3FFE150F80FD96E67
:1011F800E250DA6EFF0EDA22FE0EE3CFE9FFFF0EB1
:10120800E3CFEAFFDECFEEFFDDCFEDFFE150FA0FCF
:10121800D96EE250DA6EFF0EDA22FE0EE3CF61F0ED
:10122800FF0EE3CF62F0040E6124E96E000E622027
:10123800EA6EDECFEEFFDDCFEDFFE150FC0FD96E99
:10124800E250DA6EFF0EDA22FE0EE3CF61F0FF0EF7
:10125800E3CF62F0020E6124E96E000E6220EA6EAE
:10126800DECFEEFFDDCFEDFFF80EE126FF0EE22226
:101278001200E652E652FA0EE3CF6BF0FC0EE35092
:101288006B02FE0EF3CFE3FFFF0EF4CFE3FFFB0E7E
:10129800E124D96EFF0EE220DA6EDF506B6EFC0E91
:1012A800E3506B02F3CFF4FFF36AE150FE0FD96EFF
:1012B800E250DA6EFF0EDA22F350DE26F450DD2219
:1012C800FA0EE3CF6BF0FD0EE124D96EFF0EE2209B
:1012D800DA6EDF506B02F3CFF4FFF36AE150FE0FD2
:1012E800D96EE250DA6EFF0EDA22F350DE26F450A1
:1012F800DD22FE0EE3CF60F0FF0EE3CF61F0FA0EC1
:10130800E126FF0EE22212000BEC0BF03AEC0AF099
:101318001D0E586E000E596E000E5B6E000E5A6E52
:10132800ECEC0AF0000E596E020E586E000E5B6E61
:10133800030E5A6E540E5C6E050E5D6E0DEC0AF0CF
:10134800000E596E030E586E000E5B6E030E5A6E39
:10135800160E5C6E150E5D6E0DEC0AF0000E596EE1
:10136800040E586E000E5B6E030E5A6E580E5C6EBD
:10137800150E5D6E0DEC0AF036EC0BF0640EE66EA1
:1013880081EC03F060C05EF061C05FF0FFD7E65209
:10139800E65201C061F002C062F0FE0E61C0E3FFD8
:1013A800FF0E62C0E3FF03C0E6FF04C0E6FFFC0EC9
:1013B800E350010F616EFD0EE3CF62F0000E622272
:1013C80061C0E6FF62C0E6FF3EEC08F0FE0E60C0BA
:1013D800E3FFFF0E61C0E3FF6E0EE66E000EE66EE1
:1013E800FC0EE3CFE6FFE3CFE6FF3DEC09F0F60E97
:1013F8006024D96E000E6120DA6EDE04D8A4D3D73B
:10140800FE0EE3CF60F0FF0EE3CF61F0E552E55248
:10141800120058C080F059C081F05AC082F05BC0F9
:1014280083F05CC084F05DC085F0000E0001EA6FB7
:10143800000EE96F010E886F6E0EE66E000EE66E06
:1014480003C0E6FF04C0E6FF3DEC09F0EE0E6024A1
:10145800E96E000E6120EA6E20EE80F06D0EDBCFA3
:10146800EBFFE806FCE2034A042A1200140E5A6E47
:10147800030E5B6E010E596E5868595004E1800ED8
:10148800585CD8A011D05AC0D9FF5BC0DAFF7F0ED4
:10149800DF6E7F0E5A26000E5B22810E5824586E8E
:1014A800FF0E5920596EE9D75AC0D9FF5BC0DAFF41
:1014B80058C0DFFF58505A24D96E59505B20DA6E55
:1014C800000EDF6E1200F29E6E0EE66E000EE66EE5
:1014D80001C0E6FF02C0E6FF3DEC09F0F40E60240F
:1014E800E96E000E6120EA6EE150FE0FD96EE250FF
:1014F800DA6EFF0EDA22DECFEEFFDDCFEDFF030E50
:10150800E66E0AEC00F0F28EE552E5521200010E8A
:10151800E66E000EE66E640EE66E000EE66E640E73
:10152800E66E000EE66E410EE66E000EE66EEFEC1D
:1015380008F02D0EE66E000EE66E9CEC08F06C0EC0
:10154800E66E2D0EE66E000EE66E18EC05F0F7D787
:10155800020EE66E000EE66EC80EE66E000EE66E31
:10156800E80EE66E030EE66E3B0EE66E000EE66EC5
:10157800EFEC08F02D0EE66E000EE66E9CEC08F01F
:101588006D0EE66E2D0EE66E000EE66E18EC05F09A
:10159800F7D7700EF66E160EF76E000EF86E09008D
:1015A800F5CF6CF00900F5CF6DF000EEEEF024EE0B
:1015B80026F0EE6ADD50D950FCE1DA50FAE100EE8F
:1015C80001F0460EEE6AE806FDE1000188EF09F039
:1015D800F29E58C0D9FF59C0DAFF5AC0DEFF5BC07F
:1015E800DDFF20EE0CF05850D9265950DA22000EB3
:1015F800DE6E000EDD6E20EE0EF05850D9265950E2
:10160800DA22000EDE6E000EDD6EF28E1200D59A22
:10161800D596D580D582D584F28CF28AFC0ED66E0A
:10162800000E596E010E586E000E5B6E050E5A6E56
:101638004C0E5C6E160E5D6E0DEC0AF03AEC0AF07C
:10164800F28E1200959883A802D0010E01D0000EE8
:10165800FF0A6B6E6B3A83506B18EF0B6B18836E37
:0A16680000F0F1D7D58E1200040047
:020000040020DA
:08000000FFFFFFFFFFFFFFFF00
:020000040030CA
:0E000000FF071F1FFF8385FF0FC00FE00F409B
:00000001FF
