:0400000006EF00F017
:1000080052ED04F015EE14F09CEF0AF0F29E6E0E1D
:10001800E66E000EE66E01C0E6FF02C0E6FF0CECDD
:1000280009F0F60E5D24D96E000E5E20DA6EFF0E22
:10003800E3CFDFFF6E0EE66E000EE66E01C0E6FF50
:1000480002C0E6FF0CEC09F0590E5D24D96E010ED2
:100058005E20DA6EE0CFDFFF6E0EE66E000EE66E13
:1000680001C0E6FF02C0E6FF0CEC09F05A0E5D2461
:10007800D96E010E5E20DA6ED8CFDFFF6E0EE66E07
:10008800000EE66E01C0E6FF02C0E6FF0CEC09F0C8
:100098005B0E5D24D96E010E5E20DA6EE8CFDFFFBD
:1000A8006E0EE66E000EE66E01C0E6FF02C0E6FFC9
:1000B8000CEC09F0570E5D24D96E010E5E20DA6E45
:1000C800000EDE6E000EDD6E030EE66E000EE66EAE
:1000D8006E0EE66E000EE66E01C0E6FF02C0E6FF99
:1000E8000CEC09F0570E5D24D96E010E5E20DA6E15
:1000F800DECF5EF0DDCF5FF05EC0E6FF5FC0E6FFFB
:100108000CEC09F05DC065F05EC066F06E0EE66E40
:10011800000EE66E01C0E6FF02C0E6FF0CEC09F037
:10012800EE0E676E000E686E090E6726000E6822D6
:100138005D5067265E50682265506724D96E665008
:100148006820DA6EFFCFDFFF030EE66E000EE66E64
:100158006E0EE66E000EE66E01C0E6FF02C0E6FF18
:100168000CEC09F0570E5D24D96E010E5E20DA6E94
:10017800DECF5EF0DDCF5FF05EC0E6FF5FC0E6FF7A
:100188000CEC09F05DC065F05EC066F06E0EE66EC0
:10019800000EE66E01C0E6FF02C0E6FF0CEC09F0B7
:1001A800EE0E676E000E686E0A0E6726000E682255
:1001B8005D5067265E50682265506724D96E665088
:1001C8006820DA6EFDCFDFFF030EE66E000EE66EE6
:1001D8006E0EE66E000EE66E01C0E6FF02C0E6FF98
:1001E8000CEC09F0570E5D24D96E010E5E20DA6E14
:1001F800DECF5EF0DDCF5FF05EC0E6FF5FC0E6FFFA
:100208000CEC09F05DC065F05EC066F06E0EE66E3F
:10021800000EE66E01C0E6FF02C0E6FF0CEC09F036
:10022800EE0E676E000E686E0B0E6726000E6822D3
:100238005D5067265E50682265506724D96E665007
:100248006820DA6EFECFDFFF6E0EE66E000EE66EF9
:1002580001C0E6FF02C0E6FF0CEC09F0570E5D2472
:10026800D96E010E5E20DA6EDE2A000EDD2206004F
:10027800FC50D8A429D79AEC09F05DC001F05EC003
:1002880002F0FC6A6E0EE66E000EE66E01C0E6FF36
:1002980002C0E6FF0CEC09F0570E5D24D96E010E82
:1002A8005E20DA6EDE50DE10D8A41BD005006E0E7C
:1002B800E66E000EE66E01C0E6FF02C0E6FF0CEC3B
:1002C80009F0F20E5D24D96E000E5E20DA6EDECFE4
:1002D8005EF0DDCF5FF05EC0FDFF5FC0FEFFFF6A2E
:1002E8001FD16E0EE66E000EE66E01C0E6FF02C07C
:1002F800E6FF0CEC09F0590E5D24D96E010E5E2064
:10030800DA6EDF50E06E6E0EE66E000EE66E01C02D
:10031800E6FF02C0E6FF0CEC09F05A0E5D24D96E28
:10032800010E5E20DA6EDF50D86E6E0EE66E000E9D
:10033800E66E01C0E6FF02C0E6FF0CEC09F05B0EBA
:100348005D24D96E010E5E20DA6EDF50686E68504B
:1003580005006E0EE66E000EE66E01C0E6FF02C0F6
:10036800E6FF0CEC09F0570E5D24D96E010E5E20F5
:10037800DA6EDE06000EDD5A030EE66E000EE66E3D
:100388006E0EE66E000EE66E01C0E6FF02C0E6FFE6
:100398000CEC09F0570E5D24D96E010E5E20DA6E62
:1003A800DECF5EF0DDCF5FF05EC0E6FF5FC0E6FF48
:1003B8000CEC09F05DC065F05EC066F06E0EE66E8E
:1003C800000EE66E01C0E6FF02C0E6FF0CEC09F085
:1003D800EE0E676E000E686E090E6726000E682224
:1003E8005D5067265E50682265506724D96E665056
:1003F8006820DA6EDF50FF6E030EE66E000EE66EC2
:100408006E0EE66E000EE66E01C0E6FF02C0E6FF65
:100418000CEC09F0570E5D24D96E010E5E20DA6EE1
:10042800DECF5EF0DDCF5FF05EC0E6FF5FC0E6FFC7
:100438000CEC09F05DC065F05EC066F06E0EE66E0D
:10044800000EE66E01C0E6FF02C0E6FF0CEC09F004
:10045800EE0E676E000E686E0A0E6726000E6822A2
:100468005D5067265E50682265506724D96E6650D5
:100478006820DA6EDF50FD6E030EE66E000EE66E43
:100488006E0EE66E000EE66E01C0E6FF02C0E6FFE5
:100498000CEC09F0570E5D24D96E010E5E20DA6E61
:1004A800DECF5EF0DDCF5FF05EC0E6FF5FC0E6FF47
:1004B8000CEC09F05DC065F05EC066F06E0EE66E8D
:1004C800000EE66E01C0E6FF02C0E6FF0CEC09F084
:1004D800EE0E676E000E686E0B0E6726000E682221
:1004E8005D5067265E50682265506724D96E665055
:1004F8006820DA6EDF50FE6E6E0EE66E000EE66E57
:1005080001C0E6FF02C0E6FF0CEC09F0570E5D24BF
:10051800D96E010E5E20DA6EDE50DE10D8A418D730
:100528006E0EE66E000EE66E01C0E6FF02C0E6FF44
:100538000CEC09F0F60E5D24D96E000E5E20DA6E22
:10054800020EDF6EF28EF28EE55212000D0EE126DB
:10055800000EE2222D0EE66E000EE66E08EC05F0A7
:10056800FF0E5DC0E3FFFF0EE3CF5DF06C0E5D187C
:10057800D8A45DD0959283923EC05EF03FC05FF0F4
:10058800FD0E5EC0E3FFFE0E5FC0E3FF20EE40F00D
:10059800DECF5EF0DDCF5FF0FB0E5EC0E3FFFC0E4A
:1005A8005FC0E3FF20EE42F0DECF5EF0DDCF5FF00C
:1005B800F90E5EC0E3FFFA0E5FC0E3FF83A202D02C
:1005C800010E01D0000EFF0A686E68468350681855
:1005D800FD0B6818836EFD0EE3CF05F0FE0EE3CF2A
:1005E80006F0000E0C6E010E0B6E0D0EE66E000E80
:1005F800E66E9FEC07F0FB0EE3CF5EF0FC0EE3CF58
:100608005FF0F90EE3505E26FA0EE3505F225EC0FB
:10061800E6FF5FC0E6FF36EC0AF00D0EE66E000E50
:10062800E66E09EC07F00B6A0C6A056A066AFF0EAB
:10063800E3CF5DF06D0E5D18D8A48CD795948394A4
:1006480038C05EF039C05FF0F70E5EC0E3FFF80E09
:100658005FC0E3FF20EE3AF0DECF5EF0DDCF5FF063
:10066800F50E5EC0E3FFF60E5FC0E3FF20EE3CF040
:10067800DECF5EF0DDCF5FF0F30E5EC0E3FFF40E79
:100688005FC0E3FF83A402D0010E01D0000EFF0A71
:10069800686E6846684683506818FB0B6818836E56
:1006A800F70EE3CF05F0F80EE3CF06F0000E0C6E60
:1006B800010E0B6E0D0EE66E000EE66E9FEC07F057
:1006C800F50EE3CF5EF0F60EE3CF5FF0F30EE350E6
:1006D8005E26F40EE3505F225EC0E6FF5FC0E6FFD1
:1006E80036EC0AF00D0EE66E000EE66E09EC07F029
:1006F8000B6A0C6A056A066A2DD7060EE126000EFB
:10070800E222F90EE3CF5DF07E0E5D6404D0000EA8
:100718005D6E000E7BD0030E5D6EFB0E5DC0E3FFC9
:10072800140E5D6EFA0E5DC0E3FFFA0EE3CFD9FF3B
:10073800FB0EE3CFDAFFDF50686EFE0E68C0E3FF02
:10074800E150FE0FD96EE250DA6EFF0EDA22DF506A
:100758007F0B686EFF0E6826FF0E68C0E3FFFE0E73
:10076800E350D8B4D4D7E150FE0FD96EE250DA6E18
:10077800FF0EDA22DFBE16D0E150FF0FD96EE2502D
:10078800DA6EFF0EDA22F90EE350DE5CD8B020D024
:10079800FA0EE3CFE6FFE3CFE6FF60EC06F05D502C
:1007A800D8A4C3D7E150FE0FD96EE250DA6EFF0E1F
:1007B800DA22DF507F0B010DE150FA0FD96EE250BB
:1007C800DA6EFF0EDA22F350DE26F450DD22ADD7C2
:1007D800E150F90FD96EE250DA6EFF0EDA22FF0E01
:1007E800E350DE18D8A414D0FA0EE3CFD9FFFB0EDD
:1007F800E3CFDAFFDF8EFA0EE3CF67F0FB0EE3CF2D
:1008080068F0010E67245D6E000E68205E6E41D0B0
:10081800FA0EE3CFD9FFFB0EE3CFDAFFF90EE35070
:10082800810FDF6EFA0EE350010F5E6EFB0EE3CF11
:100838005FF0000E5F22FD0E5FC0E3FFFC0E5EC09E
:10084800E3FFF90EE3505E6E5F6A010E5E26000E4E
:100858005F22E150FA0FD96EE250DA6EFF0EDA220B
:100868005E50DE265F50DD22FA0EE3CFD9FFFB0E85
:10087800E3CFDAFFF90EE3CF68F0FF0EE3CF67F0BE
:100888006850675CDF6EFC0EE3CF5DF0FD0EE3CFD2
:100898005EF0F90EE126FF0EE22212000600E1CF1B
:1008A80046F0E2CF47F0D9CF48F0DACF49F0F3CF9E
:1008B8004AF0F4CF4BF05DC04CF05EC04DF05FC025
:1008C8004EF065C04FF066C050F067C051F068C088
:1008D80052F015EE64F0F2A47CD0F294FC0ED66EC1
:1008E800000E546E010E536E5FD06E0EE66E000E53
:1008F800E66E53C0E6FF54C0E6FF0CEC09F0080EA4
:100908005D26000E5E22EE0E5D24D96E000E5E207E
:10091800DA6E030EDE18D8A445D06E0EE66E000E11
:10092800E66E53C0E6FF54C0E6FF0CEC09F0060E75
:100938005D26000E5E22EE0E5D24D96E000E5E204E
:10094800DA6EDE06000EDD5A6E0EE66E000EE66EFC
:1009580053C0E6FF54C0E6FF0CEC09F0060E5D2616
:10096800000E5E22EE0E5D24D96E000E5E20DA6E59
:10097800DE50DE10D8A416D06E0EE66E000EE66EBF
:1009880053C0E6FF54C0E6FF0CEC09F0080E5D26E4
:10099800000E5E22EE0E5D24D96E000E5E20DA6E29
:1009A800010EDF6E534A542A0350535C04505458C6
:1009B800D8A09BD76906D8A06A0669506A10D8A43F
:1009C80008D0000E6A6E040E696E010EE66E0AEC1F
:1009D80000F052C068F051C067F050C066F04FC0D8
:1009E80065F04EC05FF04DC05EF04CC05DF04BC08E
:1009F800F4FF4AC0F3FF49C0DAFF48C0D9FF47C037
:100A0800E2FF46C0E1FF1100E652FD0EE3CF5EF0C3
:100A1800FE0EE3CF5FF0050E5E24D96E000E5F2058
:100A2800DA6EDE50DE10D8A414D0FD0EE3CF5EF0EF
:100A3800FE0EE3CF5FF0070E5E24D96E000E5F2036
:100A4800DA6E01C0DEFF02C0DDFF060EE66E0AECBC
:100A580000F0FD0EE3CF5EF0FE0EE3CF5FF0010E77
:100A68005E24D96E000E5F20DA6EDECF5EF0DDCF39
:100A78005FF0FD0EE3CF67F0FE0EE3CF68F05E5047
:100A88006724D96E5F506820DA6EDF50686EFF0EFB
:100A980068C0E3FFFD0EE3CF5EF0FE0EE3CF5FF02C
:100AA800010E5E24D96E000E5F20DA6E000EDE6E37
:100AB800000EDD6EFD0EE3CF5EF0FE0EE3CF5FF0BD
:100AC800050E5E24D96E000E5F20DA6EDE06000E7B
:100AD800DD5AFD0EE3CF5EF0FE0EE3CF5FF0090EA8
:100AE8005E24D96E000E5F20DA6EDE50DE10D8B4B8
:100AF80032D06E0EE66E000EE66EFB0EE3CF5EF0B1
:100B0800FC0EE3CF5FF0090E5E24D96E000E5F2065
:100B1800DA6EDECF5EF0DDCF5FF05EC0E6FF5FC06D
:100B2800E6FF0CEC09F0F60E5D24D96E000E5E208F
:100B3800DA6E010EDF6EFD0EE3CF5EF0FE0EE3CF40
:100B48005FF0090E5E24D96E000E5F20DA6E000E8B
:100B5800DE6E000EDD6EFF0EE3CF5DF0E552E5526E
:100B6800E5521200F29EFE0EE3CF5EF0FF0EE3CFD9
:100B78005FF0050E5E24D96E000E5F20DA6EDE048B
:100B8800DE10D8A414D0FE0EE3CF5EF0FF0EE3CF44
:100B98005FF0090E5E24D96E000E5F20DA6E01C088
:100BA800DEFF02C0DDFF060EE66E0AEC00F0FE0E68
:100BB800E3CF5EF0FF0EE3CF5FF0030E5E24D96E45
:100BC800000E5F20DA6EDECF5EF0DDCF5FF0FE0E46
:100BD800E3CF67F0FF0EE3CF68F05E506724D96E6D
:100BE8005F506820DA6EFD0EE3CFDFFFFE0EE3CF25
:100BF8005EF0FF0EE3CF5FF0030E5E24D96E000EA9
:100C08005F20DA6E000EDE6E000EDD6EFE0EE3CFA4
:100C18005EF0FF0EE3CF5FF0050E5E24D96E000E86
:100C28005F20DA6EDE2A000EDD22FE0EE3CF5EF0D4
:100C3800FF0EE3CF5FF0070E5E24D96E000E5F2033
:100C4800DA6EDE50DE10D8B432D06E0EE66E000ECC
:100C5800E66EFC0EE3CF5EF0FD0EE3CF5FF0070E0D
:100C68005E24D96E000E5F20DA6EDECF5EF0DDCF37
:100C78005FF05EC0E6FF5FC0E6FF0CEC09F0F60E21
:100C88005D24D96E000E5E20DA6E010EDF6EFE0E58
:100C9800E3CF5EF0FF0EE3CF5FF0070E5E24D96E60
:100CA800000E5F20DA6E000EDE6E000EDD6EF28E34
:100CB800E552E552E5521200050EE126000EE22249
:100CC800F90EE3CFD9FFFA0EE3CFDAFFDF505E6EFD
:100CD8005F6AF90EE3505E26FA0EE3505F22FC0EBF
:100CE8005FC0E3FFFB0E5EC0E3FFF90EE3CFD9FF61
:100CF800FA0EE3CFDAFFDF50686EFE0E68C0E3FF3E
:100D0800FB0EE3CFD9FFFC0EE3CFDAFFDF50686EAE
:100D1800FD0E68C0E3FFFD0EE350D8A402D0000E1C
:100D28006ED0E150FE0FD96EE250DA6EFF0EDA2275
:100D3800DFBEF5D7E150FD0FD96EE250DA6EFF0E37
:100D4800DA22DFBEECD7E150FE0FD96EE250DA6E40
:100D5800FF0EDA22DF507F0B7F0AD8B4E0D7FD0EF2
:100D6800E3CF68F0FE0EE3506824676EFF0E67C09D
:100D7800E3FFFF0EE3CF5DF07F0E5D6436D0F90E22
:100D8800E3CFD9FFFA0EE3CFDAFF7F0EDF6EF90E5D
:100D9800E3507F0F5D6EF90E5DC0E3FF5D6AFA0EEA
:100DA800E3505D205D6EFA0E5DC0E3FFFD0EE3507B
:100DB800010DE150FB0FD96EE250DA6EFF0EDA2218
:100DC800F350DE26F450DD22F90EE3CFD9FFFA0EF8
:100DD800E3CFDAFFF90EE3CF68F0FB0EE3CF67F05D
:100DE8006850675CDF6E7F0E0AD0F90EE3CFD9FF3B
:100DF800FA0EE3CFDAFFFF0EE3CFDFFFDF505D6EC1
:100E0800F90EE126FF0EE2221200F29EFE0EE3CF5B
:100E1800D9FFFF0EE3CFDAFFDE2A000EDD22FE0E39
:100E2800E3CFD9FFFF0EE3CFDAFF010EDBBE06D01A
:100E3800010EDB507CE1DE04D8B079D06E0EE66E90
:100E4800000EE66EFC0EE3CF5EF0FD0EE3CF5FF022
:100E58000E0E5E24D96E000E5F20DA6EDECF67F0CC
:100E6800DDCF68F0D89067345E6E68345F6EFC0E34
:100E7800E3505E26FD0EE3505F22020E5E24D96E1B
:100E8800000E5F20DA6EDECF5EF0DDCF5FF05EC071
:100E9800E6FF5FC0E6FF0CEC09F0F60E5D24D96EA4
:100EA800000E5E20DA6E010EDF6EFE0EE3CF5EF0FE
:100EB800FF0EE3CF5FF00C0E5E24D96E000E5F20AC
:100EC800DA6EDECF5EF0DDCF5FF05EC0E6FF5FC0BA
:100ED800E6FFFC0EE3CF5EF0FD0EE3CF5FF00E0EF3
:100EE8005E24D96E000E5F20DA6EDECF5EF0DDCFB5
:100EF8005FF0010E5E26000E5F225EC0E6FF5FC057
:100F0800E6FF0DEC08F0FE0EE3CF67F0FF0EE3CF2F
:100F180068F00E0E6724D96E000E6820DA6E5DC088
:100F2800DEFF5EC0DDFF010EE66E0AEC00F0F28E19
:100F3800E552E5521200F29EFE0EE3CFD9FFFF0EF6
:100F4800E3CFDAFFDE06000EDD5AFE0EE3CFD9FF4F
:100F5800FF0EE3CFDAFF010EDBAE57D0FE0EE3CF74
:100F68005EF0FF0EE3CF5FF00C0E5E24D96E000E2C
:100F78005F20DA6EDECF67F0DDCF68F0D890673497
:100F88005E6E68345F6EFE0EE3505E26FF0EE35021
:100F98005F22020E5E24D96E000E5F20DA6E01C059
:100FA800DEFF02C0DDFF050EE66E000EE66EFC0EEB
:100FB800E3CF5EF0FD0EE3CF5FF00C0E5E24D96E3A
:100FC800000E5F20DA6EDECF5EF0DDCF5FF0010E3F
:100FD8005E26000E5F225EC0E6FF5FC0E6FF0DECF6
:100FE80008F0FE0EE3CF67F0FF0EE3CF68F00C0EBB
:100FF8006724D96E000E6820DA6E5DC0DEFF5EC021
:10100800DDFF050EE66E0AEC00F0F28EE552E552C1
:101018001200E652FB0EE3CF5DF0FC0EE3505D10CC
:10102800D8B44AD0FF0EE36A10D0FB0EE350D89034
:10103800E8345D6EFB0E5DC0E3FFFC0EE350E83460
:101048005D6EFC0E5DC0E3FFFF0EE32AFC0EE3AE0F
:10105800ECD7FB0EE3CF5EF0FC0EE3CF5FF0FD0EA6
:10106800E3CF67F0FE0EE3CF68F05E50675C5F5039
:101078006858D8A012D0FD0EE3505D6EFB0EE35009
:101088005D5EFD0E5DC0E3FFFE0EE3505D6EFC0E7F
:10109800E3505D5AFE0E5DC0E3FFD890FC0EE332CC
:1010A800FB0EE332FF0EE3505D6E010E5D5EFF0E38
:1010B8005DC0E3FFD8A4CDD7FD0EE3CF5DF0FE0EF3
:1010C800E3CF5EF0FB0EE126FF0EE2221200FE0ED9
:1010D800E3CF5EF0FF0EE3CF5FF0010E5E24D96E22
:1010E800000E5F20DA6E000EDE6E000EDD6EFE0E64
:1010F800E3CF5EF0FF0EE3CF5FF0030E5E24D96E00
:10110800000E5F20DA6E000EDE6E000EDD6EFE0E43
:10111800E3CF5EF0FF0EE3CF5FF0050E5E24D96EDD
:10112800000E5F20DA6E000EDE6E000EDD6EFE0E23
:10113800E3CF5EF0FF0EE3CF5FF0070E5E24D96EBB
:10114800000E5F20DA6E000EDE6E000EDD6EFE0E03
:10115800E3CF5EF0FF0EE3CF5FF0090E5E24D96E99
:10116800000E5F20DA6E000EDE6E000EDD6EE552B8
:10117800E5521200060EE66E81EC03F0FF0E5EC02B
:10118800E3FFFE0E5DC0E3FFE150F80FD96EE250B9
:10119800DA6EFF0EDA22FE0EE3CFE9FFFF0EE3CF91
:1011A800EAFFDECFEEFFDDCFEDFFE150FA0FD96E9B
:1011B800E250DA6EFF0EDA22FE0EE3CF5EF0FF0E8B
:1011C800E3CF5FF0040E5E24E96E000E5F20EA6E46
:1011D800DECFEEFFDDCFEDFFE150FC0FD96EE25020
:1011E800DA6EFF0EDA22FE0EE3CF5EF0FF0EE3CFDB
:1011F8005FF0020E5E24E96E000E5F20EA6EDECF1D
:10120800EEFFDDCFEDFFF80EE126FF0EE222120021
:10121800E652E652FA0EE3CF68F0FC0EE35068029D
:10122800FE0EF3CFE3FFFF0EF4CFE3FFFB0EE12446
:10123800D96EFF0EE220DA6EDF50686EFC0EE350C6
:101248006802F3CFF4FFF36AE150FE0FD96EE25063
:10125800DA6EFF0EDA22F350DE26F450DD22FA0EA3
:10126800E3CF68F0FD0EE124D96EFF0EE220DA6EBE
:10127800DF506802F3CFF4FFF36AE150FE0FD96E36
:10128800E250DA6EFF0EDA22F350DE26F450DD2249
:10129800FE0EE3CF5DF0FF0EE3CF5EF0FA0EE1261F
:1012A800FF0EE2221200DAEC0AF009EC0AF01D0E39
:1012B800556E000E566E000E586E000E576EBBEC43
:1012C8000AF0000E566E020E556E000E586E030E92
:1012D800576E540E596E050E5A6EDCEC09F0000E6E
:1012E800566E030E556E000E586E030E576EB40EF2
:1012F800596E140E5A6EDCEC09F0000E566E040E90
:10130800556E000E586E030E576EF60E596E140E7B
:101318005A6EDCEC09F005EC0BF0640EE66E81EC1D
:1013280003F05DC05BF05EC05CF0FFD7E652E652AA
:1013380001C05EF002C05FF0FE0E5EC0E3FFFF0E6C
:101348005FC0E3FF03C0E6FF04C0E6FFFC0EE35006
:10135800010F5E6EFD0EE3CF5FF0000E5F225EC0F0
:10136800E6FF5FC0E6FF0DEC08F0FE0E5DC0E3FF90
:10137800FF0E5EC0E3FF6E0EE66E000EE66EFC0E1C
:10138800E3CFE6FFE3CFE6FF0CEC09F0F60E5D24B1
:10139800D96E000E5E20DA6EDE04D8A4D3D7FE0E16
:1013A800E3CF5DF0FF0EE3CF5EF0E552E5521200A9
:1013B80055C080F056C081F057C082F058C083F005
:1013C80059C084F05AC085F0000E0001EA6F000E83
:1013D800E96F010E886F6E0EE66E000EE66E03C0B2
:1013E800E6FF04C0E6FF0CEC09F0EE0E5D24E96EA2
:1013F800000E5E20EA6E20EE80F06D0EDBCFEBFF74
:10140800E806FCE2034A042A1200140E576E030E83
:10141800586E010E566E5568565004E1800E555CA4
:10142800D8A011D057C0D9FF58C0DAFF7F0EDF6EA1
:101438007F0E5726000E5822810E5524556EFF0E3A
:101448005620566EE9D757C0D9FF58C0DAFF55C0A5
:10145800DFFF55505724D96E56505820DA6E000ECB
:10146800DF6E1200F29E6E0EE66E000EE66E01C092
:10147800E6FF02C0E6FF0CEC09F0F40E5D24E96E0D
:10148800000E5E20EA6EE150FE0FD96EE250DA6E71
:10149800FF0EDA22DECFEEFFDDCFEDFF030EE66EA4
:1014A8000AEC00F0F28EE552E5521200010EE66EEB
:1014B800000EE66E640EE66E000EE66E640EE66ED4
:1014C800000EE66E3E0EE66E000EE66EBEEC08F00E
:1014D8002D0EE66E000EE66E6BEC08F06C0EE66EF6
:1014E8002D0EE66E000EE66EB6EC05F0F7D7010E8F
:1014F800E66E000EE66EC80EE66E000EE66EE80EAC
:10150800E66E030EE66E380EE66E000EE66EBEEC74
:1015180008F02D0EE66E000EE66E6BEC08F06D0E10
:10152800E66E2D0EE66E000EE66EB6EC05F0F7D709
:101538000E0EF66E160EF76E000EF86E0900F5CF59
:1015480069F00900F5CF6AF000EEEEF024EE26F01F
:10155800EE6ADD50D950FCE1DA50FAE100EE01F014
:10156800430EEE6AE806FDE1000157EF09F0F29E2E
:1015780055C0D9FF56C0DAFF57C0DEFF58C0DDFF9F
:1015880020EE0CF05550D9265650DA22000EDE6EA9
:10159800000EDD6E20EE0EF05550D9265650DA2298
:1015A800000EDE6E000EDD6EF28E1200D59AD59614
:1015B800D580D582D584F28CF28AFC0ED66E000EC8
:1015C800566E010E556E000E586E050E576EEA0ED9
:1015D800596E150E5A6EDCEC09F009EC0AF0F28E21
:1015E8001200959883A802D0010E01D0000EFF0AC0
:1015F800686E683A83506818EF0B6818836E00F0BD
:08160800F1D7D58E1200040099
:020000040020DA
:08000000FFFFFFFFFFFFFFFF00
:020000040030CA
:0E000000FF071F1FFF8385FF0FC00FE00F409B
:00000001FF
