:0400000006EF00F017
:1000080033ED04F015EE14F0ECEF08F0F29E6E0EEE
:10001800E66E000EE66E27C0E6FF28C0E6FF61EC3C
:1000280007F0F60E3B24D96E000E3C20DA6EFF0E68
:10003800E3CFDFFF6E0EE66E000EE66E27C0E6FF2A
:1000480028C0E6FF61EC07F0590E3B24D96E010E7B
:100058003C20DA6EE0CFDFFF6E0EE66E000EE66E35
:1000680027C0E6FF28C0E6FF61EC07F05A0E3B24E4
:10007800D96E010E3C20DA6ED8CFDFFF6E0EE66E29
:10008800000EE66E27C0E6FF28C0E6FF61EC07F029
:100098005B0E3B24D96E010E3C20DA6EE8CFDFFF01
:1000A8006E0EE66E000EE66E27C0E6FF28C0E6FF7D
:1000B80061EC07F0570E3B24D96E010E3C20DA6E36
:1000C800000EDE6E000EDD6E030EE66E000EE66EAE
:1000D8006E0EE66E000EE66E27C0E6FF28C0E6FF4D
:1000E80061EC07F0570E3B24D96E010E3C20DA6E06
:1000F800DECF3CF0DDCF3DF03CC0E6FF3DC0E6FF83
:1001080061EC07F03BC043F03CC044F06E0EE66E75
:10011800000EE66E27C0E6FF28C0E6FF61EC07F098
:10012800EE0E456E000E466E090E4526000E46225E
:100138003B5045263C50462243504524D96E4450F6
:100148004620DA6EFFCFDFFF030EE66E000EE66E86
:100158006E0EE66E000EE66E27C0E6FF28C0E6FFCC
:1001680061EC07F0570E3B24D96E010E3C20DA6E85
:10017800DECF3CF0DDCF3DF03CC0E6FF3DC0E6FF02
:1001880061EC07F03BC043F03CC044F06E0EE66EF5
:10019800000EE66E27C0E6FF28C0E6FF61EC07F018
:1001A800EE0E456E000E466E0A0E4526000E4622DD
:1001B8003B5045263C50462243504524D96E445076
:1001C8004620DA6EFDCFDFFF030EE66E000EE66E08
:1001D8006E0EE66E000EE66E27C0E6FF28C0E6FF4C
:1001E80061EC07F0570E3B24D96E010E3C20DA6E05
:1001F800DECF3CF0DDCF3DF03CC0E6FF3DC0E6FF82
:1002080061EC07F03BC043F03CC044F06E0EE66E74
:10021800000EE66E27C0E6FF28C0E6FF61EC07F097
:10022800EE0E456E000E466E0B0E4526000E46225B
:100238003B5045263C50462243504524D96E4450F5
:100248004620DA6EFECFDFFF6E0EE66E000EE66E1B
:1002580027C0E6FF28C0E6FF61EC07F0570E3B24F5
:10026800D96E010E3C20DA6EDE2A000EDD22060071
:10027800FC50D8A429D7F6EC07F03BC027F03CC0C7
:1002880028F0FC6A6E0EE66E000EE66E27C0E6FFEA
:1002980028C0E6FF61EC07F0570E3B24D96E010E2B
:1002A8003C20DA6EDE50DE10D8A41BD005006E0E9E
:1002B800E66E000EE66E27C0E6FF28C0E6FF61EC9A
:1002C80007F0F20E3B24D96E000E3C20DA6EDECF2A
:1002D8003CF0DDCF3DF03CC0FDFF3DC0FEFFFF6AB6
:1002E8001FD16E0EE66E000EE66E27C0E6FF28C030
:1002F800E6FF61EC07F0590E3B24D96E010E3C2055
:10030800DA6EDF50E06E6E0EE66E000EE66E27C007
:10031800E6FF28C0E6FF61EC07F05A0E3B24D96ED1
:10032800010E3C20DA6EDF50D86E6E0EE66E000EBF
:10033800E66E27C0E6FF28C0E6FF61EC07F05B0E1B
:100348003B24D96E010E3C20DA6EDF50466E4650D3
:1003580005006E0EE66E000EE66E27C0E6FF28C0AA
:10036800E6FF61EC07F0570E3B24D96E010E3C20E6
:10037800DA6EDE06000EDD5A030EE66E000EE66E3D
:100388006E0EE66E000EE66E27C0E6FF28C0E6FF9A
:1003980061EC07F0570E3B24D96E010E3C20DA6E53
:1003A800DECF3CF0DDCF3DF03CC0E6FF3DC0E6FFD0
:1003B80061EC07F03BC043F03CC044F06E0EE66EC3
:1003C800000EE66E27C0E6FF28C0E6FF61EC07F0E6
:1003D800EE0E456E000E466E090E4526000E4622AC
:1003E8003B5045263C50462243504524D96E445044
:1003F8004620DA6EDF50FF6E030EE66E000EE66EE4
:100408006E0EE66E000EE66E27C0E6FF28C0E6FF19
:1004180061EC07F0570E3B24D96E010E3C20DA6ED2
:10042800DECF3CF0DDCF3DF03CC0E6FF3DC0E6FF4F
:1004380061EC07F03BC043F03CC044F06E0EE66E42
:10044800000EE66E27C0E6FF28C0E6FF61EC07F065
:10045800EE0E456E000E466E0A0E4526000E46222A
:100468003B5045263C50462243504524D96E4450C3
:100478004620DA6EDF50FD6E030EE66E000EE66E65
:100488006E0EE66E000EE66E27C0E6FF28C0E6FF99
:1004980061EC07F0570E3B24D96E010E3C20DA6E52
:1004A800DECF3CF0DDCF3DF03CC0E6FF3DC0E6FFCF
:1004B80061EC07F03BC043F03CC044F06E0EE66EC2
:1004C800000EE66E27C0E6FF28C0E6FF61EC07F0E5
:1004D800EE0E456E000E466E0B0E4526000E4622A9
:1004E8003B5045263C50462243504524D96E445043
:1004F8004620DA6EDF50FE6E6E0EE66E000EE66E79
:1005080027C0E6FF28C0E6FF61EC07F0570E3B2442
:10051800D96E010E3C20DA6EDE50DE10D8A418D752
:100528006E0EE66E000EE66E27C0E6FF28C0E6FFF8
:1005380061EC07F0F60E3B24D96E000E3C20DA6E13
:10054800020EDF6EF28EF28EE5521200E652FD0EBA
:10055800E3CF3CF0FE0EE3CF3DF0080E3C24D96E0D
:10056800000E3D20DA6EDE50DE10D8A414D0FD0E49
:10057800E3CF3CF0FE0EE3CF3DF00A0E3C24D96EEB
:10058800000E3D20DA6E27C0DEFF28C0DDFF060E14
:10059800E66E0AEC00F0FD0EE3CF3CF0FE0EE3CF72
:1005A8003DF0040E3C24D96E000E3D20DA6EDECFFD
:1005B8003CF0DDCF3DF0FD0EE3CF45F0FE0EE3CF7E
:1005C80046F03C504524D96E3D504620DA6EDF5047
:1005D800466EFF0E46C0E3FFFD0EE3CF3CF0FE0E75
:1005E800E3CF3DF0040E3C24D96E000E3D20DA6EB8
:1005F800DECF3CF0DDCF3DF0010E3C26000E3D2263
:10060800030E3C16000E3D16FD0EE3CF45F0FE0E20
:10061800E3CF46F0040E4524D96E000E4620DA6E6C
:100628003CC0DEFF3DC0DDFFFD0EE3CF3CF0FE0E1B
:10063800E3CF3DF0080E3C24D96E000E3D20DA6E63
:10064800DE06000EDD5AFD0EE3CF3CF0FE0EE3CFD2
:100658003DF00C0E3C24D96E000E3D20DA6EDE50C3
:10066800DE10D8B432D06E0EE66E000EE66EFB0ECB
:10067800E3CF3CF0FC0EE3CF3DF00C0E3C24D96EEA
:10068800000E3D20DA6EDECF3CF0DDCF3DF03CC001
:10069800E6FF3DC0E6FF61EC07F0F60E3B24D96E9D
:1006A800000E3C20DA6E010EDF6EFD0EE3CF3CF04B
:1006B800FE0EE3CF3DF00C0E3C24D96E000E3D201B
:1006C800DA6E000EDE6E000EDD6EFF0EE3CF3BF03D
:1006D800E552E552E5521200F29EFE0EE3CF3CF0E1
:1006E800FF0EE3CF3DF0080E3C24D96E000E3D20EE
:1006F800DA6E040EDE18DE10D8A414D0FE0EE3CF96
:100708003CF0FF0EE3CF3DF00C0E3C24D96E000EFA
:100718003D20DA6E27C0DEFF28C0DDFF060EE66E3C
:100728000AEC00F0FE0EE3CF3CF0FF0EE3CF3DF005
:10073800060E3C24D96E000E3D20DA6EDECF3CF06A
:10074800DDCF3DF0FE0EE3CF45F0FF0EE3CF46F0E0
:100758003C504524D96E3D504620DA6EFD0EE3CF5D
:10076800DFFFFE0EE3CF3CF0FF0EE3CF3DF0060EB9
:100778003C24D96E000E3D20DA6EDECF3CF0DDCF92
:100788003DF0010E3C26000E3D22030E3C16000EE5
:100798003D16FE0EE3CF45F0FF0EE3CF46F0060E02
:1007A8004524D96E000E4620DA6E3CC0DEFF3DC0FF
:1007B800DDFFFE0EE3CF3CF0FF0EE3CF3DF0080E69
:1007C8003C24D96E000E3D20DA6EDE2A000EDD22B2
:1007D800FE0EE3CF3CF0FF0EE3CF3DF00A0E3C24C3
:1007E800D96E000E3D20DA6EDE50DE10D8B432D05D
:1007F8006E0EE66E000EE66EFC0EE3CF3CF0FD0ECC
:10080800E3CF3DF00A0E3C24D96E000E3D20DA6E8F
:10081800DECF3CF0DDCF3DF03CC0E6FF3DC0E6FF5B
:1008280061EC07F0F60E3B24D96E000E3C20DA6E20
:10083800010EDF6EFE0EE3CF3CF0FF0EE3CF3DF07E
:100848000A0E3C24D96E000E3D20DA6E000EDE6ED4
:10085800000EDD6EF28EE552E552E55212000600FA
:10086800E1CF03F0E2CF04F0D9CF05F0DACF06F0FC
:10087800F3CF07F0F4CF08F03BC009F03CC00AF012
:100888003DC00BF043C00CF044C00DF045C00EF065
:1008980046C00FF015EE64F0F2A47CD0F294FC0E82
:1008A800D66E000E116E010E106E5FD06E0EE66EE3
:1008B800000EE66E10C0E6FF11C0E6FF61EC07F01F
:1008C800080E3B26000E3C22EE0E3B24D96E000E8D
:1008D8003C20DA6E030EDE18D8A445D06E0EE66E04
:1008E800000EE66E10C0E6FF11C0E6FF61EC07F0EF
:1008F800060E3B26000E3C22EE0E3B24D96E000E5F
:100908003C20DA6EDE06000EDD5A6E0EE66E000E34
:10091800E66E10C0E6FF11C0E6FF61EC07F0060EB8
:100928003B26000E3C22EE0E3B24D96E000E3C20E6
:10093800DA6EDE50DE10D8A416D06E0EE66E000E0B
:10094800E66E10C0E6FF11C0E6FF61EC07F0080E86
:100958003B26000E3C22EE0E3B24D96E000E3C20B6
:10096800DA6E010EDF6E104A112A2950105C2A50E7
:100978001158D8A09BD74706D8A04806475048101A
:10098800D8A408D0000E486E040E476E010EE66E1D
:100998000AEC00F00FC046F00EC045F00DC044F060
:1009A8000CC043F00BC03DF00AC03CF009C03BF05E
:1009B80008C0F4FF07C0F3FF06C0DAFF05C0D9FF7F
:1009C80004C0E2FF03C0E1FF1100F29EFE0EE3CF78
:1009D800D9FFFF0EE3CFDAFFDE2A000EDD22FE0E7E
:1009E800E3CFD9FFFF0EE3CFDAFF010EDBBE06D05F
:1009F800010EDB507CE1DE04D8B079D06E0EE66ED5
:100A0800000EE66EFC0EE3CF3CF0FD0EE3CF3DF0AA
:100A18000E0E3C24D96E000E3D20DA6EDECF45F076
:100A2800DDCF46F0D89045343C6E46343D6EFC0E22
:100A3800E3503C26FD0EE3503D22020E3C24D96EC5
:100A4800000E3D20DA6EDECF3CF0DDCF3DF03CC03D
:100A5800E6FF3DC0E6FF61EC07F0F60E3B24D96ED9
:100A6800000E3C20DA6E010EDF6EFE0EE3CF3CF086
:100A7800FF0EE3CF3DF00C0E3C24D96E000E3D2056
:100A8800DA6EDECF3CF0DDCF3DF03CC0E6FF3DC086
:100A9800E6FFFC0EE3CF3CF0FD0EE3CF3DF00E0E7B
:100AA8003C24D96E000E3D20DA6EDECF3CF0DDCF5F
:100AB8003DF0010E3C26000E3D223CC0E6FF3DC045
:100AC800E6FF5CEC06F0FE0EE3CF45F0FF0EE3CF49
:100AD80046F00E0E4524D96E000E4620DA6E3BC055
:100AE800DEFF3CC0DDFF010EE66E0AEC00F0F28E80
:100AF800E552E5521200226E7E0E226405D0000EE9
:100B08001A6E000E1B6E1200140E236E030E246E56
:100B180023C0D9FF24C0DAFFDF501F6E1F507F0BA0
:100B28001C6E1C041E6E1F50D8A405D0000E1A6E31
:100B3800000E1B6E12001FBE43D022501E5CD8B0A0
:100B48000AD023C012F024C013F0BAEC06F0000952
:100B5800D8A4DED735D01E502218D8A40CD023C074
:100B6800D9FF24C0DAFFDF8E010E23241A6E000E8F
:100B780024201B6E12002250810F23C0D9FF24C0ED
:100B8800DAFFDF6E010E2324206E000E2420216E72
:100B980022501C6E1D6A010E1C26000E1D221C50C0
:100BA80023261D502422225000081E2423C0D9FFCA
:100BB80024C0DAFFDF6E20C01AF021C01BF012003B
:100BC8001F507F0B1C6E1C50010DF3502326F45050
:100BD80024229ED7F29EFE0EE3CFD9FFFF0EE3CF6D
:100BE800DAFFDE06000EDD5AFE0EE3CFD9FFFF0E58
:100BF800E3CFDAFF010EDBAE57D0FE0EE3CF3CF0B9
:100C0800FF0EE3CF3DF00C0E3C24D96E000E3D20C4
:100C1800DA6EDECF45F0DDCF46F0D89045343C6E35
:100C280046343D6EFE0EE3503C26FF0EE3503D2257
:100C3800020E3C24D96E000E3D20DA6E27C0DEFF7E
:100C480028C0DDFF050EE66E000EE66EFC0EE3CF53
:100C58003CF0FD0EE3CF3DF00C0E3C24D96E000EA7
:100C68003D20DA6EDECF3CF0DDCF3DF0010E3C26B4
:100C7800000E3D223CC0E6FF3DC0E6FF5CEC06F0FE
:100C8800FE0EE3CF45F0FF0EE3CF46F00C0E4524F1
:100C9800D96E000E4620DA6E3BC0DEFF3CC0DDFF99
:100CA800050EE66E0AEC00F0F28EE552E5521200EF
:100CB800E652FB0EE3CF3BF0FC0EE3503B10D8B4FA
:100CC8004AD0FF0EE36A10D0FB0EE350D890E83408
:100CD8003B6EFB0E3BC0E3FFFC0EE350E8343B6E7B
:100CE800FC0E3BC0E3FFFF0EE32AFC0EE3AEECD79D
:100CF800FB0EE3CF3CF0FC0EE3CF3DF0FD0EE3CF5F
:100D080045F0FE0EE3CF46F03C50455C3D5046585A
:100D1800D8A012D0FD0EE3503B6EFB0EE3503B5EB5
:100D2800FD0E3BC0E3FFFE0EE3503B6EFC0EE350AE
:100D38003B5AFE0E3BC0E3FFD890FC0EE332FB0E9D
:100D4800E332FF0EE3503B6E010E3B5EFF0E3BC0ED
:100D5800E3FFD8A4CDD7FD0EE3CF3BF0FE0EE3CFE3
:100D68003CF0FB0EE126FF0EE222120012C0D9FF72
:100D780013C0DAFFDF50146E1450010DF350122423
:100D8800186EF4501320196E12C0D9FF13C0DAFF81
:100D9800DF50166E18C0D9FF19C0DAFFDF50176E82
:100DA8001750D8A402D0000E120016BE02D017AEFB
:100DB80002D0000E120016507F0B7F0AD8A402D072
:100DC800000E120016501724156E7F0E15641AD0E7
:100DD80012C0D9FF13C0DAFF7F0EDF6E7F0E122616
:100DE800000E13221750010DF3501826F450192243
:100DF80012500008182412C0D9FF13C0DAFFDF6EA2
:100E08007F0E120012C0D9FF13C0DAFF15C0DFFF32
:100E1800DF501200FE0EE3CF3CF0FF0EE3CF3DF0B3
:100E2800040E3C24D96E000E3D20DA6E000EDE6EF4
:100E3800000EDD6EFE0EE3CF3CF0FF0EE3CF3DF07B
:100E4800060E3C24D96E000E3D20DA6E000EDE6ED2
:100E5800000EDD6EFE0EE3CF3CF0FF0EE3CF3DF05B
:100E6800080E3C24D96E000E3D20DA6E000EDE6EB0
:100E7800000EDD6EFE0EE3CF3CF0FF0EE3CF3DF03B
:100E88000A0E3C24D96E000E3D20DA6E000EDE6E8E
:100E9800000EDD6EFE0EE3CF3CF0FF0EE3CF3DF01B
:100EA8000C0E3C24D96E000E3D20DA6E000EDE6E6C
:100EB800000EDD6EE552E5521200E652E652FA0ED9
:100EC800E3CF46F0FC0EE3504602FE0EF3CFE3FFFD
:100ED800FF0EF4CFE3FFFB0EE124D96EFF0EE220F4
:100EE800DA6EDF50466EFC0EE3504602F3CFF4FF95
:100EF800F36AE150FE0FD96EE250DA6EFF0EDA2285
:100F0800F350DE26F450DD22FA0EE3CF46F0FD0E54
:100F1800E124D96EFF0EE220DA6EDF504602F3CFED
:100F2800F4FFF36AE150FE0FD96EE250DA6EFF0E5D
:100F3800DA22F350DE26F450DD22FE0EE3CF3BF03A
:100F4800FF0EE3CF3CF0FA0EE126FF0EE22212007C
:100F5800E652E6522B0EE66E000EE66EAAEC02F0A2
:100F68003B503C6E3D6AFE0E3CC0E3FFFF0E3DC0A9
:100F7800E3FFFE0EE3CF3BF0020E3B1820E1FF0E2D
:100F8800E350D8A41CD0390EE66E000EE66EE9ECEC
:100F980004F083A602D0010E01D0000EFF0A466EAF
:100FA80046464646464683504618F70B4618836E13
:100FB800390EE66E000EE66EEEEC05F0CBD7390E74
:100FC800E66E000EE66EE9EC04F083A402D0010E92
:100FD80001D0000EFF0A466E464646468350461824
:100FE800FB0BE4D7E652E65227C03CF028C03DF0A0
:100FF800FE0E3CC0E3FFFF0E3DC0E3FF29C0E6FF45
:101008002AC0E6FFFC0EE350010F3C6EFD0EE3CF55
:101018003DF0000E3D223CC0E6FF3DC0E6FF5CEC23
:1010280006F0FE0E3BC0E3FFFF0E3CC0E3FF6E0E72
:10103800E66E000EE66EFC0EE3CFE6FFE3CFE6FFBA
:1010480061EC07F0F60E3B24D96E000E3C20DA6EF8
:10105800DE04D8A4D3D7FE0EE3CF3BF0FF0EE3CFD8
:101068003CF0E552E55212000BEC09F0000E136E4D
:10107800020E126E000E156E030E146E580E166ECA
:101088000F0E176E6EEC08F0000E136E030E126E44
:10109800000E156E030E146E4C0E166E120E176EA1
:1010A8006EEC08F0000E136E040E126E000E156E34
:1010B800030E146E6E0E166E120E176E6EEC08F09E
:1010C80058EC09F0640E7FEC05F01AC025F01BC03F
:1010D80026F0FFD712C080F013C081F014C082F050
:1010E80015C083F016C084F017C085F0000E00010B
:1010F800EA6F000EE96F010E886F6E0EE66E000E45
:10110800E66E29C0E6FF2AC0E6FF61EC07F0EE0EA6
:101118003B24E96E000E3C20EA6E20EE80F06D0E56
:10112800DBCFEBFFE806FCE2294A2A2A1200140E5C
:10113800146E030E156E010E136E1268135004E13F
:10114800800E125CD8A011D014C0D9FF15C0DAFFE8
:101158007F0EDF6E7F0E1426000E1522810E1224DC
:10116800126EFF0E1320136EE9D714C0D9FF15C0F5
:10117800DAFF12C0DFFF12501424D96E1350152065
:10118800DA6E000EDF6E1200F29E6E0EE66E000E34
:10119800E66E27C0E6FF28C0E6FF61EC07F0F40E14
:1011A8003B24E96E000E3C20EA6EE150FE0FD96E3A
:1011B800E250DA6EFF0EDA22DECFEEFFDDCFEDFF72
:1011C800030EE66E0AEC00F0F28EE552E5521200CC
:1011D800B40EF66E120EF76E000EF86E0900F5CF1B
:1011E80047F00900F5CF48F000EEEEF024EE26F0C7
:1011F800EE6ADD50D950FCE1DA50FAE100EE27F052
:10120800140EEE6AE806FDE1000138EF08F0D59A01
:10121800D596D580D582D584F28CF28AFC0ED66E0E
:10122800000E136E010E126E000E156E050E146E72
:10123800900E166E120E176E6EEC08F09BEC08F00E
:10124800F28E1200959283922B0EE66E000EE66ED9
:101258000EEC07F0020EE66E2B0EE66E000EE66E42
:1012680070EC03F0F7D795968396030EE66E2B0E77
:10127800E66E000EE66E70EC03F0640EE66E000E8D
:10128800E66EC8EC08F0F1D7959883A802D0010E55
:1012980001D0000EFF0A466E463A83504618EF0BFF
:0E12A8004618836E00F0F1D7D58E12000400B8
:020000040020DA
:08000000FFFFFFFFFFFFFFFF00
:020000040030CA
:0E000000FF071F1FFF8385FF0FC00FE00F409B
:00000001FF
