:0400000006EF00F017
:0C00080074ED06F013EEAAF06AEF0EF0A3
:10060000001F00610000F29E110EE66E000EE66E05
:1006100017C0E6FF18C0E6FFD2EC0CF0080E5A2413
:10062000D96E010E5B20DA6EFF0EE3CFDFFF110EF5
:10063000E66E000EE66E17C0E6FF18C0E6FFD2ECCD
:100640000CF00E0E5A24D96E010E5B20DA6EE0CF4C
:10065000DFFF110EE66E000EE66E17C0E6FF18C053
:10066000E6FFD2EC0CF00F0E5A24D96E010E5B207F
:10067000DA6ED8CFDFFF110EE66E000EE66E17C001
:10068000E6FF18C0E6FFD2EC0CF0100E5A24D96E2B
:10069000010E5B20DA6EE8CFDFFF110EE66E000E72
:1006A000E66E17C0E6FF18C0E6FFD2EC0CF00C0EA9
:1006B0005A24D96E010E5B20DA6E000EDE6E000E3B
:1006C000DD6E030EE66E000EE66E110EE66E000E97
:1006D000E66E17C0E6FF18C0E6FFD2EC0CF00C0E79
:1006E0005A24D96E010E5B20DA6EDECF5BF0DDCFCF
:1006F0005CF05BC0E6FF5CC0E6FFD2EC0CF05AC0D9
:1007000062F05BC063F0110EE66E000EE66E17C07D
:10071000E6FF18C0E6FFD2EC0CF0000E646E010E8E
:10072000656E090E6426000E65225A5064265B50E1
:10073000652262506424D96E63506520DA6EFFCF63
:10074000DFFF030EE66E000EE66E110EE66E000E83
:10075000E66E17C0E6FF18C0E6FFD2EC0CF00C0EF8
:100760005A24D96E010E5B20DA6EDECF5BF0DDCF4E
:100770005CF05BC0E6FF5CC0E6FFD2EC0CF05AC058
:1007800062F05BC063F0110EE66E000EE66E17C0FD
:10079000E6FF18C0E6FFD2EC0CF0000E646E010E0E
:1007A000656E0A0E6426000E65225A5064265B5060
:1007B000652262506424D96E63506520DA6EFDCFE5
:1007C000DFFF030EE66E000EE66E110EE66E000E03
:1007D000E66E17C0E6FF18C0E6FFD2EC0CF00C0E78
:1007E0005A24D96E010E5B20DA6EDECF5BF0DDCFCE
:1007F0005CF05BC0E6FF5CC0E6FFD2EC0CF05AC0D8
:1008000062F05BC063F0110EE66E000EE66E17C07C
:10081000E6FF18C0E6FFD2EC0CF0000E646E010E8D
:10082000656E0B0E6426000E65225A5064265B50DE
:10083000652262506424D96E63506520DA6EFECF63
:10084000DFFF110EE66E000EE66E17C0E6FF18C061
:10085000E6FFD2EC0CF00C0E5A24D96E010E5B2090
:10086000DA6EDE2A000EDD220600FC50D8A429D75D
:10087000B1EC0AF05AC017F05BC018F0FC6A110E18
:10088000E66E000EE66E17C0E6FF18C0E6FFD2EC7B
:100890000CF00C0E5A24D96E010E5B20DA6EDE507D
:1008A000DE10D8A41BD00500110EE66E000EE66E19
:1008B00017C0E6FF18C0E6FFD2EC0CF0040E5A2475
:1008C000D96E010E5B20DA6EDECF5BF0DDCF5CF01F
:1008D0005BC0FDFF5CC0FEFFFF6A1FD1110EE66E1C
:1008E000000EE66E17C0E6FF18C0E6FFD2EC0CF073
:1008F0000E0E5A24D96E010E5B20DA6EDF50E06EC8
:10090000110EE66E000EE66E17C0E6FF18C0E6FF99
:10091000D2EC0CF00F0E5A24D96E010E5B20DA6E69
:10092000DF50D86E110EE66E000EE66E17C0E6FFC1
:1009300018C0E6FFD2EC0CF0100E5A24D96E010E4E
:100940005B20DA6EDF50656E65500500110EE66EB5
:10095000000EE66E17C0E6FF18C0E6FFD2EC0CF002
:100960000C0E5A24D96E010E5B20DA6EDE06000EE4
:10097000DD5A030EE66E000EE66E110EE66E000EF8
:10098000E66E17C0E6FF18C0E6FFD2EC0CF00C0EC6
:100990005A24D96E010E5B20DA6EDECF5BF0DDCF1C
:1009A0005CF05BC0E6FF5CC0E6FFD2EC0CF05AC026
:1009B00062F05BC063F0110EE66E000EE66E17C0CB
:1009C000E6FF18C0E6FFD2EC0CF0000E646E010EDC
:1009D000656E090E6426000E65225A5064265B502F
:1009E000652262506424D96E63506520DA6EDF5050
:1009F000FF6E030EE66E000EE66E110EE66E000E42
:100A0000E66E17C0E6FF18C0E6FFD2EC0CF00C0E45
:100A10005A24D96E010E5B20DA6EDECF5BF0DDCF9B
:100A20005CF05BC0E6FF5CC0E6FFD2EC0CF05AC0A5
:100A300062F05BC063F0110EE66E000EE66E17C04A
:100A4000E6FF18C0E6FFD2EC0CF0000E646E010E5B
:100A5000656E0A0E6426000E65225A5064265B50AD
:100A6000652262506424D96E63506520DA6EDF50CF
:100A7000FD6E030EE66E000EE66E110EE66E000EC3
:100A8000E66E17C0E6FF18C0E6FFD2EC0CF00C0EC5
:100A90005A24D96E010E5B20DA6EDECF5BF0DDCF1B
:100AA0005CF05BC0E6FF5CC0E6FFD2EC0CF05AC025
:100AB00062F05BC063F0110EE66E000EE66E17C0CA
:100AC000E6FF18C0E6FFD2EC0CF0000E646E010EDB
:100AD000656E0B0E6426000E65225A5064265B502C
:100AE000652262506424D96E63506520DA6EDF504F
:100AF000FE6E110EE66E000EE66E17C0E6FF18C021
:100B0000E6FFD2EC0CF00C0E5A24D96E010E5B20DD
:100B1000DA6EDE50DE10D8A418D7110EE66E000E85
:100B2000E66E17C0E6FF18C0E6FFD2EC0CF0080E28
:100B30005A24D96E010E5B20DA6E020EDF6EF28E41
:100B4000F28EE5521200060EE126000EE222F90EA8
:100B5000E3CF5AF07E0E5A6404D0000E5A6E000E97
:100B60007BD0010E5A6EFB0E5AC0E3FFAA0E5A6EDE
:100B7000FA0E5AC0E3FFFA0EE3CFD9FFFB0EE3CF24
:100B8000DAFFDF50656EFE0E65C0E3FFE150FE0F39
:100B9000D96EE250DA6EFF0EDA22DF507F0B656EFF
:100BA000FF0E6526FF0E65C0E3FFFE0EE350D8B4CE
:100BB000D4D7E150FE0FD96EE250DA6EFF0EDA2282
:100BC000DFBE16D0E150FF0FD96EE250DA6EFF0E95
:100BD000DA22F90EE350DE5CD8B020D0FA0EE3CF73
:100BE000E6FFE3CFE6FFD4EC07F05A50D8A4C3D712
:100BF000E150FE0FD96EE250DA6EFF0EDA22DF50BE
:100C00007F0B010DE150FA0FD96EE250DA6EFF0E44
:100C1000DA22F350DE26F450DD22ADD7E150F90F91
:100C2000D96EE250DA6EFF0EDA22FF0EE350DE18C4
:100C3000D8A414D0FA0EE3CFD9FFFB0EE3CFDAFF2E
:100C4000DF8EFA0EE3CF64F0FB0EE3CF65F0010E0A
:100C500064245A6E000E65205B6E41D0FA0EE3CF1D
:100C6000D9FFFB0EE3CFDAFFF90EE350810FDF6E01
:100C7000FA0EE350010F5B6EFB0EE3CF5CF0000E4B
:100C80005C22FD0E5CC0E3FFFC0E5BC0E3FFF90ECF
:100C9000E3505B6E5C6A010E5B26000E5C22E15045
:100CA000FA0FD96EE250DA6EFF0EDA225B50DE26C2
:100CB0005C50DD22FA0EE3CFD9FFFB0EE3CFDAFF63
:100CC000F90EE3CF65F0FF0EE3CF64F06550645C8E
:100CD000DF6EFC0EE3CF5AF0FD0EE3CF5BF0F90EB2
:100CE000E126FF0EE22212000600E1CF45F0E2CF3E
:100CF00046F0D9CF47F0DACF48F0F3CF49F0F4CF40
:100D00004AF05AC04BF05BC04CF05CC04DF062C082
:100D10004EF063C04FF064C050F065C051F014EE67
:100D200072F0F2A47CD0F294FC0ED66E000E536EDC
:100D3000010E526E5FD0110EE66E000EE66E52C0CE
:100D4000E6FF53C0E6FFD2EC0CF0080E5A26000E68
:100D50005B22000E5A24D96E010E5B20DA6E030E60
:100D6000DE18D8A445D0110EE66E000EE66E52C015
:100D7000E6FF53C0E6FFD2EC0CF0060E5A26000E3A
:100D80005B22000E5A24D96E010E5B20DA6EDE065D
:100D9000000EDD5A110EE66E000EE66E52C0E6FF42
:100DA00053C0E6FFD2EC0CF0060E5A26000E5B2272
:100DB000000E5A24D96E010E5B20DA6EDE50DE1072
:100DC000D8A416D0110EE66E000EE66E52C0E6FFF5
:100DD00053C0E6FFD2EC0CF0080E5A26000E5B2240
:100DE000000E5A24D96E010E5B20DA6E010EDF6E02
:100DF000524A532A1950525C1A505358D8A09BD7C4
:100E00006606D8A0670666506710D8A408D0000E02
:100E1000676E040E666E010EE66E03EC03F051C0C1
:100E200065F050C064F04FC063F04EC062F04DC03A
:100E30005CF04CC05BF04BC05AF04AC0F4FF49C0B4
:100E4000F3FF48C0DAFF47C0D9FF46C0E2FF45C004
:100E5000E1FF1100E652E652F29EFC0EE3CFD9FF0D
:100E6000FD0EE3CFDAFFDE2A000EDD22FC0EE3CF1B
:100E7000D9FFFD0EE3CFDAFF010EDBBE06D0010E77
:100E8000DB5002E1DE04D8B089D0FC0EE3CF5BF08A
:100E9000FD0EE3CF5CF0060E5B24D96E000E5C20E5
:100EA000DA6EDECF64F0DDCF65F0D89064345B6E2F
:100EB00065345C6EFC0EE3CF64F0FD0EE3CF65F0AD
:100EC000020E6424D96E000E6520DA6EDECF64F067
:100ED000DDCF65F05B506424D96E5C506520DA6E1E
:100EE000DECF5BF0DDCF5CF0FE0E5BC0E3FFFF0EFC
:100EF0005CC0E3FF0A0EE66E000EE66EFA0EE3CF6C
:100F00005BF0FB0EE3CF5CF0060E5B24D96E000EA7
:100F10005C20DA6EDECF5BF0DDCF5CF0010E5B268D
:100F2000000E5C225BC0E6FF5CC0E6FF22EC0BF02B
:100F3000FC0EE3CF64F0FD0EE3CF65F0060E6424F3
:100F4000D96E000E6520DA6E5AC0DEFF5BC0DDFF91
:100F5000FC0EE3CF5BF0FD0EE3CF5CF0040E5B24F0
:100F6000D96E000E5C20DA6EDE06000EDD5A110E20
:100F7000E66E000EE66EFC0EE3CFE6FFE3CFE6FF83
:100F8000D2EC0CF0080E5A24D96E010E5B20DA6EFA
:100F9000010EDF6E010EE66E03EC03F0F28EE552F9
:100FA000E552E552E5521200050EE126000EE2225E
:100FB000F90EE3CFD9FFFA0EE3CFDAFFDF505B6E15
:100FC0005C6AF90EE3505B26FA0EE3505C22FC0EDD
:100FD0005CC0E3FFFB0E5BC0E3FFF90EE3CFD9FF7C
:100FE000FA0EE3CFDAFFDF50656EFE0E65C0E3FF59
:100FF000FB0EE3CFD9FFFC0EE3CFDAFFDF50656EC7
:10100000FD0E65C0E3FFFD0EE350D8A402D0000E34
:101010006ED0E150FE0FD96EE250DA6EFF0EDA228A
:10102000DFBEF5D7E150FD0FD96EE250DA6EFF0E4C
:10103000DA22DFBEECD7E150FE0FD96EE250DA6E55
:10104000FF0EDA22DF507F0B7F0AD8B4E0D7FD0E07
:10105000E3CF65F0FE0EE3506524646EFF0E64C0BE
:10106000E3FFFF0EE3CF5AF07F0E5A6436D0F90E3D
:10107000E3CFD9FFFA0EE3CFDAFF7F0EDF6EF90E72
:10108000E3507F0F5A6EF90E5AC0E3FF5A6AFA0E08
:10109000E3505A205A6EFA0E5AC0E3FFFD0EE35099
:1010A000010DE150FB0FD96EE250DA6EFF0EDA222D
:1010B000F350DE26F450DD22F90EE3CFD9FFFA0E0D
:1010C000E3CFDAFFF90EE3CF65F0FB0EE3CF64F078
:1010D0006550645CDF6E7F0E0AD0F90EE3CFD9FF56
:1010E000FA0EE3CFDAFFFF0EE3CFDFFFDF505A6ED9
:1010F000F90EE126FF0EE2221200F29EFE0EE3CF71
:101100005BF0FF0EE3CF5CF0080E5B24D96E000E9F
:101110005C20DA6EFE0EE3CF5BF0FF0EE3CF5CF0F7
:101120000A0E5B24E96E000E5C20EA6EDE50EE18BB
:1011300009E1DE50EE18D8A405D0050EE66E03ECEA
:1011400003F078D0FE0EE3CF5BF0FF0EE3CF5CF050
:10115000040E5B24D96E000E5C20DA6EDECF5BF0ED
:10116000DDCF5CF0FE0EE3CF64F0FF0EE3CF65F061
:10117000020E6424D96E000E6520DA6EDECF64F0B4
:10118000DDCF65F05B506424D96E5C506520DA6E6B
:10119000FD0EE3CFDFFFFE0EE3CF5BF0FF0EE3CFEC
:1011A0005CF0080E5B24D96E000E5C20DA6EDECF98
:1011B0005BF0DDCF5CF05BC0E6FF5CC0E6FFFC0EE1
:1011C000E3CF5BF0FD0EE3CF5CF0040E5B24D96E41
:1011D000000E5C20DA6EDECF5BF0DDCF5CF0010E3E
:1011E0005B26000E5C225BC0E6FF5CC0E6FF22ECE3
:1011F0000BF0FE0EE3CF64F0FF0EE3CF65F0040EBC
:101200006424D96E000E6520DA6E5AC0DEFF5BC022
:10121000DDFFFE0EE3CF5BF0FF0EE3CF5CF00A0EC6
:101220005B24D96E000E5C20DA6EDE2A000EDD2211
:1012300085EC0CF0F28EE552E552E5521200F29E7A
:10124000FE0EE3CF5BF0FF0EE3CF5CF00A0E5B24F3
:10125000D96E000E5C20DA6EDE50DE10D8A405D008
:10126000050EE66E03EC03F07DD0FE0EE3CF5BF0DF
:10127000FF0EE3CF5CF0060E5B24D96E000E5C20FF
:10128000DA6EDECF5BF0DDCF5CF0FE0EE3CF64F014
:10129000FF0EE3CF65F0020E6424D96E000E6520C8
:1012A000DA6EDECF64F0DDCF65F05B506424D96E7A
:1012B0005C506520DA6EFC0EE3CFE9FFFD0EE3CF54
:1012C000EAFFDFCFEFFFFE0EE3CF5BF0FF0EE3CFD1
:1012D0005CF0080E5B24D96E000E5C20DA6EDECF67
:1012E0005BF0DDCF5CF05BC0E6FF5CC0E6FFFC0EB0
:1012F000E3CF5BF0FD0EE3CF5CF0060E5B24D96E0E
:10130000000E5C20DA6EDECF5BF0DDCF5CF0010E0C
:101310005B26000E5C225BC0E6FF5CC0E6FF22ECB1
:101320000BF0FE0EE3CF64F0FF0EE3CF65F0060E88
:101330006424D96E000E6520DA6E5AC0DEFF5BC0F1
:10134000DDFFFE0EE3CF5BF0FF0EE3CF5CF00A0E95
:101350005B24D96E000E5C20DA6EDE06000EDD5ACC
:1013600085EC0CF0F28EE552E552E552E5521200A2
:10137000E652E652F29EFC0EE3CFD9FFFD0EE3CF1C
:10138000DAFFDE06000EDD5AFC0EE3CFD9FFFD0EBC
:10139000E3CFDAFF010EDBAE6CD00A0EE66E000E74
:1013A000E66EFA0EE3CF5BF0FB0EE3CF5CF0060EC9
:1013B0005B24D96E000E5C20DA6EDECF5BF0DDCFF1
:1013C0005CF0FA0EE3CF64F0FB0EE3CF65F0040EA1
:1013D0006424D96E000E6520DA6EDECF64F0DDCFB6
:1013E00065F05B5064265C50652264C0E6FF65C012
:1013F000E6FF22EC0BF0FE0E5AC0E3FFFF0E5BC0CF
:10140000E3FFFE0EE3CF64F0FF0EE3CF65F0D8906C
:1014100064345B6E65345C6EFC0EE3CF64F0FD0EED
:10142000E3CF65F0020E6424D96E000E6520DA6EFB
:10143000DECF64F0DDCF65F05B506424D96E5C5084
:101440006520DA6E17C0DEFF18C0DDFFFC0EE3CFAB
:101450005BF0FD0EE3CF5CF0040E5B24D96E000E52
:101460005C20DA6EDE2A000EDD22040EE66E03EC4E
:1014700003F0F28EE552E552E552E5521200E150DA
:10148000FC0FD96EE250DA6EFF0EDA22FE0EE3CFC9
:10149000E9FFFF0EE3CFEAFFDECFEEFFDDCFEDFF8A
:1014A000FE0EE3CF5BF0FF0EE3CF5CF0060E5B2495
:1014B000D96E000E5C20DA6E000EDE6E000EDD6E60
:1014C000FE0EE3CF5BF0FF0EE3CF5CF0040E5B2477
:1014D000D96E000E5C20DA6E000EDE6E000EDD6E40
:1014E000E150FA0FD96EE250DA6EFF0EDA22FE0EEC
:1014F000E3CF5BF0FF0EE3CF5CF0080E5B24E96EF8
:10150000000E5C20EA6EDECFEEFFDDCFEDFFFA0EBF
:10151000E350E66EA3EC05F0FE0EE3CF64F0FF0EA1
:10152000E3CF65F0020E6424D96E000E6520DA6EFA
:101530005AC0DEFF5BC0DDFFFE0EE3CF5BF0FF0EA7
:10154000E3CF5CF00A0E5B24D96E000E5C20DA6EED
:10155000000EDE6E000EDD6EFA0EE126FF0EE222B8
:101560001200060EE126000EE22217C05BF018C042
:101570005CF0FC0E5BC0E3FFFD0E5CC0E3FF80ECA3
:101580000BF0FE0E5AC0E3FFFF0E5BC0E3FF8AA024
:1015900002D0010E01D0000EFF0A656E8150651861
:1015A000FE0B6518816EFC0EE350010F5A6EFC0EA7
:1015B0005AC0E3FF5A6AFD0EE3505A205A6EFD0EE0
:1015C0005AC0E3FF19C0E6FF1AC0E6FFFA0EE3CFE8
:1015D000E6FFE3CFE6FF22EC0BF0FA0E5AC0E3FF82
:1015E000FB0E5BC0E3FF110EE66E000EE66EF80E1A
:1015F000E3CFE6FFE3CFE6FFD2EC0CF0080E5A246F
:10160000D96E010E5B20DA6EDE04D8A4CCD7FE0EB4
:10161000E3CF5AF0FF0EE3505A10D8B408D0FA0EB8
:10162000E3CF5AF0FB0EE3505A10D8B4BCD7FA0EF1
:10163000E3CF5AF0FB0EE3CF5BF0FA0EE126FF0E8C
:10164000E2221200E652FB0EE3CF5AF0FC0EE3500A
:101650005A10D8B44AD0FF0EE36A10D0FB0EE35004
:10166000D890E8345A6EFB0E5AC0E3FFFC0EE350EC
:10167000E8345A6EFC0E5AC0E3FFFF0EE32AFC0E5C
:10168000E3AEECD7FB0EE3CF5BF0FC0EE3CF5CF0F8
:10169000FD0EE3CF64F0FE0EE3CF65F05B50645CBB
:1016A0005C506558D8A012D0FD0EE3505A6EFB0E68
:1016B000E3505A5EFD0E5AC0E3FFFE0EE3505A6E31
:1016C000FC0EE3505A5AFE0E5AC0E3FFD890FC0EAF
:1016D000E332FB0EE332FF0EE3505A6E010E5A5E08
:1016E000FF0E5AC0E3FFD8A4CDD7FD0EE3CF5AF0CA
:1016F000FE0EE3CF5BF0FB0EE126FF0EE2221200AE
:10170000E652E652E652E652FE0EE36AFF0EE36A46
:10171000010E5B6E000E5C6EFC0E5BC0E3FFFD0E07
:101720005CC0E3FF110EE66E000EE66EFA0EE3CF2C
:10173000E6FFE3CFE6FFD2EC0CF0080E5A24D96E98
:10174000010E5B20DA6EDE04D8A40FD0FE0EE3504B
:10175000010F5A6EFE0E5AC0E3FF5A6AFF0EE350A5
:101760005A205A6EFF0E5AC0E3FFFC0EE350010FE1
:101770005A6EFC0E5AC0E3FF5A6AFD0EE3505A201F
:101780005A6EFD0E5AC0E3FFFD0EE3BECBD7FD0E31
:10179000E35007E1FC0EE3CF5AF00A0E5A5ED8A0E0
:1017A000C1D7FE0EE3CF5AF0FF0EE3CF5BF0E55258
:1017B000E552E552E5521200B7EC0EF010EC0EF0D7
:1017C0009390D4EC0EF03B0E546E000E556E000E4E
:1017D000576E010E566E3DEC0EF0330E546E000E39
:1017E000556E000E576E010E566E3DEC0EF0000E5B
:1017F000556E020E546E000E576E030E566E3A0E64
:10180000586E1A0E596EE3EC0DF0000E556E030E75
:10181000546E000E576E030E566ECC0E586E1A0E96
:10182000596EE3EC0DF0000E556E040E546E000E72
:10183000576E030E566E640E586E180E596EE3EC1A
:101840000DF0000E556E050E546E000E576E030E11
:10185000566E520E586E1B0E596EE3EC0DF0D7EC1F
:101860000EF0FFD7010EE66E000EE66E040EE66E79
:10187000000EE66E1B0EE66E000EE66E3FEC0AF002
:10188000839E839C83988394838E700EE66E170EDE
:10189000E66E93EC0EF03B0EE66E000EE66EB8ECD4
:1018A00009F0839E838C700EE66E170EE66E93EC45
:1018B0000EF0839C3B0EE66E000EE66E2AEC07F0FF
:1018C000740EE66E1B0EE66E000EE66E7DEC08F002
:1018D0008384700EE66E170EE66E93EC0EF03B0EF0
:1018E000E66E000EE66EB8EC09F083948388700E05
:1018F000E66E170EE66E93EC0EF083983B0EE66EE6
:10190000000EE66E2AEC07F0BFD7E652E652FE0E56
:10191000E36AFF0EE36A37D0110EE66E000EE66E44
:10192000FC0EE3CFE6FFE3CFE6FFD2EC0CF0080EAF
:101930005A24D96E010E5B20DA6E050EDE18D8A48B
:1019400013D0110EE66E000EE66EFC0EE3CFE6FF3E
:10195000E3CFE6FFD2EC0CF0080E5A24D96E010E4C
:101960005B20DA6E010EDF6EFE0EE350010F5A6E41
:10197000FE0E5AC0E3FF5A6AFF0EE3505A205A6E19
:10198000FF0E5AC0E3FFFE0EE3CF5AF019505A5C27
:10199000FF0EE3CF5AF01A505A58D8A0BDD7E552DF
:1019A000E5521200E652E652FA0EE3CF65F0FC0E65
:1019B000E3506502FE0EF3CFE3FFFF0EF4CFE3FF2B
:1019C000FB0EE124D96EFF0EE220DA6EDF50656E69
:1019D000FC0EE3506502F3CFF4FFF36AE150FE0F13
:1019E000D96EE250DA6EFF0EDA22F350DE26F450A2
:1019F000DD22FA0EE3CF65F0FD0EE124D96EFF0E75
:101A0000E220DA6EDF506502F3CFF4FFF36AE150B3
:101A1000FE0FD96EE250DA6EFF0EDA22F350DE26A8
:101A2000F450DD22FE0EE3CF5AF0FF0EE3CF5BF061
:101A3000FA0EE126FF0EE22212008396839C839821
:101A400083908386880EE66E130EE66E93EC0EF09E
:101A50003B0EE66E000EE66EB8EC09F08396838CC2
:101A6000880EE66E130EE66E93EC0EF0839C3B0E32
:101A7000E66E000EE66E2AEC07F02C0EE66E010E06
:101A8000E66E93EC0EF08380880EE66E130EE66E23
:101A900093EC0EF03B0EE66E000EE66EB8EC09F02D
:101AA00083908388880EE66E130EE66E93EC0EF03C
:101AB00083983B0EE66E000EE66E2AEC07F0900E61
:101AC000E66E010EE66E93EC0EF0BBD7839A839C14
:101AD00083988392838A700EE66E170EE66E93ECFF
:101AE0000EF03B0EE66E000EE66EB8EC09F0839A3F
:101AF000838C700EE66E170EE66E93EC0EF0839CF0
:101B00003B0EE66E000EE66E2AEC07F02C0EE66E3B
:101B1000010EE66E93EC0EF08382700EE66E170EE9
:101B2000E66E93EC0EF03B0EE66E000EE66EB8EC41
:101B300009F083928388700EE66E170EE66E93ECC2
:101B40000EF083983B0EE66E000EE66E2AEC07F070
:101B5000C1D7E652949A829A8B9AFF0EE124E66EE0
:101B6000FF0EE220E66E1B0EE66E000EE66E1FEC28
:101B700009F0FF0EE3CF5AF0740E5A18D8A4EDD72F
:101B80008BAA02D0010E01D0000EFF0A656E653AE5
:101B9000654682506518DF0B6518826EE80EE66EAA
:101BA000030EE66E93EC0EF08BAA02D0010E01D06C
:101BB000000EFF0A656E653A654682506518DF0BB8
:101BC0006518826ECAD754C080F055C081F056C0E7
:101BD00082F057C083F058C084F059C085F0000EE1
:101BE00000018D6F000E8C6F010E886F110EE66E76
:101BF000000EE66E19C0E6FF1AC0E6FFD2EC0CF04C
:101C0000000E5A24E96E010E5B20EA6E20EE80F091
:101C1000100EDBCFEBFFE806FCE2194A1A2A12008D
:101C2000AA0E566E010E576E010E556E5468555031
:101C300004E1800E545CD8A011D056C0D9FF57C023
:101C4000DAFF7F0EDF6E7F0E5626000E5722810EC2
:101C50005424546EFF0E5520556EE9D756C0D9FF57
:101C600057C0DAFF54C0DFFF54505624D96E555088
:101C70005720DA6E000EDF6E1200F29E54C0D9FFBC
:101C800055C0DAFF56C0DEFF57C0DDFF140EE66E0A
:101C9000A3EC05F020EE02F05450D9265550DA227C
:101CA0005AC0DEFF5BC0DDFF20EE06F05450D9269F
:101CB0005550DA22000EDE6E000EDD6E20EE04F0CE
:101CC0005450D9265550DA22000EDE6E000EDD6E1D
:101CD000F28E1200B20EF66E1D0EF76E000EF86E4A
:101CE0000900F5CF66F00900F5CF67F001EEAAF024
:101CF00022EE00F0EE6ADD50D950FCE1DA50FAE154
:101D000001EE00F0AA0EEE6AE806FDE100EE01F039
:101D1000420EEE6AE806FDE1000EF86E060EF76E62
:101D20000001DCEF0BF0F29E110EE66E000EE66E87
:101D300017C0E6FF18C0E6FFD2EC0CF0060E5A24DE
:101D4000E96E010E5B20EA6EE150FE0FD96EE250A3
:101D5000DA6EFF0EDA22DECFEEFFDDCFEDFF030EEF
:101D6000E66E03EC03F0F28EE552E5521200D59ACE
:101D7000D596D580D582D584F28CF28AFC0ED66EAB
:101D8000D58E000E556E010E546E000E576E050E68
:101D9000566EB40E586E1D0E596EE3EC0DF0939016
:101DA00010EC0EF0F28E1200000E956E1200D58E21
:061DB00012000400FFD741
:020000040020DA
:08000000FFFFFFFFFFFFFFFF00
:020000040030CA
:0E000000FF071F1FFF8385FF0FC00FE00F409B
:00000001FF
