:0400000006EF00F017
:0C000800AEED05F014EEA6F02FEF0BF0AB
:10060000005069737461204F43555041444100507C
:1006100069737461204C697672650000F29E6E0EFB
:10062000E66E000EE66E0FC0E6FF10C0E6FF36EC89
:1006300009F0F60E3C24D96E000E3D20DA6EFF0E56
:10064000E3CFDFFF6E0EE66E000EE66E0FC0E6FF34
:1006500010C0E6FF36EC09F0590E3C24D96E010EAD
:100660003D20DA6EE0CFDFFF6E0EE66E000EE66E26
:100670000FC0E6FF10C0E6FF36EC09F05A0E3C242E
:10068000D96E010E3D20DA6ED8CFDFFF6E0EE66E1A
:10069000000EE66E0FC0E6FF10C0E6FF36EC09F074
:1006A0005B0E3C24D96E010E3D20DA6EE8CFDFFFF1
:1006B0006E0EE66E000EE66E0FC0E6FF10C0E6FF9F
:1006C00036EC09F0570E3C24D96E010E3D20DA6E4F
:1006D000000EDE6E000EDD6E030EE66E000EE66EA0
:1006E0006E0EE66E000EE66E0FC0E6FF10C0E6FF6F
:1006F00036EC09F0570E3C24D96E010E3D20DA6E1F
:10070000DECF3DF0DDCF3EF03DC0E6FF3EC0E6FF70
:1007100036EC09F03CC044F03DC045F06E0EE66E8C
:10072000000EE66E0FC0E6FF10C0E6FF36EC09F0E3
:10073000EE0E466E000E476E090E4626000E47224C
:100740003C5046263D50472244504624D96E4550E1
:100750004720DA6EFFCFDFFF030EE66E000EE66E77
:100760006E0EE66E000EE66E0FC0E6FF10C0E6FFEE
:1007700036EC09F0570E3C24D96E010E3D20DA6E9E
:10078000DECF3DF0DDCF3EF03DC0E6FF3EC0E6FFF0
:1007900036EC09F03CC044F03DC045F06E0EE66E0C
:1007A000000EE66E0FC0E6FF10C0E6FF36EC09F063
:1007B000EE0E466E000E476E0A0E4626000E4722CB
:1007C0003C5046263D50472244504624D96E455061
:1007D0004720DA6EFDCFDFFF030EE66E000EE66EF9
:1007E0006E0EE66E000EE66E0FC0E6FF10C0E6FF6E
:1007F00036EC09F0570E3C24D96E010E3D20DA6E1E
:10080000DECF3DF0DDCF3EF03DC0E6FF3EC0E6FF6F
:1008100036EC09F03CC044F03DC045F06E0EE66E8B
:10082000000EE66E0FC0E6FF10C0E6FF36EC09F0E2
:10083000EE0E466E000E476E0B0E4626000E472249
:100840003C5046263D50472244504624D96E4550E0
:100850004720DA6EFECFDFFF6E0EE66E000EE66E0C
:100860000FC0E6FF10C0E6FF36EC09F0570E3C243F
:10087000D96E010E3D20DA6EDE2A000EDD22060062
:10088000FC50D8A429D7C6EC09F03CC00FF03DC0FD
:1008900010F0FC6A6E0EE66E000EE66E0FC0E6FF0C
:1008A00010C0E6FF36EC09F0570E3C24D96E010E5D
:1008B0003D20DA6EDE50DE10D8A41BD005006E0E8F
:1008C000E66E000EE66E0FC0E6FF10C0E6FF36ECE7
:1008D00009F0F20E3C24D96E000E3D20DA6EDECF18
:1008E0003DF0DDCF3EF03DC0FDFF3EC0FEFFFF6AA4
:1008F0001FD16E0EE66E000EE66E0FC0E6FF10C052
:10090000E6FF36EC09F0590E3C24D96E010E3D206D
:10091000DA6EDF50E06E6E0EE66E000EE66E0FC011
:10092000E6FF10C0E6FF36EC09F05A0E3C24D96E03
:10093000010E3D20DA6EDF50D86E6E0EE66E000EB0
:10094000E66E0FC0E6FF10C0E6FF36EC09F05B0E66
:100950003C24D96E010E3D20DA6EDF50476E4750C1
:1009600005006E0EE66E000EE66E0FC0E6FF10C0CC
:10097000E6FF36EC09F0570E3C24D96E010E3D20FF
:10098000DA6EDE06000EDD5A030EE66E000EE66E2F
:100990006E0EE66E000EE66E0FC0E6FF10C0E6FFBC
:1009A00036EC09F0570E3C24D96E010E3D20DA6E6C
:1009B000DECF3DF0DDCF3EF03DC0E6FF3EC0E6FFBE
:1009C00036EC09F03CC044F03DC045F06E0EE66EDA
:1009D000000EE66E0FC0E6FF10C0E6FF36EC09F031
:1009E000EE0E466E000E476E090E4626000E47229A
:1009F0003C5046263D50472244504624D96E45502F
:100A00004720DA6EDF50FF6E030EE66E000EE66ED4
:100A10006E0EE66E000EE66E0FC0E6FF10C0E6FF3B
:100A200036EC09F0570E3C24D96E010E3D20DA6EEB
:100A3000DECF3DF0DDCF3EF03DC0E6FF3EC0E6FF3D
:100A400036EC09F03CC044F03DC045F06E0EE66E59
:100A5000000EE66E0FC0E6FF10C0E6FF36EC09F0B0
:100A6000EE0E466E000E476E0A0E4626000E472218
:100A70003C5046263D50472244504624D96E4550AE
:100A80004720DA6EDF50FD6E030EE66E000EE66E56
:100A90006E0EE66E000EE66E0FC0E6FF10C0E6FFBB
:100AA00036EC09F0570E3C24D96E010E3D20DA6E6B
:100AB000DECF3DF0DDCF3EF03DC0E6FF3EC0E6FFBD
:100AC00036EC09F03CC044F03DC045F06E0EE66ED9
:100AD000000EE66E0FC0E6FF10C0E6FF36EC09F030
:100AE000EE0E466E000E476E0B0E4626000E472297
:100AF0003C5046263D50472244504624D96E45502E
:100B00004720DA6EDF50FE6E6E0EE66E000EE66E69
:100B10000FC0E6FF10C0E6FF36EC09F0570E3C248C
:100B2000D96E010E3D20DA6EDE50DE10D8A418D743
:100B30006E0EE66E000EE66E0FC0E6FF10C0E6FF1A
:100B400036EC09F0F60E3C24D96E000E3D20DA6E2C
:100B5000020EDF6EF28EF28EE55212000600E1CF39
:100B600023F0E2CF24F0D9CF25F0DACF26F0F3CF6F
:100B700027F0F4CF28F03CC029F03DC02AF03EC059
:100B80002BF044C02CF045C02DF046C02EF047C0DD
:100B90002FF015EE1AF0F2A47CD0F294FC0ED66E73
:100BA000000E316E010E306E5FD06E0EE66E000EDE
:100BB000E66E30C0E6FF31C0E6FF36EC09F0080E05
:100BC0003C26000E3D22EE0E3C24D96E000E3D2048
:100BD000DA6E030EDE18D8A445D06E0EE66E000E57
:100BE000E66E30C0E6FF31C0E6FF36EC09F0060ED7
:100BF0003C26000E3D22EE0E3C24D96E000E3D2018
:100C0000DA6EDE06000EDD5A6E0EE66E000EE66E41
:100C100030C0E6FF31C0E6FF36EC09F0060E3C2698
:100C2000000E3D22EE0E3C24D96E000E3D20DA6E01
:100C3000DE50DE10D8A416D06E0EE66E000EE66E04
:100C400030C0E6FF31C0E6FF36EC09F0080E3C2666
:100C5000000E3D22EE0E3C24D96E000E3D20DA6ED1
:100C6000010EDF6E304A312A1150305C125031587B
:100C7000D8A09BD74806D8A0490648504910D8A408
:100C800008D0000E496E040E486E010EE66E0EECA2
:100C900003F02FC047F02EC046F02DC045F02CC009
:100CA00044F02BC03EF02AC03DF029C03CF028C0E3
:100CB000F4FF27C0F3FF26C0DAFF25C0D9FF24C008
:100CC000E2FF23C0E1FF1100F29EFE0EE3CFD9FF49
:100CD000FF0EE3CFDAFFDE2A000EDD22FE0EE3CFA9
:100CE000D9FFFF0EE3CFDAFF010EDBBE06D0010E07
:100CF000DB507CE1DE04D8B079D06E0EE66E000EDB
:100D0000E66EFC0EE3CF3DF0FD0EE3CF3EF00C0EA1
:100D10003D24D96E000E3E20DA6EDECF46F0DDCFE8
:100D200047F0D89046343D6E47343E6EFC0EE3509B
:100D30003D26FD0EE3503E22020E3D24D96E000EEC
:100D40003E20DA6EDECF3DF0DDCF3EF03DC0E6FF67
:100D50003EC0E6FF36EC09F0F60E3C24D96E000EDC
:100D60003D20DA6E010EDF6EFE0EE3CF3DF0FF0E8A
:100D7000E3CF3EF00A0E3D24D96E000E3E20DA6E1F
:100D8000DECF3DF0DDCF3EF03DC0E6FF3EC0E6FFEA
:100D9000FC0EE3CF3DF0FD0EE3CF3EF00C0E3D2404
:100DA000D96E000E3E20DA6EDECF3DF0DDCF3EF094
:100DB000010E3D26000E3E223DC0E6FF3EC0E6FF8E
:100DC00036EC08F0FE0EE3CF46F0FF0EE3CF47F01F
:100DD0000C0E4624D96E000E4720DA6E3CC0DEFFB2
:100DE0003DC0DDFF010EE66E0EEC03F0F28EE55223
:100DF000E5521200E652E652E652E652949A829A80
:100E00009498829894968296880E3D6E130E3E6E4C
:100E1000FE0E3DC0E3FFFF0E3EC0E3FFE80E3D6E59
:100E2000030E3E6EFC0E3DC0E3FFFD0E3EC0E3FF31
:100E30008288FE0EE3CFE6FFE3CFE6FF0BEC0BF07C
:100E4000130EE66E000EE66E69EC07F08298828A59
:100E5000880EE66E130EE66E0BEC0BF0FC0EE3CF85
:100E6000E6FFE3CFE6FF0BEC0BF0829AD00EE66EC6
:100E7000070EE66E0BEC0BF0130EE66E000EE66E40
:100E800064EC06F0580EE66E020EE66E0BEC0BF00C
:100E9000130EE66E000EE66E69EC07F08286500EC9
:100EA000E66E140EE66E0BEC0BF08296C40EE66E48
:100EB000090EE66E0BEC0BF0130EE66E000EE66EFE
:100EC00064EC06F0240EE66E090EE66E0BEC0BF0F9
:100ED000AFD7F29EFE0EE3CFD9FFFF0EE3CFDAFFCE
:100EE000DE06000EDD5AFE0EE3CFD9FFFF0EE3CF84
:100EF000DAFF010EDBAE51D0FE0EE3CF3DF0FF0E68
:100F0000E3CF3EF00A0E3D24D96E000E3E20DA6E8D
:100F1000DECF46F0DDCF47F0D89046343D6E473403
:100F20003E6EFE0EE3503D26FF0EE3503E22020EC3
:100F30003D24D96E000E3E20DA6E0FC0DEFF10C0D9
:100F4000DDFFFE0EE3CF3DF0FF0EE3CF3EF00A0ED5
:100F50003D24D96E000E3E20DA6EDECF3DF0DDCFAF
:100F60003EF0010E3D26000E3E22030E3D16000E01
:100F70003E16FE0EE3CF46F0FF0EE3CF47F00A0E1B
:100F80004624D96E000E4720DA6E3DC0DEFF3EC01B
:100F9000DDFF050EE66E0EEC03F0F28EE552E55233
:100FA0001200E652E652E652E652949C829CE80E0B
:100FB0003D6E030E3E6EFE0E3DC0E3FFFF0E3EC0D3
:100FC000E3FF700E3D6E170E3E6EFC0E3DC0E3FF5C
:100FD000FD0E3EC0E3FF828CFC0EE3CFE6FFE3CFC5
:100FE000E6FF0BEC0BF0130EE66E000EE66E69ECFE
:100FF00007F0829C828AFE0EE3CFE6FFE3CFE6FF96
:101000000BEC0BF0829A580EE66E020EE66E0BECBD
:101010000BF0130EE66E000EE66E64EC06F0580E52
:10102000E66E020EE66E0BEC0BF0130EE66E000E93
:10103000E66E69EC07F08286680EE66E100EE66ECC
:101040000BEC0BF08296E20EE66E040EE66E0BECF5
:101050000BF0130EE66E000EE66E64EC06F0FC0E6E
:10106000E66E080EE66E0BEC0BF0B5D7E652FB0E03
:10107000E3CF3CF0FC0EE3503C10D8B44AD0FF0E56
:10108000E36A10D0FB0EE350D890E8343C6EFB0EC0
:101090003CC0E3FFFC0EE350E8343C6EFC0E3CC069
:1010A000E3FFFF0EE32AFC0EE3AEECD7FB0EE3CF2B
:1010B0003DF0FC0EE3CF3EF0FD0EE3CF46F0FE0E1A
:1010C000E3CF47F03D50465C3E504758D8A012D081
:1010D000FD0EE3503C6EFB0EE3503C5EFD0E3CC04B
:1010E000E3FFFE0EE3503C6EFC0EE3503C5AFE0E56
:1010F0003CC0E3FFD890FC0EE332FB0EE332FF0E60
:10110000E3503C6E010E3C5EFF0E3CC0E3FFD8A4F2
:10111000CDD7FD0EE3CF3CF0FE0EE3CF3DF0FB0E4E
:10112000E126FF0EE2221200949E829E1B0E336E79
:10113000580E326E030E356EE80E346E828E32C05B
:10114000E6FF33C0E6FF0BEC0BF0130EE66E000E6D
:10115000E66E69EC07F0829E828A34C0E6FF35C0F5
:10116000E6FF0BEC0BF0829A580EE66E020EE66E6E
:101170000BEC0BF0130EE66E000EE66E64EC06F060
:10118000580EE66E020EE66E0BEC0BF0130EE66EDA
:10119000000EE66E69EC07F082864C0EE66E1D0EC0
:1011A000E66E0BEC0BF08296DC0EE66E050EE66E3C
:1011B0000BEC0BF0130EE66E000EE66E64EC06F020
:1011C000E80EE66E030EE66E0BEC0BF0B7D7060EDC
:1011D000E126000EE22220EE13F00E0EDECFE6FF37
:1011E000E82CFCD7CBEC0BF0FE0E3CC0E3FFFF0E6F
:1011F0003DC0E3FFFE0EE3CF3CF0FF0EE3503C109A
:10120000D8A41AD0010EE66E060EE66E81EC09F047
:10121000FC0EE36AFD0EE36AFC0EE350010F3C6E28
:10122000FC0E3CC0E3FF3C6AFD0EE3503C203C6EEC
:10123000FD0E3CC0E3FFF0D70F0EE66E060EE66E25
:1012400081EC09F0FA0EE36AFB0EE36AFA0EE35052
:10125000010F3C6EFA0E3CC0E3FF3C6AFB0EE3500C
:101260003C203C6EFB0E3CC0E3FFF0D7E652E6525A
:10127000FA0EE3CF47F0FC0EE3504702FE0EF3CF29
:10128000E3FFFF0EF4CFE3FFFB0EE124D96EFF0E68
:10129000E220DA6EDF50476EFC0EE3504702F3CFD8
:1012A000F4FFF36AE150FE0FD96EE250DA6EFF0EE2
:1012B000DA22F350DE26F450DD22FA0EE3CF47F0B7
:1012C000FD0EE124D96EFF0EE220DA6EDF504702F8
:1012D000F3CFF4FFF36AE150FE0FD96EE250DA6EFD
:1012E000FF0EDA22F350DE26F450DD22FE0EE3CFAD
:1012F0003CF0FF0EE3CF3DF0FA0EE126FF0EE222B6
:101300001200E652E652FE0EE36AFF0EE36A24D0B4
:10131000FC0EE3CF3DF0FD0EE3CF3EF0FE0EE350BA
:101320003D26FF0EE3503E223DC0F6FF3EC0F7FFD4
:101330000800F550E66E7DEC0AF0FE0EE350010F5A
:101340003C6EFE0E3CC0E3FF3C6AFF0EE3503C20C7
:101350003C6EFF0E3CC0E3FFFC0EE3CF3DF0FD0E04
:10136000E3CF3EF0FE0EE3503D26FF0EE3503E225B
:101370003DC0F6FF3EC0F7FF0800F5500009D8A4B5
:10138000C7D7E552E552E552E5521200E652E65261
:101390000FC03DF010C03EF0FE0E3DC0E3FFFF0E5B
:1013A0003EC0E3FF11C0E6FF12C0E6FFFC0EE350B3
:1013B000010F3D6EFD0EE3CF3EF0000E3E223DC01C
:1013C000E6FF3EC0E6FF36EC08F0FE0E3CC0E3FF51
:1013D000FF0E3DC0E3FF6E0EE66E000EE66EFC0EE5
:1013E000E3CFE6FFE3CFE6FF36EC09F0F60E3C2450
:1013F000D96E000E3D20DA6EDE04D8A4D3D7FE0EDF
:10140000E3CF3CF0FF0EE3CF3DF0E552E552120092
:1014100052EC0BF0DEEC0AF0130E366E000E376E57
:10142000000E396E010E386E71EC0BF0000E376E47
:10143000010E366E000E396E030E386EF40E3A6EE3
:101440000D0E3B6EB1EC0AF0000E376E020E366EDA
:10145000000E396E010E386EA20E3A6E0F0E3B6E04
:10146000B1EC0AF0000E376E040E366E000E396EC7
:10147000040E386ECE0E3A6E110E3B6EB1EC0AF0D1
:10148000D6EC0BF0FFD7000EE66E90EC0BF01A0EC8
:10149000386EF80EE82EFED7382EFCD700D0030E9B
:1014A000AAEC0BF0070E386E7D0EE82EFED7382E14
:1014B000FCD700F0030EAAEC0BF00F0E386E480EAE
:1014C000E82EFED7382EFCD7030EAAEC0BF0020E46
:1014D000AAEC0BF0020EAAEC0BF0080EAAEC0BF033
:1014E000000EAAEC0BF00C0EAAEC0BF0000EAAEC0E
:1014F0000BF0060EAAEC0BF01200E652E652FD0EBF
:10150000E3CF47F00F0E4716FF0E47C0E3FFFD0E77
:10151000E3CF47F0F00E4716FE0E47C0E3FF83848B
:10152000FE0EE3CF47F047380F0BE66E90EC0BF062
:101530008386140EE66E000EE66E0BEC0BF08396BF
:10154000FF0EE350E66E90EC0BF08386140EE66E11
:10155000000EE66E0BEC0BF08396E552E552E55279
:10156000120036C080F037C081F038C082F039C038
:1015700083F03AC084F03BC085F0000E0001EA6FB2
:10158000000EE96F010E886F6E0EE66E000EE66EBD
:1015900011C0E6FF12C0E6FF36EC09F0EE0E3C2467
:1015A000E96E000E3D20EA6E20EE80F06D0EDBCF7E
:1015B000EBFFE806FCE2114A122A1200A60E386E72
:1015C000020E396E010E376E3668375004E1800E18
:1015D000365CD8A011D038C0D9FF39C0DAFF7F0EF1
:1015E000DF6E7F0E3826000E3922810E3624366ECD
:1015F000FF0E3720376EE9D738C0D9FF39C0DAFF80
:1016000036C0DFFF36503824D96E37503920DA6EB5
:10161000000EDF6E1200F29E6E0EE66E000EE66E9B
:101620000FC0E6FF10C0E6FF36EC09F0F40E3C24D4
:10163000E96E000E3D20EA6EE150FE0FD96EE250D9
:10164000DA6EFF0EDA22DECFEEFFDDCFEDFF030E06
:10165000E66E0EEC03F0F28EE552E5521200B00E8B
:10166000F66E170EF76E000EF86E0900F5CF48F013
:101670000900F5CF49F000EEEEF023EEB8F0EE6A87
:10168000DD50D950FCE1DA50FAE100EE01F0200E15
:10169000EE6AE806FDE1000EF86E060EF76E000138
:1016A00008EF0AF0D59AD596D580D582D584F28CEC
:1016B000F28AFC0ED66E000E376E010E366E000EEC
:1016C000396E050E386E760E3A6E170E3B6EB1EC23
:1016D0000AF0000E956E43EC0AF0DEEC0AF0F28E92
:1016E0001200F29E36C0D9FF37C0DAFF38C0DEFFE5
:1016F00039C0DDFF20EE0AF03650D9263750DA2205
:10170000000EDE6E000EDD6E20EE0CF03650D92697
:101710003750DA22000EDE6E000EDD6EF28E120001
:10172000FF0EE3A002D0838801D08398FF0EE3A2CE
:1017300002D0838A01D0839AFF0EE3A402D0838C67
:1017400001D0839CFF0EE3A602D0838E01D0839E3E
:10175000E5521200376E83943750E66E90EC0BF032
:101760008386060E366E300EE82EFED7362EFCD758
:1017700000D083961200959883A802D0010E01D064
:10178000000EFF0A476E473A83504718EF0B471881
:10179000836E00F0F1D7F20EE3CF3CF0F30EE3CF0F
:1017A0003DF0F20EE126FF0EE2221200D58E12006D
:0217B000040033
:020000040020DA
:08000000FFFFFFFFFFFFFFFF00
:020000040030CA
:0E000000FF071F1FFF8385FF0FC00FE00F409B
:00000001FF
