:0400000006EF00F017
:0C000800A3ED05F013EEAAF0ADEF0BF035
:10060000001F00610000F29E110EE66E000EE66E05
:1006100003C0E6FF04C0E6FF01EC0AF0080E542414
:10062000D96E010E5520DA6EFF0EE3CFDFFF110EFB
:10063000E66E000EE66E03C0E6FF04C0E6FF01ECC6
:100640000AF00E0E5424D96E010E5520DA6EE0CF5A
:10065000DFFF110EE66E000EE66E03C0E6FF04C07B
:10066000E6FF01EC0AF00F0E5424D96E010E55205E
:10067000DA6ED8CFDFFF110EE66E000EE66E03C015
:10068000E6FF04C0E6FF01EC0AF0100E5424D96E18
:10069000010E5520DA6EE8CFDFFF110EE66E000E78
:1006A000E66E03C0E6FF04C0E6FF01EC0AF00C0EA4
:1006B0005424D96E010E5520DA6E000EDE6E000E47
:1006C000DD6E030EE66E000EE66E110EE66E000E97
:1006D000E66E03C0E6FF04C0E6FF01EC0AF00C0E74
:1006E0005424D96E010E5520DA6EDECF55F0DDCFE1
:1006F00056F055C0E6FF56C0E6FF01EC0AF054C0C4
:100700005CF055C05DF0110EE66E000EE66E03C0A3
:10071000E6FF04C0E6FF01EC0AF0000E5E6E010E7B
:100720005F6E090E5E26000E5F2254505E26555005
:100730005F225C505E24D96E5D505F20DA6EFFCF81
:10074000DFFF030EE66E000EE66E110EE66E000E83
:10075000E66E03C0E6FF04C0E6FF01EC0AF00C0EF3
:100760005424D96E010E5520DA6EDECF55F0DDCF60
:1007700056F055C0E6FF56C0E6FF01EC0AF054C043
:100780005CF055C05DF0110EE66E000EE66E03C023
:10079000E6FF04C0E6FF01EC0AF0000E5E6E010EFB
:1007A0005F6E0A0E5E26000E5F2254505E26555084
:1007B0005F225C505E24D96E5D505F20DA6EFDCF03
:1007C000DFFF030EE66E000EE66E110EE66E000E03
:1007D000E66E03C0E6FF04C0E6FF01EC0AF00C0E73
:1007E0005424D96E010E5520DA6EDECF55F0DDCFE0
:1007F00056F055C0E6FF56C0E6FF01EC0AF054C0C3
:100800005CF055C05DF0110EE66E000EE66E03C0A2
:10081000E6FF04C0E6FF01EC0AF0000E5E6E010E7A
:100820005F6E0B0E5E26000E5F2254505E26555002
:100830005F225C505E24D96E5D505F20DA6EFECF81
:10084000DFFF110EE66E000EE66E03C0E6FF04C089
:10085000E6FF01EC0AF00C0E5424D96E010E55206F
:10086000DA6EDE2A000EDD220600FC50D8A429D75D
:1008700094EC0AF054C003F055C004F0FC6A110E69
:10088000E66E000EE66E03C0E6FF04C0E6FF01EC74
:100890000AF00C0E5424D96E010E5520DA6EDE508B
:1008A000DE10D8A41BD00500110EE66E000EE66E19
:1008B00003C0E6FF04C0E6FF01EC0AF0040E542476
:1008C000D96E010E5520DA6EDECF55F0DDCF56F031
:1008D00055C0FDFF56C0FEFFFF6A1FD1110EE66E28
:1008E000000EE66E03C0E6FF04C0E6FF01EC0AF06E
:1008F0000E0E5424D96E010E5520DA6EDF50E06ED4
:10090000110EE66E000EE66E03C0E6FF04C0E6FFC1
:1009100001EC0AF00F0E5424D96E010E5520DA6E48
:10092000DF50D86E110EE66E000EE66E03C0E6FFD5
:1009300004C0E6FF01EC0AF0100E5424D96E010E3B
:100940005520DA6EDF505F6E5F500500110EE66EC7
:10095000000EE66E03C0E6FF04C0E6FF01EC0AF0FD
:100960000C0E5424D96E010E5520DA6EDE06000EF0
:10097000DD5A030EE66E000EE66E110EE66E000EF8
:10098000E66E03C0E6FF04C0E6FF01EC0AF00C0EC1
:100990005424D96E010E5520DA6EDECF55F0DDCF2E
:1009A00056F055C0E6FF56C0E6FF01EC0AF054C011
:1009B0005CF055C05DF0110EE66E000EE66E03C0F1
:1009C000E6FF04C0E6FF01EC0AF0000E5E6E010EC9
:1009D0005F6E090E5E26000E5F2254505E26555053
:1009E0005F225C505E24D96E5D505F20DA6EDF506E
:1009F000FF6E030EE66E000EE66E110EE66E000E42
:100A0000E66E03C0E6FF04C0E6FF01EC0AF00C0E40
:100A10005424D96E010E5520DA6EDECF55F0DDCFAD
:100A200056F055C0E6FF56C0E6FF01EC0AF054C090
:100A30005CF055C05DF0110EE66E000EE66E03C070
:100A4000E6FF04C0E6FF01EC0AF0000E5E6E010E48
:100A50005F6E0A0E5E26000E5F2254505E265550D1
:100A60005F225C505E24D96E5D505F20DA6EDF50ED
:100A7000FD6E030EE66E000EE66E110EE66E000EC3
:100A8000E66E03C0E6FF04C0E6FF01EC0AF00C0EC0
:100A90005424D96E010E5520DA6EDECF55F0DDCF2D
:100AA00056F055C0E6FF56C0E6FF01EC0AF054C010
:100AB0005CF055C05DF0110EE66E000EE66E03C0F0
:100AC000E6FF04C0E6FF01EC0AF0000E5E6E010EC8
:100AD0005F6E0B0E5E26000E5F2254505E26555050
:100AE0005F225C505E24D96E5D505F20DA6EDF506D
:100AF000FE6E110EE66E000EE66E03C0E6FF04C049
:100B0000E6FF01EC0AF00C0E5424D96E010E5520BC
:100B1000DA6EDE50DE10D8A418D7110EE66E000E85
:100B2000E66E03C0E6FF04C0E6FF01EC0AF0080E23
:100B30005424D96E010E5520DA6E020EDF6EF28E4D
:100B4000F28EE55212000600E1CF2EF0E2CF2FF038
:100B5000D9CF30F0DACF31F0F3CF32F0F4CF33F039
:100B600054C034F055C035F056C036F05CC037F094
:100B70005DC038F05EC039F05FC03AF014EE72F03C
:100B8000F2A47CD0F294FC0ED66E000E3C6E010EE8
:100B90003B6E5FD0110EE66E000EE66E3BC0E6FFC8
:100BA0003CC0E6FF01EC0AF0080E5426000E552268
:100BB000000E5424D96E010E5520DA6E030EDE1895
:100BC000D8A445D0110EE66E000EE66E3BC0E6FFDF
:100BD0003CC0E6FF01EC0AF0060E5426000E55223A
:100BE000000E5424D96E010E5520DA6EDE06000E7A
:100BF000DD5A110EE66E000EE66E3BC0E6FF3CC00D
:100C0000E6FF01EC0AF0060E5426000E5522000EF7
:100C10005424D96E010E5520DA6EDE50DE10D8A4B1
:100C200016D0110EE66E000EE66E3BC0E6FF3CC02D
:100C3000E6FF01EC0AF0080E5426000E5522000EC5
:100C40005424D96E010E5520DA6E010EDF6E3B4A38
:100C50003C2A05503B5C06503C58D8A09BD7600608
:100C6000D8A0610660506110D8A408D0000E616E53
:100C7000040E606E010EE66E03EC03F03AC05FF006
:100C800039C05EF038C05DF037C05CF036C056F059
:100C900035C055F034C054F033C0F4FF32C0F3FF18
:100CA00031C0DAFF30C0D9FF2FC0E2FF2EC0E1FF14
:100CB0001100E652F29EFD0EE3CF55F0FE0EE3CF9B
:100CC00056F0050E5524D96E000E5620DA6EDE5011
:100CD000DE10D8A414D0FD0EE3CF55F0FE0EE3CF06
:100CE00056F0070E5524D96E000E5620DA6E03C05A
:100CF000DEFF04C0DDFF050EE66E03EC03F0FD0E23
:100D0000E3CF55F0FE0EE3CF56F0010E5524D96E19
:100D1000000E5620DA6EDECF55F0DDCF56F0FD0E18
:100D2000E3CF5EF0FE0EE3CF5FF055505E24D96E48
:100D300056505F20DA6EDF505F6EFF0E5FC0E3FF3C
:100D4000FD0EE3CF55F0FE0EE3CF56F0010E552415
:100D5000D96E000E5620DA6E000EDE6E000EDD6ECD
:100D6000FD0EE3CF55F0FE0EE3CF56F0050E5524F1
:100D7000D96E000E5620DA6EDE06000EDD5AFD0E2C
:100D8000E3CF55F0FE0EE3CF56F0090E5524D96E91
:100D9000000E5620DA6EDE50DE10D8B432D0110EBE
:100DA000E66E000EE66EFB0EE3CF55F0FC0EE3CFD1
:100DB00056F0090E5524D96E000E5620DA6EDECF9D
:100DC00055F0DDCF56F055C0E6FF56C0E6FF01EC0A
:100DD0000AF0080E5424D96E010E5520DA6E010E69
:100DE000DF6EFD0EE3CF55F0FE0EE3CF56F0090E99
:100DF0005524D96E000E5620DA6E000EDE6E000EFF
:100E0000DD6EF28EFF0EE3CF54F0E552E552E5526F
:100E10001200F29EFE0EE3CF55F0FF0EE3CF56F028
:100E2000050E5524D96E000E5620DA6EDE04DE1053
:100E3000D8A414D0FE0EE3CF55F0FF0EE3CF56F04A
:100E4000090E5524D96E000E5620DA6E03C0DEFF5F
:100E500004C0DDFF050EE66E03EC03F0FE0EE3CFEB
:100E600055F0FF0EE3CF56F0030E5524D96E000E59
:100E70005620DA6EDECF55F0DDCF56F0FE0EE3CF12
:100E80005EF0FF0EE3CF5FF055505E24D96E5650F2
:100E90005F20DA6EFD0EE3CFDFFFFE0EE3CF55F0ED
:100EA000FF0EE3CF56F0030E5524D96E000E5620E8
:100EB000DA6E000EDE6E000EDD6EFE0EE3CF55F034
:100EC000FF0EE3CF56F0050E5524D96E000E5620C6
:100ED000DA6EDE2A000EDD22FE0EE3CF55F0FF0EA5
:100EE000E3CF56F0070E5524D96E000E5620DA6E69
:100EF000DE50DE10D8B432D0110EE66E000EE66E73
:100F0000FC0EE3CF55F0FD0EE3CF56F0070E55244F
:100F1000D96E000E5620DA6EDECF55F0DDCF56F0DA
:100F200055C0E6FF56C0E6FF01EC0AF0080E542457
:100F3000D96E010E5520DA6E010EDF6EFE0EE3CF84
:100F400055F0FF0EE3CF56F0070E5524D96E000E74
:100F50005620DA6E000EDE6E000EDD6EF28EE55269
:100F6000E552E5521200F29EFE0EE3CFD9FFFF0ECE
:100F7000E3CFDAFFDE2A000EDD22FE0EE3CFD9FF3B
:100F8000FF0EE3CFDAFF010EDBBE06D0010EDB5011
:100F90007CE1DE04D8B079D0110EE66E000EE66E6C
:100FA000FC0EE3CF55F0FD0EE3CF56F0180E55249E
:100FB000D96E000E5620DA6EDECF5EF0DDCF5FF028
:100FC000D8905E34556E5F34566EFC0EE350552655
:100FD000FD0EE3505622020E5524D96E000E562007
:100FE000DA6EDECF55F0DDCF56F055C0E6FF56C0C5
:100FF000E6FF01EC0AF0080E5424D96E010E5520CC
:10100000DA6E010EDF6EFE0EE3CF55F0FF0EE3CF7A
:1010100056F0160E5524D96E000E5620DA6EDECF2D
:1010200055F0DDCF56F055C0E6FF56C0E6FFFC0E8A
:10103000E3CF55F0FD0EE3CF56F0180E5524D96ED0
:10104000000E5620DA6EDECF55F0DDCF56F0010EE1
:101050005526000E562255C0E6FF56C0E6FFB7ECF7
:1010600008F0FE0EE3CF5EF0FF0EE3CF5FF0180E48
:101070005E24D96E000E5F20DA6E54C0DEFF55C0CC
:10108000DDFF010EE66E03EC03F0F28EE552E55251
:101090001200F29EFE0EE3CFD9FFFF0EE3CFDAFF80
:1010A000DE06000EDD5AFE0EE3CFD9FFFF0EE3CFC2
:1010B000DAFF010EDBAE57D0FE0EE3CF55F0FF0E88
:1010C000E3CF56F0160E5524D96E000E5620DA6E78
:1010D000DECF5EF0DDCF5FF0D8905E34556E5F34CA
:1010E000566EFE0EE3505526FF0EE3505622020EBA
:1010F0005524D96E000E5620DA6E03C0DEFF04C000
:10110000DDFF0A0EE66E000EE66EFC0EE3CF55F034
:10111000FD0EE3CF56F0160E5524D96E000E562064
:10112000DA6EDECF55F0DDCF56F0010E5526000EFB
:10113000562255C0E6FF56C0E6FFB7EC08F0FE0E9B
:10114000E3CF5EF0FF0EE3CF5FF0160E5E24D96EA4
:10115000000E5F20DA6E54C0DEFF55C0DDFF040EC6
:10116000E66E03EC03F0F28EE552E5521200E65211
:10117000FB0EE3CF54F0FC0EE3505410D8B44AD029
:10118000FF0EE36A10D0FB0EE350D890E834546EA3
:10119000FB0E54C0E3FFFC0EE350E834546EFC0E2B
:1011A00054C0E3FFFF0EE32AFC0EE3AEECD7FB0EC8
:1011B000E3CF55F0FC0EE3CF56F0FD0EE3CF5EF02B
:1011C000FE0EE3CF5FF055505E5C56505F58D8A0DE
:1011D00012D0FD0EE350546EFB0EE350545EFD0E34
:1011E00054C0E3FFFE0EE350546EFC0EE350545A1D
:1011F000FE0E54C0E3FFD890FC0EE332FB0EE33248
:10120000FF0EE350546E010E545EFF0E54C0E3FF18
:10121000D8A4CDD7FD0EE3CF54F0FE0EE3CF55F0AA
:10122000FB0EE126FF0EE2221200FE0EE3CF55F088
:10123000FF0EE3CF56F0010E5524D96E000E562056
:10124000DA6E000EDE6E000EDD6EFE0EE3CF55F0A0
:10125000FF0EE3CF56F0030E5524D96E000E562034
:10126000DA6E000EDE6E000EDD6EFE0EE3CF55F080
:10127000FF0EE3CF56F0050E5524D96E000E562012
:10128000DA6E000EDE6E000EDD6EFE0EE3CF55F060
:10129000FF0EE3CF56F0070E5524D96E000E5620F0
:1012A000DA6E000EDE6E000EDD6EFE0EE3CF55F040
:1012B000FF0EE3CF56F0090E5524D96E000E5620CE
:1012C000DA6E000EDE6E000EDD6EE552E5521200A3
:1012D0008396839C839883908386880EE66E130E94
:1012E000E66ED6EC0BF0070EE66E000EE66E49ECED
:1012F00008F08396838C880EE66E130EE66ED6ECAD
:101300000BF0839C070EE66E000EE66EB3EC07F062
:101310002C0EE66E010EE66ED6EC0BF0014A022AA8
:101320008380880EE66E130EE66ED6EC0BF0070E89
:10133000E66E000EE66E49EC08F083900106D8A038
:1013400002068388880EE66E130EE66ED6EC0BF06E
:101350008398070EE66E000EE66EB3EC07F0900E73
:10136000E66E010EE66ED6EC0BF0B6D719EC0CF07B
:1013700054EC0BF044EC0CF0070E3D6E000E3E6E8C
:10138000000E406E010E3F6EFAEC0BF0000E3E6E4A
:10139000020E3D6E000E406E030E3F6ED00E416E8B
:1013A000120E426E81EC0BF0000E3E6E030E3D6E8F
:1013B000000E406E030E3F6E980E416E140E426E8C
:1013C00081EC0BF0000E3E6E050E3D6E000E406E81
:1013D000030E3F6E6A0E416E180E426E81EC0BF0EA
:1013E000000E3E6E060E3D6E000E406E030E3F6E0A
:1013F000300E416E160E426E81EC0BF047EC0CF095
:10140000FFD7E652E652FA0EE3CF5FF0FC0EE35050
:101410005F02FE0EF3CFE3FFFF0EF4CFE3FFFB0E00
:10142000E124D96EFF0EE220DA6EDF505F6EFC0E13
:10143000E3505F02F3CFF4FFF36AE150FE0FD96E81
:10144000E250DA6EFF0EDA22F350DE26F450DD228F
:10145000FA0EE3CF5FF0FD0EE124D96EFF0EE2201D
:10146000DA6EDF505F02F3CFF4FFF36AE150FE0F54
:10147000D96EE250DA6EFF0EDA22F350DE26F45017
:10148000DD22FE0EE3CF54F0FF0EE3CF55F0FA0E4F
:10149000E126FF0EE2221200839A839C83988392B6
:1014A000838A700EE66E170EE66ED6EC0BF0070E12
:1014B000E66E000EE66E49EC08F0839A838C700E9F
:1014C000E66E170EE66ED6EC0BF0839C070EE66E0A
:1014D000000EE66EB3EC07F02C0EE66E010EE66E23
:1014E000D6EC0BF08382014A022A700EE66E170ECC
:1014F000E66ED6EC0BF0070EE66E000EE66E49ECDB
:1015000008F083920106D8A002068388700EE66E6A
:10151000170EE66ED6EC0BF08398070EE66E000E03
:10152000E66EB3EC07F0BCD7E652E65203C055F0C6
:1015300004C056F0FE0E55C0E3FFFF0E56C0E3FF99
:1015400005C0E6FF06C0E6FFFC0EE350010F556E36
:10155000FD0EE3CF56F0000E562255C0E6FF56C0F2
:10156000E6FFB7EC08F0FE0E54C0E3FFFF0E55C0D7
:10157000E3FF110EE66E000EE66EFC0EE3CFE6FF13
:10158000E3CFE6FF01EC0AF0080E5424D96E010EF9
:101590005520DA6EDE04D8A4D3D7FE0EE3CF54F084
:1015A000FF0EE3CF55F0E552E5521200839E839C77
:1015B00083988394838E700EE66E170EE66ED6ECDB
:1015C0000BF0070EE66E000EE66E49EC08F0839E07
:1015D000838C700EE66E170EE66ED6EC0BF0839CD5
:1015E000070EE66E000EE66EB3EC07F0014A022A23
:1015F0008384700EE66E170EE66ED6EC0BF0070EC7
:10160000E66E000EE66E49EC08F083940106D8A061
:1016100002068388700EE66E170EE66ED6EC0BF0AF
:101620008398070EE66E000EE66EB3EC07F0C2D7A5
:10163000E652949A829A210EE66E000EE66E59ECFE
:1016400006F0FF0E54C0E3FFFF0EE3CF54F06C0E24
:101650005418D8A414D082AA02D0010E01D0000ED2
:10166000FF0A5F6E5F3A5F4682505F18DF0B5F18BC
:10167000826E880EE66E130EE66ED6EC0BF082AA32
:1016800002D0010E01D0000EFF0A5F6E5F3A5F4686
:1016900082505F18DF0B5F18826E880EE66E130EA5
:1016A000E66ED6EC0BF0C7D7AA0E3F6E010E406E69
:1016B000010E3E6E3D683E5004E1800E3D5CD8A0B8
:1016C00011D03FC0D9FF40C0DAFF7F0EDF6E7F0E22
:1016D0003F26000E4022810E3D243D6EFF0E3E202F
:1016E0003E6EE9D73FC0D9FF40C0DAFF3DC0DFFF03
:1016F0003D503F24D96E3E504020DA6E000EDF6E22
:1017000012003DC043F03EC044F03FC045F040C031
:1017100046F041C047F042C048F0000E506E000E47
:101720004F6E010E4B6E110EE66E000EE66E05C09A
:10173000E6FF06C0E6FF01EC0AF0000E5424E96E55
:10174000010E5520EA6E20EE43F0100EDBCFEBFFCA
:10175000E806FCE2054A062A1200960EF66E180EFE
:10176000F76E000EF86E0900F5CF60F00900F5CFB6
:1017700061F001EEAAF022EE00F0EE6ADD50D950E1
:10178000FCE1DA50FAE101EE00F0AA0EEE6AE8069A
:10179000FDE100EE01F02B0EEE6AE806FDE1000E21
:1017A000F86E060EF76E0001B6EF09F0F29E110E0C
:1017B000E66E000EE66E03C0E6FF04C0E6FF01EC35
:1017C0000AF0060E5424E96E010E5520EA6EE1502F
:1017D000FE0FD96EE250DA6EFF0EDA22DECFEEFF98
:1017E000DDCFEDFF030EE66E03EC03F0F28EE55263
:1017F000E5521200F29E3DC0D9FF3EC0DAFF3FC065
:10180000DEFF40C0DDFF20EE16F03D50D9263E50F1
:10181000DA22000EDE6E000EDD6E20EE18F03D5076
:10182000D9263E50DA22000EDE6E000EDD6EF28EFC
:101830001200D59AD596D580D582D584F28CF28ABD
:10184000FC0ED66ED58E000E3E6E010E3D6E000E65
:10185000406E050E3F6E920E416E180E426E81EC88
:101860000BF054EC0BF0F28E1200210EE66E000E1F
:10187000E66E15EC09F06C0EE66E210EE66E000EBB
:10188000E66E09EC07F0F7D7000E956E1200D58EC4
:08189000120000F0FED7040075
:020000040020DA
:08000000FFFFFFFFFFFFFFFF00
:020000040030CA
:0E000000FF071F1FFF8385FF0FC00FE00F409B
:00000001FF
