:0400000006EF00F017
:1000080010ED05F014EEA6F065EF0AF0F29E6E0E04
:10001800E66E000EE66E05C0E6FF06C0E6FFECECF5
:1000280008F0F60E3F24D96E000E4020DA6EFF0E5F
:10003800E3CFDFFF6E0EE66E000EE66E05C0E6FF4C
:1000480006C0E6FFECEC08F0590E3F24D96E010E0D
:100058004020DA6EE0CFDFFF6E0EE66E000EE66E31
:1000680005C0E6FF06C0E6FFECEC08F05A0E3F2498
:10007800D96E010E4020DA6ED8CFDFFF6E0EE66E25
:10008800000EE66E05C0E6FF06C0E6FFECEC08F0E1
:100098005B0E3F24D96E010E4020DA6EE8CFDFFFF9
:1000A8006E0EE66E000EE66E05C0E6FF06C0E6FFC1
:1000B800ECEC08F0570E3F24D96E010E4020DA6EA2
:1000C800000EDE6E000EDD6E030EE66E000EE66EAE
:1000D8006E0EE66E000EE66E05C0E6FF06C0E6FF91
:1000E800ECEC08F0570E3F24D96E010E4020DA6E72
:1000F800DECF40F0DDCF41F040C0E6FF41C0E6FF73
:10010800ECEC08F03FC047F040C048F06E0EE66ED9
:10011800000EE66E05C0E6FF06C0E6FFECEC08F050
:10012800EE0E496E000E4A6E090E4926000E4A224E
:100138003F50492640504A2247504924D96E4850DA
:100148004A20DA6EFFCFDFFF030EE66E000EE66E82
:100158006E0EE66E000EE66E05C0E6FF06C0E6FF10
:10016800ECEC08F0570E3F24D96E010E4020DA6EF1
:10017800DECF40F0DDCF41F040C0E6FF41C0E6FFF2
:10018800ECEC08F03FC047F040C048F06E0EE66E59
:10019800000EE66E05C0E6FF06C0E6FFECEC08F0D0
:1001A800EE0E496E000E4A6E0A0E4926000E4A22CD
:1001B8003F50492640504A2247504924D96E48505A
:1001C8004A20DA6EFDCFDFFF030EE66E000EE66E04
:1001D8006E0EE66E000EE66E05C0E6FF06C0E6FF90
:1001E800ECEC08F0570E3F24D96E010E4020DA6E71
:1001F800DECF40F0DDCF41F040C0E6FF41C0E6FF72
:10020800ECEC08F03FC047F040C048F06E0EE66ED8
:10021800000EE66E05C0E6FF06C0E6FFECEC08F04F
:10022800EE0E496E000E4A6E0B0E4926000E4A224B
:100238003F50492640504A2247504924D96E4850D9
:100248004A20DA6EFECFDFFF6E0EE66E000EE66E17
:1002580005C0E6FF06C0E6FFECEC08F0570E3F24A9
:10026800D96E010E4020DA6EDE2A000EDD2206006D
:10027800FC50D8A429D77EEC09F03FC005F040C057
:1002880006F0FC6A6E0EE66E000EE66E05C0E6FF2E
:1002980006C0E6FFECEC08F0570E3F24D96E010EBD
:1002A8004020DA6EDE50DE10D8A41BD005006E0E9A
:1002B800E66E000EE66E05C0E6FF06C0E6FFECEC53
:1002C80008F0F20E3F24D96E000E4020DA6EDECF21
:1002D80040F0DDCF41F040C0FDFF41C0FEFFFF6AA6
:1002E8001FD16E0EE66E000EE66E05C0E6FF06C074
:1002F800E6FFECEC08F0590E3F24D96E010E4020C1
:10030800DA6EDF50E06E6E0EE66E000EE66E05C029
:10031800E6FF06C0E6FFECEC08F05A0E3F24D96E63
:10032800010E4020DA6EDF50D86E6E0EE66E000EBB
:10033800E66E05C0E6FF06C0E6FFECEC08F05B0ED3
:100348003F24D96E010E4020DA6EDF504A6E4A50C3
:1003580005006E0EE66E000EE66E05C0E6FF06C0EE
:10036800E6FFECEC08F0570E3F24D96E010E402052
:10037800DA6EDE06000EDD5A030EE66E000EE66E3D
:100388006E0EE66E000EE66E05C0E6FF06C0E6FFDE
:10039800ECEC08F0570E3F24D96E010E4020DA6EBF
:1003A800DECF40F0DDCF41F040C0E6FF41C0E6FFC0
:1003B800ECEC08F03FC047F040C048F06E0EE66E27
:1003C800000EE66E05C0E6FF06C0E6FFECEC08F09E
:1003D800EE0E496E000E4A6E090E4926000E4A229C
:1003E8003F50492640504A2247504924D96E485028
:1003F8004A20DA6EDF50FF6E030EE66E000EE66EE0
:100408006E0EE66E000EE66E05C0E6FF06C0E6FF5D
:10041800ECEC08F0570E3F24D96E010E4020DA6E3E
:10042800DECF40F0DDCF41F040C0E6FF41C0E6FF3F
:10043800ECEC08F03FC047F040C048F06E0EE66EA6
:10044800000EE66E05C0E6FF06C0E6FFECEC08F01D
:10045800EE0E496E000E4A6E0A0E4926000E4A221A
:100468003F50492640504A2247504924D96E4850A7
:100478004A20DA6EDF50FD6E030EE66E000EE66E61
:100488006E0EE66E000EE66E05C0E6FF06C0E6FFDD
:10049800ECEC08F0570E3F24D96E010E4020DA6EBE
:1004A800DECF40F0DDCF41F040C0E6FF41C0E6FFBF
:1004B800ECEC08F03FC047F040C048F06E0EE66E26
:1004C800000EE66E05C0E6FF06C0E6FFECEC08F09D
:1004D800EE0E496E000E4A6E0B0E4926000E4A2299
:1004E8003F50492640504A2247504924D96E485027
:1004F8004A20DA6EDF50FE6E6E0EE66E000EE66E75
:1005080005C0E6FF06C0E6FFECEC08F0570E3F24F6
:10051800D96E010E4020DA6EDE50DE10D8A418D74E
:100528006E0EE66E000EE66E05C0E6FF06C0E6FF3C
:10053800ECEC08F0F60E3F24D96E000E4020DA6E7F
:10054800020EDF6EF28EE5521200060EE126000E54
:10055800E222F90EE3CF3FF07E0E3F6404D0000E96
:100568003F6E000E7BD0020E3F6EFB0E3FC0E3FFD6
:10057800A60E3F6EFA0E3FC0E3FFFA0EE3CFD9FF97
:10058800FB0EE3CFDAFFDF504A6EFE0E4AC0E3FFF0
:10059800E150FE0FD96EE250DA6EFF0EDA22DF501C
:1005A8007F0B4A6EFF0E4A26FF0E4AC0E3FFFE0E7F
:1005B800E350D8B4D4D7E150FE0FD96EE250DA6ECA
:1005C800FF0EDA22DFBE16D0E150FF0FD96EE250DF
:1005D800DA6EFF0EDA22F90EE350DE5CD8B020D0D6
:1005E800FA0EE3CFE6FFE3CFE6FFC6EC05F03F5097
:1005F800D8A4C3D7E150FE0FD96EE250DA6EFF0ED1
:10060800DA22DF507F0B010DE150FA0FD96EE2506C
:10061800DA6EFF0EDA22F350DE26F450DD22ADD773
:10062800E150F90FD96EE250DA6EFF0EDA22FF0EB2
:10063800E350DE18D8A414D0FA0EE3CFD9FFFB0E8E
:10064800E3CFDAFFDF8EFA0EE3CF49F0FB0EE3CFFC
:100658004AF0010E49243F6E000E4A20406E41D0F8
:10066800FA0EE3CFD9FFFB0EE3CFDAFFF90EE35022
:10067800810FDF6EFA0EE350010F406EFB0EE3CFE1
:1006880041F0000E4122FD0E41C0E3FFFC0E40C0C8
:10069800E3FFF90EE350406E416A010E4026000E5A
:1006A8004122E150FA0FD96EE250DA6EFF0EDA22DB
:1006B8004050DE264150DD22FA0EE3CFD9FFFB0E73
:1006C800E3CFDAFFF90EE3CF4AF0FF0EE3CF49F0AC
:1006D8004A50495CDF6EFC0EE3CF3FF0FD0EE3CFDE
:1006E80040F0F90EE126FF0EE2221200E652F29ED9
:1006F800FD0EE3CF40F0FE0EE3CF41F00A0E40249A
:10070800D96E000E4120DA6EDE50DE10D8A414D067
:10071800FD0EE3CF40F0FE0EE3CF41F00C0E402477
:10072800D96E000E4120DA6E05C0DEFF06C0DDFF7F
:10073800060EE66E0AEC00F0FD0EE3CF40F0FE0E6A
:10074800E3CF41F0060E4024D96E000E4120DA6E48
:10075800DECF40F0DDCF41F0FD0EE3CF49F0FE0ED5
:10076800E3CF4AF040504924D96E41504A20DA6E0E
:10077800DF504A6EFF0E4AC0E3FF060EE66E000E1B
:10078800E66EFB0EE3CF40F0FC0EE3CF41F0060E21
:100798004024D96E000E4120DA6EDECF40F0DDCF66
:1007A80041F0010E4026000E412240C0E6FF41C044
:1007B800E6FF3BEC08F0FD0EE3CF49F0FE0EE3CF79
:1007C8004AF0060E4924D96E000E4A20DA6E3FC060
:1007D800DEFF40C0DDFFFD0EE3CF40F0FE0EE3CFAD
:1007E80041F00A0E4024D96E000E4120DA6EDE0672
:1007F800000EDD5AFD0EE3CF40F0FE0EE3CF41F0D0
:100808000E0E4024D96E000E4120DA6EDE50DE1046
:10081800D8B432D06E0EE66E000EE66EFB0EE3CF55
:1008280040F0FC0EE3CF41F00E0E4024D96E000ECE
:100838004120DA6EDECF40F0DDCF41F040C0E6FF68
:1008480041C0E6FFECEC08F0F60E3F24D96E000E2E
:100858004020DA6E010EDF6EFD0EE3CF40F0FE0E93
:10086800E3CF41F00E0E4024D96E000E4120DA6E1F
:10087800000EDE6E000EDD6EFF0EE3CF3FF0E55298
:10088800E552E5521200F29EFE0EE3CF40F0FF0E55
:10089800E3CF41F00A0E4024D96E000E4120DA6EF3
:1008A800060EDE18DE10D8A414D0FE0EE3CF40F0FA
:1008B800FF0EE3CF41F00E0E4024D96E000E41200A
:1008C800DA6E05C0DEFF06C0DDFF060EE66E0AEC36
:1008D80000F0FE0EE3CF40F0FF0EE3CF41F0080E2C
:1008E8004024D96E000E4120DA6EDECF40F0DDCF15
:1008F80041F0FE0EE3CF49F0FF0EE3CF4AF040503F
:100908004924D96E41504A20DA6EFD0EE3CFDFFF4D
:10091800060EE66E000EE66EFC0EE3CF40F0FD0E0E
:10092800E3CF41F0080E4024D96E000E4120DA6E64
:10093800DECF40F0DDCF41F0010E4026000E41220F
:1009480040C0E6FF41C0E6FF3BEC08F0FE0EE3CFF7
:1009580049F0FF0EE3CF4AF0080E4924D96E000E85
:100968004A20DA6E3FC0DEFF40C0DDFFFE0EE3CF57
:1009780040F0FF0EE3CF41F00A0E4024D96E000E7E
:100988004120DA6EDE2A000EDD22FE0EE3CF40F0B3
:10099800FF0EE3CF41F00C0E4024D96E000E41202B
:1009A800DA6EDE50DE10D8B432D06E0EE66E000E6F
:1009B800E66EFC0EE3CF40F0FD0EE3CF41F00C0EE7
:1009C8004024D96E000E4120DA6EDECF40F0DDCF34
:1009D80041F040C0E6FF41C0E6FFECEC08F0F60E3F
:1009E8003F24D96E000E4020DA6E010EDF6EFE0E37
:1009F800E3CF40F0FF0EE3CF41F00C0E4024D96E58
:100A0800000E4120DA6E000EDE6E000EDD6EF28EF4
:100A1800E552E552E55212000600E1CF2AF0E2CF96
:100A28002BF0D9CF2CF0DACF2DF0F3CF2EF0F4CF76
:100A38002FF03FC030F040C031F041C032F047C025
:100A480033F048C034F049C035F04AC036F015EEEE
:100A58001AF0F2A47CD0F294FC0ED66E000E386E1A
:100A6800010E376E5FD06E0EE66E000EE66E37C072
:100A7800E6FF38C0E6FFECEC08F0080E3F26000E53
:100A88004022EE0E3F24D96E000E4020DA6E030E8F
:100A9800DE18D8A445D06E0EE66E000EE66E37C09E
:100AA800E6FF38C0E6FFECEC08F0060E3F26000E25
:100AB8004022EE0E3F24D96E000E4020DA6EDE068C
:100AC800000EDD5A6E0EE66E000EE66E37C0E6FFCB
:100AD80038C0E6FFECEC08F0060E3F26000E402278
:100AE800EE0E3F24D96E000E4020DA6EDE50DE1086
:100AF800D8A416D06E0EE66E000EE66E37C0E6FF7E
:100B080038C0E6FFECEC08F0080E3F26000E402245
:100B1800EE0E3F24D96E000E4020DA6E010EDF6E15
:100B2800374A382A0750375C08503858D8A09BD71E
:100B38004B06D8A04C064B504C10D8A408D0000E39
:100B48004C6E040E4B6E010EE66E0AEC00F036C0D9
:100B58004AF035C049F034C048F033C047F032C0DD
:100B680041F031C040F030C03FF02FC0F4FF2EC03C
:100B7800F3FF2DC0DAFF2CC0D9FF2BC0E2FF2AC03B
:100B8800E1FF1100050EE126000EE222F90EE3CF87
:100B9800D9FFFA0EE3CFDAFFDF50406E416AF90E53
:100BA800E3504026FA0EE3504122FC0E41C0E3FF19
:100BB800FB0E40C0E3FFF90EE3CFD9FFFA0EE3CFF7
:100BC800DAFFDF504A6EFE0E4AC0E3FFFB0EE3CFAA
:100BD800D9FFFC0EE3CFDAFFDF504A6EFD0E4AC0A4
:100BE800E3FFFD0EE350D8A402D0000E6ED0E15012
:100BF800FE0FD96EE250DA6EFF0EDA22DFBEF5D7AD
:100C0800E150FD0FD96EE250DA6EFF0EDA22DFBE38
:100C1800ECD7E150FE0FD96EE250DA6EFF0EDA2201
:100C2800DF507F0B7F0AD8B4E0D7FD0EE3CF4AF040
:100C3800FE0EE3504A24496EFF0E49C0E3FFFF0E43
:100C4800E3CF3FF07F0E3F6436D0F90EE3CFD9FFF4
:100C5800FA0EE3CFDAFF7F0EDF6EF90EE3507F0F57
:100C68003F6EF90E3FC0E3FF3F6AFA0EE3503F20A4
:100C78003F6EFA0E3FC0E3FFFD0EE350010DE15059
:100C8800FB0FD96EE250DA6EFF0EDA22F350DE2641
:100C9800F450DD22F90EE3CFD9FFFA0EE3CFDAFFE5
:100CA800F90EE3CF4AF0FB0EE3CF49F04A50495C16
:100CB800DF6E7F0E0AD0F90EE3CFD9FFFA0EE3CF2D
:100CC800DAFFFF0EE3CFDFFFDF503F6EF90EE126BC
:100CD800FF0EE2221200F29EFE0EE3CFD9FFFF0EB6
:100CE800E3CFDAFFDE2A000EDD22FE0EE3CFD9FFC6
:100CF800FF0EE3CFDAFF010EDBBE06D0010EDB509C
:100D08007CE1DE04D8B079D06E0EE66E000EE66E99
:100D1800FC0EE3CF40F0FD0EE3CF41F00C0E402473
:100D2800D96E000E4120DA6EDECF49F0DDCF4AF0F1
:100D3800D8904934406E4A34416EFC0EE350402648
:100D4800FD0EE3504122020E4024D96E000E4120D0
:100D5800DA6EDECF40F0DDCF41F040C0E6FF41C0A3
:100D6800E6FFECEC08F0F60E3F24D96E000E4020AA
:100D7800DA6E010EDF6EFE0EE3CF40F0FF0EE3CF1A
:100D880041F00A0E4024D96E000E4120DA6EDECF03
:100D980040F0DDCF41F040C0E6FF41C0E6FFFC0E69
:100DA800E3CF40F0FD0EE3CF41F00C0E4024D96EA6
:100DB800000E4120DA6EDECF40F0DDCF41F0010EAB
:100DC8004026000E412240C0E6FF41C0E6FF3BEC52
:100DD80008F0FE0EE3CF49F0FF0EE3CF4AF00C0E09
:100DE8004924D96E000E4A20DA6E3FC0DEFF40C0AB
:100DF800DDFF010EE66E0AEC00F0F28EE552E552D8
:100E08001200E652E652E652E652949A829A959277
:100E1800839295908390880E406E130E416EFE0E5D
:100E280040C0E3FFFF0E41C0E3FFE80E406E030E33
:100E3800416EFC0E40C0E3FFFD0E41C0E3FF83821C
:100E4800FE0EE3CFE6FFE3CFE6FF41EC0AF01A0E11
:100E5800E66E000EE66E6EEC07F08392828AFC0E58
:100E6800E3CFE6FFE3CFE6FF41EC0AF0829AD00E2B
:100E7800E66E070EE66E41EC0AF01A0EE66E000EFC
:100E8800E66E6FEC06F0580EE66E020EE66E41EC6A
:100E98000AF01A0EE66E000EE66E6EEC07F083801E
:100EA800500EE66E140EE66E41EC0AF08390C40E06
:100EB800E66E090EE66E41EC0AF01A0EE66E000EBA
:100EC800E66E6FEC06F0240EE66E090EE66E41EC57
:100ED8000AF0B5D7F29EFE0EE3CFD9FFFF0EE3CF9F
:100EE800DAFFDE06000EDD5AFE0EE3CFD9FFFF0E55
:100EF800E3CFDAFF010EDBAE51D0FE0EE3CF40F0B8
:100F0800FF0EE3CF41F00A0E4024D96E000E4120B7
:100F1800DA6EDECF49F0DDCF4AF0D8904934406E22
:100F28004A34416EFE0EE3504026FF0EE350412244
:100F3800020E4024D96E000E4120DA6E05C0DEFF95
:100F480006C0DDFFFE0EE3CF40F0FF0EE3CF41F019
:100F58000A0E4024D96E000E4120DA6EDECF40F032
:100F6800DDCF41F0010E4026000E4122030E40164F
:100F7800000E4116FE0EE3CF49F0FF0EE3CF4AF014
:100F88000A0E4924D96E000E4A20DA6E40C0DEFFF0
:100F980041C0DDFF050EE66E0AEC00F0F28EE55268
:100FA800E5521200E652E652E652E65295948394D0
:100FB800E80E406E030E416EFE0E40C0E3FFFF0ECA
:100FC80041C0E3FF700E406E170E416EFC0E40C02C
:100FD800E3FFFD0E41C0E3FF8384FC0EE3CFE6FF91
:100FE800E3CFE6FF41EC0AF01A0EE66E000EE66E5D
:100FF8006EEC07F08394828AFE0EE3CFE6FFE3CF20
:10100800E6FF41EC0AF0829A580EE66E020EE66E92
:1010180041EC0AF01A0EE66E000EE66E6FEC06F072
:10102800580EE66E020EE66E41EC0AF01A0EE66EF7
:10103800000EE66E6EEC07F08380680EE66E100E0A
:10104800E66E41EC0AF08390E20EE66E040EE66E60
:1010580041EC0AF01A0EE66E000EE66E6FEC06F032
:10106800FC0EE66E080EE66E41EC0AF0B5D7E652C5
:10107800FB0EE3CF3FF0FC0EE3503F10D8B44AD04C
:10108800FF0EE36A10D0FB0EE350D890E8343F6EB1
:10109800FB0E3FC0E3FFFC0EE350E8343F6EFC0E4E
:1010A8003FC0E3FFFF0EE32AFC0EE3AEECD7FB0ED6
:1010B800E3CF40F0FC0EE3CF41F0FD0EE3CF49F063
:1010C800FE0EE3CF4AF04050495C41504A58D8A040
:1010D80012D0FD0EE3503F6EFB0EE3503F5EFD0E57
:1010E8003FC0E3FFFE0EE3503F6EFC0EE3503F5A55
:1010F800FE0E3FC0E3FFD890FC0EE332FB0EE33256
:10110800FF0EE3503F6E010E3F5EFF0E3FC0E3FF50
:10111800D8A4CDD7FD0EE3CF3FF0FE0EE3CF40F0CD
:10112800FB0EE126FF0EE2221200FE0EE3CF40F096
:10113800FF0EE3CF41F0060E4024D96E000E412089
:10114800DA6E000EDE6E000EDD6EFE0EE3CF40F0AE
:10115800FF0EE3CF41F0080E4024D96E000E412067
:10116800DA6E000EDE6E000EDD6EFE0EE3CF40F08E
:10117800FF0EE3CF41F00A0E4024D96E000E412045
:10118800DA6E000EDE6E000EDD6EFE0EE3CF40F06E
:10119800FF0EE3CF41F00C0E4024D96E000E412023
:1011A800DA6E000EDE6E000EDD6EFE0EE3CF40F04E
:1011B800FF0EE3CF41F00E0E4024D96E000E412001
:1011C800DA6E000EDE6E000EDD6EE552E55212009C
:1011D800E652E652FA0EE3CF4AF0FC0EE3504A021A
:1011E800FE0EF3CFE3FFFF0EF4CFE3FFFB0EE12487
:1011F800D96EFF0EE220DA6EDF504A6EFC0EE35025
:101208004A02F3CFF4FFF36AE150FE0FD96EE250C1
:10121800DA6EFF0EDA22F350DE26F450DD22FA0EE3
:10122800E3CF4AF0FD0EE124D96EFF0EE220DA6E1C
:10123800DF504A02F3CFF4FFF36AE150FE0FD96E94
:10124800E250DA6EFF0EDA22F350DE26F450DD2289
:10125800FE0EE3CF3FF0FF0EE3CF40F0FA0EE1269B
:10126800FF0EE2221200A3EC0AF01A0E396E000EED
:101278003A6E000E3C6E010E3B6E84EC0AF0000ED6
:101288003A6E010E396E000E3C6E030E3B6E0A0E6E
:101298003D6E0E0E3E6EC0EC09F0000E3A6E050E65
:1012A800396E000E3C6E030E3B6EAC0E3D6E0F0E9B
:1012B8003E6EC0EC09F0000E3A6E020E396E000E5A
:1012C8003C6E030E3B6E7C0E3D6E150E3E6EC0EC02
:1012D80009F0000E3A6E030E396E000E3C6E030ED6
:1012E8003B6E340E3D6E140E3E6EC0EC09F0F3EC0E
:1012F8000AF0FFD7E652E65205C040F006C041F0BA
:10130800FE0E40C0E3FFFF0E41C0E3FF07C0E6FF4B
:1013180008C0E6FFFC0EE350010F406EFD0EE3CF60
:1013280041F0000E412240C0E6FF41C0E6FF3BEC21
:1013380008F0FE0E3FC0E3FFFF0E40C0E3FF6E0E55
:10134800E66E000EE66EFC0EE3CFE6FFE3CFE6FFA7
:10135800ECEC08F0F60E3F24D96E000E4020DA6E51
:10136800DE04D8A4D3D7FE0EE3CF3FF0FF0EE3CFC1
:1013780040F0E552E552120039C080F03AC081F0E1
:101388003BC082F03CC083F03DC084F03EC085F095
:10139800000E0001EA6F000EE96F010E886F6E0EF5
:1013A800E66E000EE66E07C0E6FF08C0E6FFECEC4E
:1013B80008F0EE0E3F24E96E000E4020EA6E20EEA3
:1013C80080F06D0EDBCFEBFFE806FCE2074A082A47
:1013D8001200A60E3B6E020E3C6E010E3A6E396884
:1013E8003A5004E1800E395CD8A011D03BC0D9FF37
:1013F8003CC0DAFF7F0EDF6E7F0E3B26000E3C22DC
:10140800810E3924396EFF0E3A203A6EE9D73BC077
:10141800D9FF3CC0DAFF39C0DFFF39503B24D96E11
:101428003A503C20DA6E000EDF6E1200E652959CB0
:10143800839C030EE66EA9EC02F00A0EE66E000E1F
:10144800E66E7AEC03F0FF0E3FC0E3FFFF0EE3CF3A
:101458003FF0610E3F18D8A408D0838CE80EE66EE2
:10146800030EE66E41EC0AF0839CFF0EE350E66E35
:10147800000EE66ED3EC0AF0DCD7F29E6E0EE66E36
:10148800000EE66E05C0E6FF06C0E6FFECEC08F0CD
:10149800F40E3F24E96E000E4020EA6EE150FE0F84
:1014A800D96EE250DA6EFF0EDA22DECFEEFFDDCF24
:1014B800EDFF030EE66E0AEC00F0F28EE552E552FF
:1014C8001200EA0EF66E150EF76E000EF86E0900A1
:1014D800F5CF4BF00900F5CF4CF000EEEEF023EE1F
:1014E800B8F0EE6ADD50D950FCE1DA50FAE100EECE
:1014F80001F0270EEE6AE806FDE1000137EF09F07A
:10150800F29E39C0D9FF3AC0DAFF3BC0DEFF3CC0CB
:10151800DDFF20EE0AF03950D9263A50DA22000EC3
:10152800DE6E000EDD6E20EE0CF03950D9263A50F2
:10153800DA22000EDE6E000EDD6EF28E1200D59AF3
:10154800D596D580D582D584F28CF28AFC0ED66EDB
:10155800000E3A6E010E396E000E3C6E050E3B6EA3
:10156800C60E3D6E150E3E6EC0EC09F0EDEC09F0AE
:10157800F28E12000A0EE66E000EE66E99EC08F086
:10158800B80EE66E0B0EE66E41EC0AF0610EE66EE2
:101598000A0EE66E000EE66E47EC04F0F1D7FE0E7A
:1015A800E3CF40F0FF0EE3CF41F0FF0E4024D96EA9
:1015B800FF0E4120DA6EDF9EE552E5521200959843
:1015C80083A802D0010E01D0000EFF0A4A6E4A3AE3
:1015D80083504A18EF0B4A18836E00F0F1D7D58E66
:0415E80012000400E9
:020000040020DA
:08000000FFFFFFFFFFFFFFFF00
:020000040030CA
:0E000000FF071F1EFF8385FF0FC00FE00F409C
:00000001FF
