:0400000006EF00F017
:0C000800A2ED05F013EEAAF057EF0CF08B
:10060000001F0000F29E110EE66E000EE66E01C0A5
:10061000E6FF02C0E6FF8DEC0AF0080E3B24D96E1F
:10062000010E3C20DA6EFF0EE3CFDFFF110EE66E07
:10063000000EE66E01C0E6FF02C0E6FF8DEC0AF098
:100640000E0E3B24D96E010E3C20DA6EE0CFDFFFA8
:10065000110EE66E000EE66E01C0E6FF02C0E6FF78
:100660008DEC0AF00F0E3B24D96E010E3C20DA6EA1
:10067000D8CFDFFF110EE66E000EE66E01C0E6FF7A
:1006800002C0E6FF8DEC0AF0100E3B24D96E010E7D
:100690003C20DA6EE8CFDFFF110EE66E000EE66E4C
:1006A00001C0E6FF02C0E6FF8DEC0AF00C0E3B2411
:1006B000D96E010E3C20DA6E000EDE6E000EDD6E8D
:1006C000030EE66E000EE66E110EE66E000EE66E8E
:1006D00001C0E6FF02C0E6FF8DEC0AF00C0E3B24E1
:1006E000D96E010E3C20DA6EDECF3CF0DDCF3DF05E
:1006F0003CC0E6FF3DC0E6FF8DEC0AF03BC043F096
:100700003CC044F0110EE66E000EE66E01C0E6FF3E
:1007100002C0E6FF8DEC0AF0000E456E010E466E3B
:10072000090E4526000E46223B5045263C504622E7
:1007300043504524D96E44504620DA6EFFCFDFFF88
:10074000030EE66E000EE66E110EE66E000EE66E0D
:1007500001C0E6FF02C0E6FF8DEC0AF00C0E3B2460
:10076000D96E010E3C20DA6EDECF3CF0DDCF3DF0DD
:100770003CC0E6FF3DC0E6FF8DEC0AF03BC043F015
:100780003CC044F0110EE66E000EE66E01C0E6FFBE
:1007900002C0E6FF8DEC0AF0000E456E010E466EBB
:1007A0000A0E4526000E46223B5045263C50462266
:1007B00043504524D96E44504620DA6EFDCFDFFF0A
:1007C000030EE66E000EE66E110EE66E000EE66E8D
:1007D00001C0E6FF02C0E6FF8DEC0AF00C0E3B24E0
:1007E000D96E010E3C20DA6EDECF3CF0DDCF3DF05D
:1007F0003CC0E6FF3DC0E6FF8DEC0AF03BC043F095
:100800003CC044F0110EE66E000EE66E01C0E6FF3D
:1008100002C0E6FF8DEC0AF0000E456E010E466E3A
:100820000B0E4526000E46223B5045263C504622E4
:1008300043504524D96E44504620DA6EFECFDFFF88
:10084000110EE66E000EE66E01C0E6FF02C0E6FF86
:100850008DEC0AF00C0E3B24D96E010E3C20DA6EB2
:10086000DE2A000EDD220600FC50D8A429D764EC55
:100870000BF03BC001F03CC002F0FC6A110EE66ECA
:10088000000EE66E01C0E6FF02C0E6FF8DEC0AF046
:100890000C0E3B24D96E010E3C20DA6EDE50DE10C9
:1008A000D8A41BD00500110EE66E000EE66E01C046
:1008B000E6FF02C0E6FF8DEC0AF0040E3B24D96E81
:1008C000010E3C20DA6EDECF3CF0DDCF3DF03CC0C7
:1008D000FDFF3DC0FEFFFF6A1FD1110EE66E000E48
:1008E000E66E01C0E6FF02C0E6FF8DEC0AF00E0ED8
:1008F0003B24D96E010E3C20DA6EDF50E06E110E03
:10090000E66E000EE66E01C0E6FF02C0E6FF8DEC6B
:100910000AF00F0E3B24D96E010E3C20DA6EDF5038
:10092000D86E110EE66E000EE66E01C0E6FF02C044
:10093000E6FF8DEC0AF0100E3B24D96E010E3C2030
:10094000DA6EDF50466E46500500110EE66E000E60
:10095000E66E01C0E6FF02C0E6FF8DEC0AF00C0E69
:100960003B24D96E010E3C20DA6EDE06000EDD5A05
:10097000030EE66E000EE66E110EE66E000EE66EDB
:1009800001C0E6FF02C0E6FF8DEC0AF00C0E3B242E
:10099000D96E010E3C20DA6EDECF3CF0DDCF3DF0AB
:1009A0003CC0E6FF3DC0E6FF8DEC0AF03BC043F0E3
:1009B0003CC044F0110EE66E000EE66E01C0E6FF8C
:1009C00002C0E6FF8DEC0AF0000E456E010E466E89
:1009D000090E4526000E46223B5045263C50462235
:1009E00043504524D96E44504620DA6EDF50FF6EE6
:1009F000030EE66E000EE66E110EE66E000EE66E5B
:100A000001C0E6FF02C0E6FF8DEC0AF00C0E3B24AD
:100A1000D96E010E3C20DA6EDECF3CF0DDCF3DF02A
:100A20003CC0E6FF3DC0E6FF8DEC0AF03BC043F062
:100A30003CC044F0110EE66E000EE66E01C0E6FF0B
:100A400002C0E6FF8DEC0AF0000E456E010E466E08
:100A50000A0E4526000E46223B5045263C504622B3
:100A600043504524D96E44504620DA6EDF50FD6E67
:100A7000030EE66E000EE66E110EE66E000EE66EDA
:100A800001C0E6FF02C0E6FF8DEC0AF00C0E3B242D
:100A9000D96E010E3C20DA6EDECF3CF0DDCF3DF0AA
:100AA0003CC0E6FF3DC0E6FF8DEC0AF03BC043F0E2
:100AB0003CC044F0110EE66E000EE66E01C0E6FF8B
:100AC00002C0E6FF8DEC0AF0000E456E010E466E88
:100AD0000B0E4526000E46223B5045263C50462232
:100AE00043504524D96E44504620DA6EDF50FE6EE6
:100AF000110EE66E000EE66E01C0E6FF02C0E6FFD4
:100B00008DEC0AF00C0E3B24D96E010E3C20DA6EFF
:100B1000DE50DE10D8A418D7110EE66E000EE66E79
:100B200001C0E6FF02C0E6FF8DEC0AF0080E3B2490
:100B3000D96E010E3C20DA6E020EDF6EF28EF28E5E
:100B4000E55212000600E1CF2CF0E2CF2DF0D9CF14
:100B50002EF0DACF2FF0F3CF30F0F4CF31F03BC0EE
:100B600032F03CC033F03DC034F043C035F044C0F7
:100B700036F045C037F046C038F014EE72F0F2A4FB
:100B80007CD0F294FC0ED66E000E3A6E010E396ED9
:100B90005FD0110EE66E000EE66E39C0E6FF3AC079
:100BA000E6FF8DEC0AF0080E3B26000E3C22000EFC
:100BB0003B24D96E010E3C20DA6E030EDE18D8A459
:100BC00045D0110EE66E000EE66E39C0E6FF3AC063
:100BD000E6FF8DEC0AF0060E3B26000E3C22000ECE
:100BE0003B24D96E010E3C20DA6EDE06000EDD5A83
:100BF000110EE66E000EE66E39C0E6FF3AC0E6FF63
:100C00008DEC0AF0060E3B26000E3C22000E3B2423
:100C1000D96E010E3C20DA6EDE50DE10D8A416D05C
:100C2000110EE66E000EE66E39C0E6FF3AC0E6FF32
:100C30008DEC0AF0080E3B26000E3C22000E3B24F1
:100C4000D96E010E3C20DA6E010EDF6E394A3A2A67
:100C50000350395C04503A58D8A09BD74706D8A017
:100C6000480647504810D8A408D0000E486E040E1D
:100C7000476E010EE66E02EC03F038C046F037C056
:100C800045F036C044F035C043F034C03DF033C0C9
:100C90003CF032C03BF031C0F4FF30C0F3FF2FC056
:100CA000DAFF2EC0D9FF2DC0E2FF2CC0E1FF1100FA
:100CB000E652F29EFD0EE3CF3CF0FE0EE3CF3DF098
:100CC000050E3C24D96E000E3D20DA6EDE50DE109B
:100CD000D8A414D0FD0EE3CF3CF0FE0EE3CF3DF0E0
:100CE000070E3C24D96E000E3D20DA6E01C0DEFFF7
:100CF00002C0DDFF050EE66E02EC03F0FD0EE3CF51
:100D00003CF0FE0EE3CF3DF0010E3C24D96E000E08
:100D10003D20DA6EDECF3CF0DDCF3DF0FD0EE3CFBF
:100D200045F0FE0EE3CF46F03C504524D96E3D50D1
:100D30004620DA6EDF50466EFF0E46C0E3FFFD0E22
:100D4000E3CF3CF0FE0EE3CF3DF0010E3C24D96E24
:100D5000000E3D20DA6E000EDE6E000EDD6EFD0E22
:100D6000E3CF3CF0FE0EE3CF3DF0050E3C24D96E00
:100D7000000E3D20DA6EDE06000EDD5AFD0EE3CFDA
:100D80003CF0FE0EE3CF3DF0090E3C24D96E000E80
:100D90003D20DA6EDE50DE10D8B432D0110EE66E91
:100DA000000EE66EFB0EE3CF3CF0FC0EE3CF3DF011
:100DB000090E3C24D96E000E3D20DA6EDECF3CF0E9
:100DC000DDCF3DF03CC0E6FF3DC0E6FF8DEC0AF014
:100DD000080E3B24D96E010E3C20DA6E010EDF6E48
:100DE000FD0EE3CF3CF0FE0EE3CF3DF0090E3C24B8
:100DF000D96E000E3D20DA6E000EDE6E000EDD6E46
:100E0000F28EFF0EE3CF3BF0E552E552E5521200C1
:100E1000F29EFE0EE3CF3CF0FF0EE3CF3DF0050E59
:100E20003C24D96E000E3D20DA6EDE04DE10D8A41C
:100E300014D0FE0EE3CF3CF0FF0EE3CF3DF0090EE1
:100E40003C24D96E000E3D20DA6E01C0DEFF02C0E8
:100E5000DDFF050EE66E02EC03F0FE0EE3CF3CF084
:100E6000FF0EE3CF3DF0030E3C24D96E000E3D2073
:100E7000DA6EDECF3CF0DDCF3DF0FE0EE3CF45F085
:100E8000FF0EE3CF46F03C504524D96E3D5046203E
:100E9000DA6EFD0EE3CFDFFFFE0EE3CF3CF0FF0E78
:100EA000E3CF3DF0030E3C24D96E000E3D20DA6EF8
:100EB000000EDE6E000EDD6EFE0EE3CF3CF0FF0E88
:100EC000E3CF3DF0050E3C24D96E000E3D20DA6ED6
:100ED000DE2A000EDD22FE0EE3CF3CF0FF0EE3CF54
:100EE0003DF0070E3C24D96E000E3D20DA6EDE5038
:100EF000DE10D8B432D0110EE66E000EE66EFC0E97
:100F0000E3CF3CF0FD0EE3CF3DF0070E3C24D96E5D
:100F1000000E3D20DA6EDECF3CF0DDCF3DF03CC070
:100F2000E6FF3DC0E6FF8DEC0AF0080E3B24D96ECB
:100F3000010E3C20DA6E010EDF6EFE0EE3CF3CF0B8
:100F4000FF0EE3CF3DF0070E3C24D96E000E3D208E
:100F5000DA6E000EDE6E000EDD6EF28EE552E552A8
:100F6000E5521200F29EFE0EE3CFD9FFFF0EE3CF53
:100F7000DAFFDE2A000EDD22FE0EE3CFD9FFFF0EE0
:100F8000E3CFDAFF010EDBBE06D0010EDB507CE1C1
:100F9000DE04D8B079D0110EE66E000EE66EFC0EBF
:100FA000E3CF3CF0FD0EE3CF3DF0180E3C24D96EAC
:100FB000000E3D20DA6EDECF45F0DDCF46F0D89052
:100FC00045343C6E46343D6EFC0EE3503C26FD0E2F
:100FD000E3503D22020E3C24D96E000E3D20DA6E15
:100FE000DECF3CF0DDCF3DF03CC0E6FF3DC0E6FF8C
:100FF0008DEC0AF0080E3B24D96E010E3C20DA6E0F
:10100000010EDF6EFE0EE3CF3CF0FF0EE3CF3DF0AE
:10101000160E3C24D96E000E3D20DA6EDECF3CF079
:10102000DDCF3DF03CC0E6FF3DC0E6FFFC0EE3CF68
:101030003CF0FD0EE3CF3DF0180E3C24D96E000EBF
:101040003D20DA6EDECF3CF0DDCF3DF0010E3C26D8
:10105000000E3D223CC0E6FF3DC0E6FF83EC09F0F8
:10106000FE0EE3CF45F0FF0EE3CF46F0180E452409
:10107000D96E000E4620DA6E3BC0DEFF3CC0DDFFBD
:10108000010EE66E02EC03F0F28EE552E55212001C
:10109000F29EFE0EE3CFD9FFFF0EE3CFDAFFDE06AE
:1010A000000EDD5AFE0EE3CFD9FFFF0EE3CFDAFFCD
:1010B000010EDBAE57D0FE0EE3CF3CF0FF0EE3CFC8
:1010C0003DF0160E3C24D96E000E3D20DA6EDECFC8
:1010D00045F0DDCF46F0D89045343C6E46343D6E49
:1010E000FE0EE3503C26FF0EE3503D22020E3C2450
:1010F000D96E000E3D20DA6E01C0DEFF02C0DDFFBA
:101100000A0EE66E000EE66EFC0EE3CF3CF0FD0E1E
:10111000E3CF3DF0160E3C24D96E000E3D20DA6E72
:10112000DECF3CF0DDCF3DF0010E3C26000E3D222F
:101130003CC0E6FF3DC0E6FF83EC09F0FE0EE3CFC6
:1011400045F0FF0EE3CF46F0160E4524D96E000E93
:101150004620DA6E3BC0DEFF3CC0DDFF040EE66ECB
:1011600002EC03F0F28EE552E5521200E652E6522E
:10117000E652E652010E3B6EFF0E3BC0E3FFAA0EA5
:101180003B6EFE0E3BC0E3FFFF0E3C6E010E3D6E5C
:10119000FC0E3CC0E3FFFD0E3DC0E3FFFD0EE3503F
:1011A00007E1FC0EE3CF3BF0800E3B5ED8A023D0DE
:1011B000FE0EE3CFD9FFFF0EE3CFDAFF7F0EDF6E27
:1011C000FE0EE3507F0F3B6EFE0E3BC0E3FF3B6A1B
:1011D000FF0EE3503B203B6EFF0E3BC0E3FFE150B0
:1011E000FC0FD96EE250DA6EFF0EDA22810EDE2697
:1011F000FF0EDD22D3D7FE0EE3CFD9FFFF0EE3CFE4
:10120000DAFFFC0EE3CFDFFFFC0EE3CF3CF0FD0E78
:10121000E3CF3DF0FE0EE3CF45F0FF0EE3CF46F007
:101220003C504524D96E3D504620DA6E000EDF6EEC
:10123000E552E552E552E5521200110EE126000E8C
:10124000E222ED0EE3CF3BF0EF0E3BC0E3FFEE0EEC
:10125000E3CF3BF0F00E3BC0E3FFE150EB0FD96E64
:10126000E250DA6EFF0EDA22F10EE124E96EFF0E93
:10127000E220EA6EDECFEEFFDDCFEDFFE150E90FB9
:10128000D96EE250DA6EFF0EDA22F30EE124E96E37
:10129000FF0EE220EA6EDECFEEFFDDCFEDFFFB0EAC
:1012A000E124D96EFF0EE220DA6E000EDE6E000E33
:1012B000DD6EF70EE124D96EFF0EE220DA6E010E2C
:1012C000DF6E110EE66E000EE66E03C0E6FF04C090
:1012D000E6FF8DEC0AF0000E3B24E96E010E3C2087
:1012E000EA6EEF0EE124D96EFF0EE220DA6E100EE8
:1012F000DBCFEBFFE806FCE2034A042AE90EE12615
:10130000FF0EE2221200E652FB0EE3CF3BF0FC0E92
:10131000E3503B10D8B44AD0FF0EE36A10D0FB0E66
:10132000E350D890E8343B6EFB0E3BC0E3FFFC0E6D
:10133000E350E8343B6EFC0E3BC0E3FFFF0EE32AB4
:10134000FC0EE3AEECD7FB0EE3CF3CF0FC0EE3CF9C
:101350003DF0FD0EE3CF45F0FE0EE3CF46F03C50EE
:10136000455C3D504658D8A012D0FD0EE3503B6E70
:10137000FB0EE3503B5EFD0E3BC0E3FFFE0EE35071
:101380003B6EFC0EE3503B5AFE0E3BC0E3FFD89091
:10139000FC0EE332FB0EE332FF0EE3503B6E010E18
:1013A0003B5EFF0E3BC0E3FFD8A4CDD7FD0EE3CFDD
:1013B0003BF0FE0EE3CF3CF0FB0EE126FF0EE222F7
:1013C0001200A4EC0CF0B6EC08F0E1EC0CF0010E0D
:1013D000E66E000EE66E050EE66E000EE66E1FEC83
:1013E0000CF0B00EE66E150EE66E030EE66E000E05
:1013F000E66E020EE66E000EE66E1DEC09F0420E81
:10140000E66E160EE66E030EE66E000EE66E030E38
:10141000E66E000EE66E1DEC09F04C0EE66E170E41
:10142000E66E030EE66E000EE66E040EE66E000E2D
:10143000E66E1DEC09F0A00EE66E190EE66E030EC8
:10144000E66E000EE66E050EE66E000EE66E1DEC14
:1014500009F0C60EE66E170EE66E030EE66E000E7F
:10146000E66E060EE66E000EE66E1DEC09F0DFEC91
:101470000CF0FFD7FE0EE3CF3CF0FF0EE3CF3DF0C4
:10148000010E3C24D96E000E3D20DA6E000EDE6E99
:10149000000EDD6EFE0EE3CF3CF0FF0EE3CF3DF01D
:1014A000030E3C24D96E000E3D20DA6E000EDE6E77
:1014B000000EDD6EFE0EE3CF3CF0FF0EE3CF3DF0FD
:1014C000050E3C24D96E000E3D20DA6E000EDE6E55
:1014D000000EDD6EFE0EE3CF3CF0FF0EE3CF3DF0DD
:1014E000070E3C24D96E000E3D20DA6E000EDE6E33
:1014F000000EDD6EFE0EE3CF3CF0FF0EE3CF3DF0BD
:10150000090E3C24D96E000E3D20DA6E000EDE6E10
:10151000000EDD6EE552E5521200E652E652FA0E7A
:10152000E3CF46F0FC0EE3504602FE0EF3CFE3FF9E
:10153000FF0EF4CFE3FFFB0EE124D96EFF0EE22095
:10154000DA6EDF50466EFC0EE3504602F3CFF4FF36
:10155000F36AE150FE0FD96EE250DA6EFF0EDA2226
:10156000F350DE26F450DD22FA0EE3CF46F0FD0EF6
:10157000E124D96EFF0EE220DA6EDF504602F3CF8F
:10158000F4FFF36AE150FE0FD96EE250DA6EFF0EFF
:10159000DA22F350DE26F450DD22FE0EE3CF3BF0DC
:1015A000FF0EE3CF3CF0FA0EE126FF0EE22212001E
:1015B0008396839C839883908386880EE66E130EB1
:1015C000E66E80EC0CF0050EE66E000EE66E48EC62
:1015D00008F08396838C880EE66E130EE66E80EC20
:1015E0000CF0839C050EE66E000EE66EB2EC07F082
:1015F0002C0EE66E010EE66E80EC0CF08380880EF9
:10160000E66E130EE66E80EC0CF0050EE66E000E34
:10161000E66E48EC08F083908388880EE66E130E21
:10162000E66E80EC0CF08398050EE66E000EE66E1A
:10163000B2EC07F0900EE66E010EE66E80EC0CF058
:10164000BBD7839A839C83988392838A700EE66EBD
:10165000170EE66E80EC0CF0050EE66E000EE66EE0
:1016600048EC08F0839A838C700EE66E170EE66ED7
:1016700080EC0CF0839C050EE66E000EE66EB2EC7C
:1016800007F02C0EE66E010EE66E80EC0CF0838205
:10169000700EE66E170EE66E80EC0CF0050EE66E30
:1016A000000EE66E48EC08F083928388700EE66EBA
:1016B000170EE66E80EC0CF08398050EE66E000EB9
:1016C000E66EB2EC07F0C1D7E652E65201C03CF03C
:1016D00002C03DF0FE0E3CC0E3FFFF0E3DC0E3FF45
:1016E00003C0E6FF04C0E6FFFC0EE350010F3C6EB2
:1016F000FD0EE3CF3DF0000E3D223CC0E6FF3DC0B5
:10170000E6FF83EC09F0FE0E3BC0E3FFFF0E3CC09A
:10171000E3FF110EE66E000EE66EFC0EE3CFE6FF71
:10172000E3CFE6FF8DEC0AF0080E3B24D96E010EE4
:101730003C20DA6EDE04D8A4D3D7FE0EE3CF3BF014
:10174000FF0EE3CF3CF0E552E5521200839E839CEE
:1017500083988394838E700EE66E170EE66E80EC8F
:101760000CF0050EE66E000EE66E48EC08F0839E67
:10177000838C700EE66E170EE66E80EC0CF0839C88
:10178000050EE66E000EE66EB2EC07F08384700E76
:10179000E66E170EE66E80EC0CF0050EE66E000E9F
:1017A000E66E48EC08F083948388700EE66E170EA0
:1017B000E66E80EC0CF08398050EE66E000EE66E89
:1017C000B2EC07F0C7D7E652949A829A1F0EE66EE3
:1017D000000EE66E58EC06F0FF0E3BC0E3FFFF0E76
:1017E000E3CF3BF06C0E3B18D8A414D082AA02D0F1
:1017F000010E01D0000EFF0A466E463A4646825060
:101800004618DF0B4618826E880EE66E130EE66EE3
:1018100080EC0CF082AA02D0010E01D0000EFF0A6B
:10182000466E463A464682504618DF0B4618826E90
:10183000880EE66E130EE66E80EC0CF0C7D7F29EB3
:10184000E150FC0FD96EE250DA6EFF0EDA22FE0E86
:10185000E3CFE9FFFF0EE3CFEAFFDECFEEFFDDCF00
:10186000EDFFFE0EE3CF3CF0FF0EE3CF3DF0160E92
:101870003C24D96E000E3D20DA6E000EDE6E000EA6
:10188000DD6EFE0EE3CF3CF0FF0EE3CF3DF0180E11
:101890003C24D96E000E3D20DA6E000EDE6E000E86
:1018A000DD6EF28EE552E552E552E5521200C60EAB
:1018B000F66E190EF76E000EF86E0900F5CF47F0C0
:1018C0000900F5CF48F001EEAAF022EE00F0EE6A32
:1018D000DD50D950FCE1DA50FAE101EE00F0AA0E39
:1018E000EE6AE806FDE100EE01F0290EEE6AE80678
:1018F000FDE1000EF86E060EF76E0001E1EF09F053
:10190000F29E110EE66E000EE66E01C0E6FF02C00A
:10191000E6FF8DEC0AF0060E3B24E96E010E3C203A
:10192000EA6EE150FE0FD96EE250DA6EFF0EDA2257
:10193000DECFEEFFDDCFEDFF030EE66E02EC03F02F
:10194000F28EE552E5521200D59AD596070ED512C1
:10195000F28CF28AFC0ED66ED58E7E0EE66E190ED5
:10196000E66E050EE66E000EE66E010EE66E000EE9
:10197000E66E1DEC09F0B6EC08F0F28E12009598B8
:10198000839883A802D0010E01D0000EFF0A466E94
:10199000463A83504618EF0B4618836E00F0F1D795
:1019A0001F0EE66E000EE66E3AEC0AF06C0EE66E66
:1019B0001F0EE66E000EE66E08EC07F0F7D7D58E28
:0819C0001200956A12000400F8
:020000040020DA
:08000000FFFFFFFFFFFFFFFF00
:020000040030CA
:0E000000FF071F1FFF8385FF0FC00FE00F409B
:00000001FF
